:020000040800F2
:1000000000C00020B1630008734B0008754B000866
:10001000774B0008794B00087B4B0008000000007C
:100020000000000000000000000000007D4B000800
:100030007F4B000800000000814B0008834B000844
:10004000F9630008F9630008F9630008F963000820
:10005000F9630008F9630008F9630008F963000810
:10006000F9630008F9630008F9630008CD4100084E
:10007000F9630008F9630008F9630008F9630008F0
:10008000914B0008A14B0008F9630008F9630008D0
:10009000F9630008F9630008F9630008F9630008D0
:1000A000F9630008F9630008F9630008F9630008C0
:1000B000F9630008F9630008F9630008F9630008B0
:1000C000F9630008F9630008F9630008F9630008A0
:1000D000F9630008F9630008B14B0008F9630008F0
:1000E000F9630008F9630008F9630008F963000880
:1000F000F9630008F9630008F9630008F963000870
:10010000F9630008F9630008F9630008F96300085F
:10011000F9630008F9630008F9630008F96300084F
:10012000F9630008F9630008F9630008F96300083F
:1001300000000000000000000000000000000000BF
:1001400000000000000000000000000000000000AF
:10015000000000000000000000000000000000009F
:10016000000000000000000000000000000000008F
:10017000000000000000000000000000000000007F
:10018000000000000000000000000000000000006F
:10019000000000000000000000000000000000005F
:1001A000000000000000000000000000000000004F
:1001B000000000000000000000000000000000003F
:1001C000000000000000000000000000000000002F
:1001D000000000000000000000000000000000001F
:0401E0005FF8E0F1F3
:1001E4000348044B834202D0034B03B118477047C2
:1001F4007401002074010020000000000548064B33
:100204001B1AD90F01EBA301491002D0034B03B110
:10021400184770477401002074010020000000009A
:1002240010B5064C237843B9FFF7DAFF044B13B13A
:100234000448AFF300800123237010BD780100202F
:10024400000000006064000808B5054B1BB10549B7
:100254000548AFF30080BDE80840FFF7CFBF00BFFB
:10026400000000007C01002060640008044B0022B0
:10027400DA61044A136943F0010313610180704792
:100284009801002000200240194BDB6813F0100392
:1002940005D0184AD36943F00203D3611023144AEA
:1002A400D26812F0040F06D01249CA6942F0010262
:1002B400CA6143F004030E4AD26912F0010F09D057
:1002C4000C49CA6942F00402CA610949CA6922F0A8
:1002D4000102CA6140F20112934202D0044AD3607F
:1002E4007047034AD36923F00103D361704700BF09
:1002F4000020024098010020074B1B6913F0800F77
:1003040007D0054B054A5A6002F188325A60002032
:1003140070470120704700BF002002402301674559
:10032400034A136943F0800313610020704700BF40
:100334000020024038B5044601F08AF90546164B00
:10034400DB6813F0010F0AD0B4F1FF3FF7D024B1FA
:1003540001F07EF9401BA042F1D903201BE00E4BB3
:10036400DB6813F0200F02D00B4B2022DA600A4B1B
:10037400DB6813F0100F0BD1074BDB6913F0010F8F
:1003840006D1054BDB6813F0040F01D1002002E015
:10039400FFF77AFF012038BD002002402DE9F84321
:1003A4001E46244B1B7E012B41D004460F4690462B
:1003B400204B01221A764CF25030FFF7BBFF034664
:1003C40078BB012C08D0022C03D04FF004091C4642
:1003D40007E04FF00209FAE74FF00109F7E70134AB
:1003E400E4B24C451DD22101C1F12002A1F1200348
:1003F40028FA01F106FA02F2114326FA03F319432B
:1004040089B207EB4400FFF731FF4CF25030FFF79D
:1004140091FF094B1D6925F001051D610346002864
:10042400DDD0044A002111761846BDE8F883022382
:10043400FAE700BF980100200020024082B0084B78
:100444001B68084AA2FB03235B0A00FB03F3019326
:1004540000BF019B5A1E0192002BF9D102B07047D4
:1004640000000020D34D621070B582B004460368CA
:1004740013F0010F2CD09A4B5B6803F00C03042B90
:100484001DD0974B5B6803F00C03082B12D06368F4
:10049400B3F5803F41D0002B55D103F1804303F5E0
:1004A40004331A6822F480321A601A6822F4802213
:1004B4001A6037E08A4B5B6813F4803FE7D0884BBF
:1004C4001B6813F4003F03D06368002B00F0AE8177
:1004D400236813F0020F75D0814B5B6813F00C0F87
:1004E4005FD07F4B5B6803F00C03082B54D0236967
:1004F400002B00F08A807B4B01221A6001F0A8F8DF
:100504000546774B1B6813F0020F75D101F0A0F874
:10051400401B0228F5D903208DE1714A136843F486
:1005240080331360636843B301F092F805466C4B63
:100534001B6813F4003FCBD101F08AF8401B6428F8
:10054400F5D9032077E1B3F5A02F09D0644B1A68DD
:1005540022F480321A601A6822F480221A60E1E7D9
:1005640003F18043A3F53C331A6842F480221A60F5
:100574001A6842F480321A60D4E701F069F805463B
:10058400574B1B6813F4003FA2D001F061F8401BE5
:100594006428F5D903204EE1514B5B6813F4803F86
:1005A400A5D14F4B1B6813F0020F03D02369012B15
:1005B40040F03E814A4A136823F0F803616943EA34
:1005C400C1031360236813F0080F33D0A369002B11
:1005D4005CD0444B0122C3F8802401F039F805466D
:1005E4003F4B5B6A13F0020F21D101F031F8401B3D
:1005F4000228F5D903201EE1394A136823F0F803D1
:10060400616943EAC1031360DCE7364B00221A60D8
:1006140001F01EF80546324B1B6813F0020FD1D0CF
:1006240001F016F8401B0228F5D9032003E101204C
:10063400FFF704FF236813F0040F00F09780284BA2
:10064400DB6913F0805F34D1254BDA6942F08052C4
:10065400DA61DB6903F080530193019B0125224B8E
:100664001B6813F4807F26D0E368012B3ED0002B57
:1006740054D103F1804303F504331A6A22F00102D2
:100684001A621A6A22F004021A6234E0154B00223C
:10069400C3F8802400F0DCFF0546114B5B6A13F0BD
:1006A400020FC7D000F0D4FF401B0228F5D9032065
:1006B400C1E00025D3E70C4A136843F48073136048
:1006C40000F0C6FF0646084B1B6813F4807FCBD1AD
:1006D40000F0BEFF801B6428F5D90320ABE000BF07
:1006E400001002400000424200700040544A136A65
:1006F40043F001031362E36833B300F0A9FF064635
:100704004F4B1B6A13F0020F2FD100F0A1FF801B87
:1007140041F288339842F3D903208CE0052B09D0A9
:10072400474B1A6A22F001021A621A6A22F0040282
:100734001A62E0E7424B1A6A42F004021A621A6A29
:1007440042F001021A62D6E700F082FF06463C4BF3
:100754001B6A13F0020F08D000F07AFF801B41F2ED
:1007640088339842F3D9032065E0E5B9E369002BA7
:1007740060D0334A526802F00C02082A5DD0022B82
:1007840017D0304B00221A6600F062FF04462C4B4F
:100794001B6813F0007F47D000F05AFF001B0228AB
:1007A400F5D9032047E0264AD36923F08053D36167
:1007B400DCE7244B00221A6600F04AFF0546204B72
:1007C4001B6813F0007F06D000F042FF401B022894
:1007D400F5D903202FE0236AB3F5803F1AD01849D6
:1007E4004B6823F47413226A606A024313434B6018
:1007F400144B01221A6600F02BFF0446104B1B68B1
:1008040013F0007F0ED100F023FF001B0228F5D95E
:10081400032010E00A4A536823F40033A1680B4311
:100824005360DCE7002006E0002004E0012002E041
:10083400012000E0002002B070BD0120FBE700BFF2
:10084400001002400000424286B0174B0FCB0DF15E
:10085400180C0CE90F0040F20123ADF80430134BDF
:100864005B6803F00C02082A02D0114806B07047F6
:10087400C3F3834218326A4412F8100C13F4803F15
:100884000DD00A4B5B68C3F3404318336B4413F831
:10089400142C074BB3FBF2F303FB00F0E6E7054B24
:1008A40003FB00F0E2E700BF786400080010024098
:1008B40000127A0000093D0070B504460D46594BFC
:1008C4001B6803F007038B420BD2564A136823F0CC
:1008D40007030B431360136803F007038B4240F0D4
:1008E4009A80236813F0020F06D04F4A536823F00E
:1008F400F003A1680B435360236813F0010F52D037
:100904006368012B23D0022B28D0474A126812F0C7
:10091400020F00F0828044494A6822F00302134324
:100924004B6000F095FE06466368012B1DD0022B38
:100934002AD03D4B5B6813F00C0F34D000F088FED6
:10094400831B41F288329342F3D9032062E0364A92
:10095400126812F4003FDED101205BE0324A1268D3
:1009640012F0007FD7D1012054E02F4B5B6803F0D5
:100974000C03042B17D000F06BFE831B41F288326A
:100984009342F2D9032045E0274B5B6803F00C0344
:10099400082B08D000F05CFE801B41F2883398429B
:1009A400F2D9032036E01F4B1B6803F00703AB4268
:1009B4000AD91C4A136823F007032B4313601368F6
:1009C40003F00703AB422AD1236813F0040F06D0C7
:1009D400154A536823F4E063E1680B4353602368CA
:1009E40013F0080F07D0104A536823F460532169A9
:1009F40043EAC1035360FFF727FF0B4B5B68C3F364
:100A040003130A4AD35CD840094B1860002000F055
:100A1400EFFD002070BD0120FCE70120FAE7012072
:100A2400F8E700BF00200240001002409464000870
:100A340000000020014B1868704700BF0000002030
:100A440008B5FFF7F7FF044B5B68C3F30223034ABF
:100A5400D35CD84008BD00BF001002408C6400087D
:100A640008B5FFF7E7FF044B5B68C3F3C223034AEF
:100A7400D35CD84008BD00BF001002408C6400085D
:100A840030B4036A23F001030362036A4268846991
:100A940024F0730C0C6844EA0C0423F0020C8B68F9
:100AA40043EA0C03114DA84203D005F50065A842A2
:100AB40005D123F00803CD682B4323F004030B4D29
:100AC400A84203D005F50065A84207D122F440727C
:100AD4004D6945EA020C8A6942EA0C02426084616B
:100AE4004A684263036230BC704700BF002C014077
:100AF40030B4036A23F480730362036A4268C469EE
:100B040024F0730C0C6844EA0C0523F400738C681D
:100B140043EA0423114CA04203D004F50064A0422C
:100B240006D123F40063CC6843EA042323F48063EE
:100B34000A4CA04203D004F50064A04207D122F479
:100B440040524C6942EA04128C6942EA041242603F
:100B5400C5614A68C263036230BC7047002C01401F
:100B640030B4036A23F480530362036A4468C2699D
:100B740022F4E6420D6842EA052223F400538D680C
:100B840043EA0533094DA84203D005F50065A842A0
:100B940004D124F480444D6944EA85144460C2615C
:100BA4004A680264036230BC704700BF002C0140F5
:100BB40010B4036A046A24F001040462846924F012
:100BC400F00C4CEA021223F00A030B438261036225
:100BD40010BC704710B4036A23F0100303628469E5
:100BE400036A24F4704C4CEA023223F0A00343EA73
:100BF40001138261036210BC704710B4846824F44A
:100C04007F4C42EA03220A4342EA0C02826010BC8F
:100C1400704710B50468A26822F070024B68134351
:100C240023F007030A681A43A2604B68602B24D0A0
:100C340009D8402B10D0502B0DD10A69896800685F
:100C4400FFF7B6FF07E0702B05D10B698A68C96806
:100C54000068FFF7D2FF10BD03681C6A1A6A22F00D
:100C640001021A620268936923F0F003096943EAF6
:100C74000113936103681C62EDE70A6989680068DF
:100C8400FFF7A8FFE7E7704738B590F83C30012B31
:100C940018D00446012580F83C50022380F83D30EA
:100CA400FFF7B7FF2268D36823F04003D3602268BC
:100CB400D36823F48043D36084F83D50002084F843
:100CC4003C0038BD0220FCE70368244A904212D05D
:100CD40002F5006290420ED0B0F1804F0BD0A2F525
:100CE4009832904207D002F58062904203D002F518
:100CF4008062904203D123F070034A681343174A79
:100D0400904212D002F5006290420ED0B0F1804FB2
:100D14000BD0A2F59832904207D002F5806290423F
:100D240003D002F58062904203D123F44073CA6871
:100D3400134323F080034A691A4302608B68C36239
:100D44000B688362054B984203D003F50063984215
:100D540001D10B690363012343617047002C0140F7
:100D6400B0B110B5044690F83D3063B1022384F865
:100D74003D30214651F8040BFFF7A6FF012384F808
:100D84003D30002010BD80F83C30FFF77CFFEDE7DC
:100D94000120704730B4036A23F010030362036A2E
:100DA4004468826922F4E6420D6842EA052223F08F
:100DB40020038D6843EA0513114DA84203D005F5BD
:100DC4000065A84206D123F08003CD6843EA0513E9
:100DD40023F040030A4DA84203D005F50065A8425C
:100DE40007D124F440644D6944EA85048D6944EADA
:100DF4008504446082614A688263036230BC704740
:100E0400002C014038B590F83C30012B66D00446E4
:100E14000D46012380F83C30022380F83D300C2A33
:100E24001AD8DFE802F00719191920191919341909
:100E3400191947000068FFF723FE2268936943F0FD
:100E4400080393612268936923F004039361226881
:100E5400936929690B439361012384F83D30002091
:100E640084F83C0038BD0068FFF794FF226893695A
:100E740043F4006393612268936923F4806393616C
:100E840022689369296943EA01239361E4E70068CE
:100E9400FFF72EFE2268D36943F00803D36122686A
:100EA400D36923F00403D3612268D36929690B430E
:100EB400D361D1E70068FFF753FE2268D36943F496
:100EC4000063D3612268D36923F48063D361226809
:100ED400D369296943EA0123D361BDE70220C1E74D
:100EE4004FF0010C0CFA01FC036A23EA0C030362C1
:100EF400036A8A40134303627047000010B5044636
:100F040001220068FFF7ECFF2368094A934203D0EB
:100F140002F50062934203D15A6C42F400425A64CF
:100F24002268136843F001031360002010BD00BF62
:100F3400002C01404FF0040C0CFA01FC036A23EA74
:100F44000C030362036A8A4013430362704710B5BB
:100F5400044604220068FFF7EDFF2268536C43F453
:100F6400004353642268136843F0010313600020B4
:100F740010BD024690F83C30012B21D0012380F8AB
:100F84003C30CB6823F440738868034323F48063C4
:100F94004868034323F400630868034323F480533D
:100FA4000869034323F4005348690343896923F41C
:100FB40040430B4311684B64002082F83C007047A7
:100FC4000220704790F83C20012A22D030B4034616
:100FD400012083F83C00022283F83D201C686268EB
:100FE40022F0700262601C6862680D682A436260C5
:100FF4001C68A26822F08002A2601C68A26849688A
:101004000A43A26083F83D00002083F83C0030BC12
:10101400704702207047000090F82420012A25D050
:101024008CB00346012280F82420114A0092026801
:10103400906810F0010F07D10D48806810F0010F7F
:1010440002D10C48824209D09A6A42F020029A6284
:101054000120002283F824200CB07047506820F44B
:1010640070200968014351600020F2E702207047B4
:101074000028014000240140002808DB0901C9B20E
:1010840000F1604000F5614080F80013704700F003
:101094000F000901C9B2014B1954704714ED00E067
:1010A40000B500F00700C0F1070CBCF1040F28BF25
:1010B4004FF0040C031D062B0FD9C31E4FF0FF3E47
:1010C4000EFA0CF021EA000199400EFA03FE22EA1E
:1010D4000E0241EA02005DF804FB0023EEE7000083
:1010E400074AD36823F4E0631B041B0C000200F4DA
:1010F400E060034343F0BF6343F40033D3607047BD
:1011040000ED00E010B50446054BD868C0F302209A
:10111400FFF7C6FF01462046FFF7AEFF10BD00BF34
:1011240000ED00E000F01F02400901239340024A51
:1011340042F82030704700BF00E100E00138B0F110
:10114400807F0BD24FF0E0235861054AF02182F8EA
:1011540023100020986107221A617047012070470C
:1011640000ED00E0042806D04FF0E022136923F0DC
:101174000403136170474FF0E022136943F0040342
:1011840013617047704708B5FFF7FCFF08BD000006
:10119400064B0022DA61064B1A6942F004021A6116
:1011A4001A6942F040021A61704700BF980100209A
:1011B40000200240064B0022DA61064B1A6942F015
:1011C40002021A6158611A6942F040021A617047BA
:1011D4009801002000200240264B1B7E012B46D0A4
:1011E40070B505460E46234B01221A760368022B7E
:1011F40020D04CF25030FFF79DF890BB4FF0FF33F6
:101204003360AC680121EA68AB6803EBC223A342F4
:1012140028D92046FFF7CEFF4CF25030FFF78AF86A
:10122400154A136923F0020313610146B8B904F5A2
:101234000064E8E74CF25030FFF77CF808B1012174
:1012440010E00120FFF7A4FF4CF25030FFF772F8D2
:101254000146094A136923F00403136102E0346070
:1012640000E00121034B00221A76084670BD0221DA
:10127400084670479801002000200240F0B583B072
:1012840000252A46ACE0844EB44210D007D9834EE0
:10129400B4420CD006F58036B44208D013E0A6F56B
:1012A4008016B44203D006F57026B44207D18C6888
:1012B400002C5FD0012C58D04361082503E0A6F52B
:1012C4008016B442F3D0BCF1FF0F55D80646940003
:1012D40033684FF00F0E0EFA04FE23EA0E0305FAEC
:1012E40004F4234333604B6813F0805F77D06C4B76
:1012F4009C6944F001049C619B6903F00103019320
:10130400019B9408A61C674B53F8267002F0030651
:10131400B6000F23B34027EA030E634B984232D042
:1013240003F58063984200F0958003F5806398424A
:1013340000F0928003F58063984200F08F8003F5FB
:101344008063984200F08C8003F58063984218D043
:10135400062319E0CD68B6E7CD680435B3E7CD6858
:101364000835B0E7CD680C35ADE703610825AAE779
:101374000025A8E70425A6E7061DA2F10804A40099
:10138400A6E7052300E00023B34043EA0E0302343A
:10139400444E46F824304B6813F4803F62D0434CEB
:1013A400236843EA0C0323604B6813F4003F5FD0C7
:1013B4003E4C636843EA0C0363604B6813F4801F7C
:1013C4005CD03A4CA36843EA0C03A3604B6813F463
:1013D400001F59D0354CE36843EA0C03E360013243
:1013E4000F2A57D8012393400C6804EA030C33EA0C
:1013F4000404F4D14C68122C3FF645AF122C3FF68E
:1014040062AF01A656F824F0B3120008591300087D
:101414006313000875130008CB120008CB120008F0
:10142400CB120008CB120008CB120008CB12000824
:10143400CB120008CB120008CB120008CB12000814
:10144400CB120008CB120008CB1200085D13000871
:1014540069130008012397E7022395E7032393E721
:10146400042391E7114C236823EA0C0323609BE7D0
:101474000E4C636823EA0C0363609EE70B4CA3687D
:1014840023EA0C03A360A1E7084CE36823EA0C03F6
:10149400E360A4E703B0F0BD0000221000003110A7
:1014A4000010024000000140000801400004014017
:1014B4008368194201D001207047002070470AB1A7
:1014C40001617047090401617047C3685940C160F4
:1014D4007047000070B582B00446036813F0010F32
:1014E40036D03F4BDB6913F0805F49D13C4BDA695E
:1014F40042F08052DA61DB6903F080530193019B6F
:101504000125384B1B6813F4807F3BD0344B1B6A96
:1015140013F4407313D0626802F440729A420ED0FE
:101524002F4A136A23F440702F490126C1F84064FE
:101534000026C1F84064106213F0010F36D1284A26
:10154400136A23F4407361680B431362002D3ED188
:10155400236813F0020F06D0214A536823F4404352
:10156400A1680B435360236813F0100F34D01C4A56
:10157400536823F4800361690B43536000202CE01B
:101584000025BEE7174A136843F48073136000F024
:101594005FF80646134B1B6813F4807FB6D100F046
:1015A40057F8801B6428F5D9032016E000F050F8A2
:1015B40006460B4B1B6A13F0020FC0D100F048F82B
:1015C400801B41F288339842F3D9032005E0D369A4
:1015D40023F08053D361BBE7002002B070BD00BF8D
:1015E40000100240007000400000424270470000BA
:1015F40010B50446074B1868074BA3FB003080095D
:10160400FFF79CFD002221464FF0FF30FFF77AFDE3
:10161400002010BD00000020D34D621008B5074A19
:10162400136843F0100313600320FFF759FD0020F3
:10163400FFF7DEFFFFF7DAFF002008BD00200240BD
:10164400024A136801331360704700BFB8010020D9
:10165400014B1868704700BFB801002030B583B053
:101664000190FFF7F5FF0546019CB4F1FF3F00D060
:101674000134FFF7EDFF401BA042FAD303B030BDA5
:101684007047000030B482B00022019290F8242008
:10169400012A00F08F800346012280F824204A6842
:1016A400062A2DD80468606B02EB8202053A4FF0DB
:1016B4001F0C0CFA02FC20EA0C000D6805FA02F279
:1016C400024362630A68092A38D91C68E06802EB9D
:1016D40042021E3A4FF0070C0CFA02FC20EA0C00FE
:1016E4008D6805FA02F20243E2600A68103A012AA0
:1016F40034D90020002283F8242002B030BC704783
:101704000C2A0DD80568286B02EB8202233A1F24A9
:10171400944020EA04000C68944020432863D1E7F5
:101724000568E86A02EB8202413A1F24944020EAE9
:1017340004000C6894402043E862C3E71C682069F5
:1017440002EB42024FF0070C0CFA02FC20EA0C00F8
:101754008D6805FA02F202432261C6E71A68164848
:10176400824205D09A6A42F020029A620120C1E7BF
:10177400906810F4000F1BD1906840F40000906052
:101784000A68102A01D00020B4E70C4A12680C49F8
:10179400A1FB0212920C02EB82025200019202E0BF
:1017A400019A013A0192019A002AF9D10020A1E795
:1017B40000209FE70220A0E7002401400000002051
:1017C40083DE1B4330B583B00023019303689A681A
:1017D40012F0010F2ED104469A6842F001029A6079
:1017E400164B1B68164AA2FB03239B0C019302E0D1
:1017F400019B013B0193019B002BF9D1FFF728FFCB
:10180400054623689B6813F0010F11D1FFF720FFF1
:10181400431B022BF5D9A36A43F01003A362E36AC6
:1018240043F00103E362002384F82430012002E042
:10183400002000E0002003B030BD00BF0000002005
:1018440083DE1B4390F82430012B68D010B5044686
:10185400012380F82430FFF7B5FF00285BD1A36A89
:1018640023F4407323F0010343F48073A3622368D9
:101874002C4A934227D0A26A22F48012A2625A68A8
:1018840012F4806F05D0A26A22F4405242F48052CE
:10189400A262A26A12F4805F2BD0E26A22F00602EE
:1018A400E262002284F824206FF002021A602368A6
:1018B4009A6802F46022B2F5602F1DD09A6842F44F
:1018C40080129A602AE0A2F58062526812F4702FA6
:1018D400D1D0A26A42F48012A262134A526812F46E
:1018E400806FD6D0A26A22F4405242F48052A2629F
:1018F400CFE70022E262D4E70A4A934204D09A680E
:1019040042F4A0029A6009E0A2F58062526812F4DF
:10191400702FD3D1F3E7002384F8243010BD0220C4
:10192400704700BF002801400024014038B5036817
:101934009A6812F0010F01D1002038BD04469A685C
:1019440022F001029A60FFF783FE054623689B6834
:1019540013F0010F0ED0FFF77BFE431B022BF5D9CA
:10196400A36A43F01003A362E36A43F00103E36252
:101974000120E2E70020E0E7002800F08680F8B5C7
:101984000446836A002B50D02046FFF7CFFFA36A9A
:1019940013F0100373D1002871D1A26A22F4885283
:1019A40022F0020242F00202A2626268266838490A
:1019B4008E4240D0E1690A43E16842EA4102A568E7
:1019C400B5F5807F02D0012D3CD01D466769012FFB
:1019D4003BD0716821F46941294371602568AE6880
:1019E4002C4931401143A960A168B1F5807F01D031
:1019F400012902D12369013B1B052568E96A21F409
:101A040070010B43EB6223689968234B0B409A42A5
:101A14002CD0A36A23F0120343F01003A362E36AF9
:101A240043F00103E36201202EE0C36280F8243016
:101A3400FFF726FEA8E7E169B1F5402FBBD14FF4CB
:101A44000021B8E74FF48075C0E731B9A1690139C5
:101A540045EA413141F40065BBE7A16A41F0200148
:101A6400A162E16A41F00101E162B2E70023E362AD
:101A7400A36A23F0030343F00103A36204E0A36A0F
:101A840043F01003A3620120F8BD0120704700BF9A
:101A9400003C0140FDF7E1FFFE0E1FFF0268D36822
:101AA40023F0C003D360202380F8393070470268E4
:101AB400D36823F49073D3600268536923F001035D
:101AC4005361202380F83A30704790F83930DBB204
:101AD400212B01D0022070478368B3F5805F17D0B3
:101AE400036A5A1C02621A7803685A60C38C9BB258
:101AF400013B9BB2C3844BB90268D36823F08003D3
:101B0400D3600268D36843F04003D3600020704779
:101B1400036A1B880268C3F30803536003691BB993
:101B2400036A02330362E1E7036A01330362DDE718
:101B34002DE9F04104460268136923F44053C16857
:101B44000B431361836802691343426913430168B9
:101B5400CA6822F4B05222F00C021343CB6002682C
:101B6400536923F4407381690B4353610268574BF3
:101B74009A4255D0FEF764FF00EB800000EB800032
:101B840063689B00B0FBF3F5514FA7FB05356D0966
:101B94002E01FEF755FF00EB800000EB8000636828
:101BA4009B00B0FBF3F5FEF74BFF00EB800000EB6E
:101BB400800063689B00B0FBF3F0A7FB0030400992
:101BC4004FF0640808FB10531B013233A7FB0323B7
:101BD4005B0903F0F003F518FEF732FF00EB800019
:101BE40000EB800063689B00B0FBF3F6FEF728FF70
:101BF40000EB800000EB800063689B00B0FBF3F017
:101C0400A7FB0030400908FB10631B013233A7FB1C
:101C14000373C3F3431322681D449560BDE8F08148
:101C2400FEF71EFF00EB800000EB800063689B0062
:101C3400B0FBF3F5264FA7FB05356D092E01FEF722
:101C44000FFF00EB800000EB800063689B00B0FB9B
:101C5400F3F5FEF705FF00EB800000EB80006368FE
:101C64009B00B0FBF3F0A7FB003040094FF0640881
:101C740008FB10531B013233A7FB03235B0903F05A
:101C8400F003F518FEF7ECFE00EB800000EB80009B
:101C940063689B00B0FBF3F6FEF7E2FE00EB800006
:101CA40000EB800063689B00B0FBF3F0A7FB0030FF
:101CB400400908FB10631B013233A7FB0373C3F312
:101CC400431322681D449560A8E700BF0038014013
:101CD4001F85EB5158B310B5044690F839300BB357
:101CE400242384F839302268D36823F40053D36062
:101CF4002046FFF71DFF2268136923F49043136104
:101D04002268536923F02A0353612268D36843F499
:101D14000053D3600020E063202384F8393084F832
:101D24003A3010BD80F8383000F028FDD8E70120A3
:101D34007047000038B5134690F83920D2B2202AF3
:101D440030D1044600292FD0002B2FD090F8382012
:101D5400012A2DD0012280F8382001628384C384B3
:101D64000025C563212280F83920026B1148906256
:101D7400226B1148D062226B10481063226B5563AA
:101D840022680432206B00F039FA23686FF04002B5
:101D94001A6084F838502268536943F08003536111
:101DA400284600E0022038BD0120FCE70120FAE7C4
:101DB4000220F8E76F1E0008BB1E0008B11F0008D0
:101DC40030B583B0044690F83A00C0B220283CD124
:101DD40000293DD0002A3DD094F83830012B3BD067
:101DE400012384F83830A162A2850025E56322230B
:101DF40084F83A30636B19489862636B1848D86268
:101E0400636B18481863636B5D63206813460A4666
:101E1400011D606B00F0F2F9019523681A680192C4
:101E24005A680192019A84F83850DA6842F4807250
:101E3400DA602268536943F00103536122685369ED
:101E440043F040035361284600E0022003B030BD54
:101E54000120FBE70120F9E70220F7E7C71E00088D
:101E6400A51F0008B11F0008704708B50346406A63
:101E74001B681B6813F0200F0CD10023C384026875
:101E8400536923F0800353610268D36843F040032D
:101E9400D36008BDFFF7E8FFFBE708B50168CA682F
:101EA40022F04002CA60202280F83920FFF7DCFFCC
:101EB400002008BD704708B5406AFFF7FBFF08BD66
:101EC400704708B50346406A1B681B6813F0200F6F
:101ED40013D10023C3850268D36823F48073D360CD
:101EE4000268536923F0010353610268536923F0C4
:101EF40040035361202380F83A30FFF7E1FF08BD27
:101F040008B590F83A30DBB2222B46D18368B3F59A
:101F1400805F0FD003690BBB03685A68836A591C3E
:101F240081621A70C38D9BB2013B9BB2C385F3B12E
:101F3400002008BD826A036943B903685B68C3F380
:101F440008031380836A02338362EBE703685B68E8
:101F5400DBB21380836A01338362E3E703685B685F
:101F6400826A511C816203F07F031370DAE702680E
:101F7400D36823F02003D3600268D36823F480730A
:101F8400D3600268536923F001035361202380F86E
:101F94003A30FFF795FF0020CBE70220C9E77047EE
:101FA40008B5406AFFF7FBFF08BD704710B5446AE7
:101FB40023685A6994F83930DBB2212B10D0236896
:101FC4005A6902F0400294F83A30DBB2222B11D065
:101FD400E36B43F01003E3632046FFF7E6FF10BD15
:101FE40002F08002002AEAD00023E3842046FFF7AF
:101FF40055FDE4E7002AEBD00023E3852046FFF7F4
:1020040056FDE5E710B5044602681368D1685269C5
:1020140013F00F0F08D113F0200F0BD011F0200F85
:1020240008D0FFF76DFF11E012F001020FD111F497
:10203400907F0CD113F0800F02D011F0800F65D186
:1020440013F0400F02D011F0400F63D110BD13F014
:10205400010F06D011F4807F03D0E06B40F0010043
:10206400E06313F0040F04D01AB1E06B40F00200F7
:10207400E06313F0020F04D01AB1E06B40F00400E7
:10208400E06313F0080F04D01AB1E26B42F00802C7
:10209400E263E26B002AD9D013F0200F02D011F0D2
:1020A400200F21D123685B6903F04003E26B12F037
:1020B400080F00D123B32046FFF7F9FC23685A69BF
:1020C40012F0400F18D05A6922F040025A61636B33
:1020D40073B1124A5A63606B00F0CAF80028B5D095
:1020E400606B436B9847B1E72046FFF709FFD9E7D8
:1020F4002046FFF75AFFA9E72046FFF756FFA5E75A
:102104002046FFF752FF0023E3639FE72046FFF7D3
:10211400DCFC9BE72046FFF7C0FE97E7252100087B
:1021240008B5406A0023C385C384FFF73EFF08BD9A
:1021340030B40124056CAC40C56B6C60046863600A
:102144004368102B05D0036899600368DA6030BCDB
:10215400704703689A600368D960F8E700283ED0A6
:1021640010B4034600681F4A90422DD81E4A024408
:102174001E49A1FB0212120992001A641C4ADA6376
:10218400022283F82120016821F47F5121F03001DB
:102194005A689C682243DC6822431C6922435C69B8
:1021A40022439C692243DC6922430A4302600020E3
:1021B4009862D862186358639863012283F82120D7
:1021C40083F8200010BC70470A4A02440749A1FB67
:1021D4000212120992001A64074ADA63D0E7012056
:1021E400704700BF07040240F8FFFDBFCDCCCCCC44
:1021F40000000240F8FBFDBF0004024038B504466D
:1022040090F82000012831D0012084F8200094F8AF
:102214002100012804D0002384F82030022038BD96
:10222400022084F821000020A0632568286820F09B
:10223400010028602046FFF77BFFE36A5BB1226858
:10224400136843F00E0313602268136843F001031C
:1022540013600020E3E72268136823F0040313608B
:102264002268136843F00A031360EDE70220D6E7FF
:1022740008B590F82130022B03D004238363012096
:1022840008BD0268136823F00E0313600268136824
:1022940023F00103136003684B4A93424ED9783A02
:1022A400934224D01432934230D0143293422FD02C
:1022B400143293422FD0143293422FD014329342CB
:1022C4002FD0143293422FD002F5627293422ED053
:1022D400143293422DD0143293422CD014329342B0
:1022E40002D04FF4803203E04FF4805200E0012228
:1022F400364B5A60012380F82130002380F82030C7
:10230400436B002B5ED098470020B9E71022EFE71B
:102314004FF48072ECE74FF48052E9E74FF48032D7
:10232400E6E74FF48012E3E74FF08072E0E7012222
:10233400DEE71022DCE74FF48072D9E7244A9342A7
:1023440024D01432934225D01432934224D0143230
:10235400934224D01432934224D01432934224D092
:102364001432934224D002F56272934223D0143281
:10237400934222D01432934221D01432934202D099
:102384004FF4803203E04FF4805200E00122114BFD
:102394005A60AFE71022FAE74FF48072F7E74FF480
:1023A4008052F4E74FF48032F1E74FF48012EEE705
:1023B4004FF08072EBE70122E9E71022E7E74FF4E0
:1023C4008072E4E700205BE78000024000040240E2
:1023D400080002400000024038B5C36B1A68046864
:1023E4002568016C04238B40134200F09B8015F098
:1023F400040F00F09780236813F0200F03D12368A3
:1024040023F00403236003689A4A934246D9783A36
:10241400934224D01432934228D01432934227D0CA
:102424001432934227D01432934227D01432934269
:1024340027D01432934227D002F56272934226D0F9
:102444001432934225D01432934224D0143293424E
:1024540002D04FF4802203E04FF4804200E00422D3
:10246400854B5A60C36A03B1984738BD4022F7E7E9
:102474004FF48062F4E74FF48042F1E74FF4802296
:10248400EEE74FF48002EBE74FF08062E8E70422C6
:10249400E6E74022E4E74FF48062E1E7774A9342BB
:1024A40024D01432934225D01432934224D01432CF
:1024B400934224D01432934224D01432934224D031
:1024C4001432934224D002F56272934223D0143220
:1024D400934222D01432934221D01432934202D038
:1024E4004FF4802203E04FF4804200E00422644B66
:1024F4005A60B7E74022FAE74FF48062F7E74FF4F7
:102504008042F4E74FF48022F1E74FF48002EEE7D3
:102514004FF08062EBE70422E9E74022E7E74FF45B
:102524008062E4E702238B40134200F0AB8015F095
:10253400020F00F0A780236813F0200F06D1236850
:1025440023F00A032360012380F821300368494AF9
:1025540093424BD9783A934224D0143293422DD0EB
:10256400143293422CD0143293422CD0143293421E
:102574002CD0143293422CD0143293422CD002F536
:10258400627293422BD0143293422AD01432934273
:1025940029D01432934202D04FF4003203E04FF4B6
:1025A400005200E00222344B5A60002380F82030AD
:1025B400836A002B3FF459AF984756E72022F2E78D
:1025C4004FF40072EFE74FF40052ECE74FF400329F
:1025D400E9E74FF40012E6E74FF00072E3E7022266
:1025E400E1E72022DFE74FF40072DCE7234A93425D
:1025F40024D01432934225D01432934224D014327E
:10260400934224D01432934224D01432934224D0DF
:102614001432934224D002F56272934223D01432CE
:10262400934222D01432934221D01432934202D0E6
:102634004FF4003203E04FF4005200E00222104B4A
:102644005A60B2E72022FAE74FF40072F7E74FF43A
:102654000052F4E74FF40032F1E74FF40012EEE7D2
:102664004FF00072EBE70222E9E72022E7E74FF49C
:102674000072E4E7800002400004024008000240C7
:102684000000024008238B4013423FF4EEAE15F0E5
:10269400080F3FF4EAAE236823F00E032360026CB4
:1026A400C16B012303FA02F24A60836380F821308C
:1026B400002380F82030036B002B3FF4D6AE9847FC
:1026C400D3E600BF0F4B1A6842F001021A60596842
:1026D4000D4A0A405A601A6822F0847222F4803249
:1026E4001A601A6822F480221A605A6822F4FE02E0
:1026F4005A604FF41F029A60044B4FF000629A60D4
:10270400704700BF001002400000FFF800ED00E039
:1027140000B583B0164B5A6942F001025A615B69F5
:1027240003F001030193019B002211461020FEF7E0
:10273400E9FC1020FEF7F6FC002211461120FEF7FA
:10274400E1FC1120FEF7EEFC0A480B4B03604FF44A
:10275400E133436000238360C36003610C22426160
:102764008361C361FFF7B6FA03B05DF804FB00BFF1
:1027740000100240E002002000440040F0B589B09F
:1027840004460023049305930693079303685C4A65
:10279400934204D05B4A934258D009B0F0BD5A4BDF
:1027A400DA6942F40032DA61DA6902F40032009242
:1027B400009A9A6942F004029A619B6903F0040347
:1027C4000193019B0423049302230593032307939A
:1027D4004E4E04A93046FEF751FD0823049300250C
:1027E40005950123069304A93046FEF747FD484E9C
:1027F400484B33607560B5608027F760356175615B
:102804002023B361F5613046FFF7A8FC6663746268
:10281400414E424B336010237360B560F7603561FD
:102824007561B561F5613046FFF798FC2663746203
:102834002A4629462620FEF765FC2620FEF772FC70
:102844002268D36843F01003D360A6E72E4BDA69FD
:1028540042F48022DA61DA6902F480220292029A56
:102864009A6942F008029A619B6903F00803039392
:10287400039B4FF48063049302230593032307937C
:10288400274E04A93046FEF7F9FC4FF40063049385
:10289400002505950123069304A93046FEF7EEFCB6
:1028A400204E214B33607560B5608027F760356139
:1028B40075612023B361F5613046FFF74FFC666311
:1028C40074621A4E1A4B336010237360B560F7605C
:1028D40035617561B561F5613046FFF73FFC2663EC
:1028E40074622A4629462720FEF70CFC2720FEF7AF
:1028F40019FC2268D36843F01003D3604DE700BF8E
:10290400004400400048004000100240000801401C
:102914009C0200206C00024058020020800002400B
:10292400000C01401402002030000240D0010020BD
:102934001C0002402DE9F04F89B0864B9A6942F0A1
:1029440004029A619A6902F004020192019A9A6956
:1029540042F008029A619A6902F008020292029A0D
:102964009A6942F010029A619B6903F01003039381
:10297400039B4FF00009CDF81490CDF8189002276E
:1029840007974FF0200ACDF810A0734E04A93046E3
:10299400FEF774FC4023049304A93046FEF76EFC52
:1029A4004FF0800BCDF810B004A93046FEF766FC5A
:1029B4004FF480620492694C04A92046FEF75EFC41
:1029C4004FF40063049304A92046FEF757FC4FF428
:1029D4008055049504A92046FEF750FC4FF00108E9
:1029E400CDF81880049505F1804505F5784504A9CE
:1029F4002846FEF743FCCDF81890049704A928460E
:102A0400FEF73CFCCDF814804FF00409CDF810908B
:102A140004A93046FEF732FC102104910DEB0100AD
:102A240001462846FEF72AFCCDF810A004A801466A
:102A34002846FEF723FC03230593CDF8108004A851
:102A440001462046FEF71AFCCDF8108004A8014682
:102A54002846FEF713FC082004900DF1100C614683
:102A64002046FEF70BFC04970DF1100C614620463E
:102A7400FEF704FC1021049169442046FEF7FEFB96
:102A8400CDF810A004A92046FEF7F8FBCDF810906D
:102A940004A92046FEF7F2FB0820049004A9284666
:102AA400FEF7ECFBCDF8109004A92846FEF7E6FBF0
:102AB40005974023049304A92046FEF7DFFBCDF8D5
:102AC40010B004A92046FEF7D9FB4FF48079CDF865
:102AD400109004A92046FEF7D1FBCDF810B004A94C
:102AE4002846FEF7CBFBCDF8108004A93046FEF74C
:102AF400C5FB049704A93046FEF7C0FBCDF810903F
:102B040004A92846FEF7BAFB4FF40073049304A902
:102B14002846FEF7B3FB4FF48062049204A92846CA
:102B2400FEF7ACFB4FF40053049304A93046FEF7C0
:102B3400A5FB4FF48043049304A93046FEF79EFBA3
:102B44004FF40043049304A93046FEF797FB09B001
:102B5400BDE8F08F00100240000C0140001001405D
:102B64002DE9F04F99B07B4B9A6942F400629A6167
:102B74009A6902F400620192019A9A6942F400523D
:102B84009A619B6903F400530293029B724EDFF82F
:102B9400CC91C6F80090002474604FF0200AC6F867
:102BA40008A04FF4FA6BC6F80CB034617461B461D8
:102BB4003046FEF7D5F810231693179416A930461D
:102BC400FEF700FA60230F931094119408271297CC
:102BD400139414944FF40072159222460FA93046B0
:102BE400FEF710F904220FA93046FEF70BF93A4616
:102BF4000FA93046FEF706F94FF4006108914FF42F
:102C0400806009900A9430250B950C940D940E94D1
:102C14000DEB0A0C61463046FEF7ABF9504DDFF878
:102C24004481C5F800806C60C5F808A0C5F80CB0F4
:102C34002C616C61AC612846FEF792F8CDF858A07F
:102C4400802317930DF1580C61462846FEF7BAF914
:102C540004940523039303A92846FEF715F850238B
:102C6400C8F8243060230F9310941194129713948E
:102C740014944FF40072159222460DF13C0C6146F7
:102C84002846FEF7BFF804220DF13C0C61462846A5
:102C9400FEF7B8F83A460DF13C0C61462846FEF7BB
:102CA400B1F84FF4006108914FF4806009900A94E0
:102CB40030230B930C940D940E940DEB0A012846CB
:102CC400FEF757F9D8F8443023F40043C8F84430E9
:102CD400D9F8443023F40043C9F844302146284647
:102CE400FEF70CF904212846FEF708F93946284670
:102CF400FEF704F921462846FEF729F9042128465F
:102D0400FEF725F939462846FEF721F921463046D3
:102D1400FEF7F4F804213046FEF7F0F83946304661
:102D2400FEF7ECF821463046FEF711F9042130464F
:102D3400FEF70DF939463046FEF709F92B680122F2
:102D44001A633268136843F00103136019B0BDE8D5
:102D5400F08F00BF00100240C0030020002C01408F
:102D640080030020003401402DE9F04387B0434E36
:102D7400B36943F40073B361B36903F4007300935C
:102D8400009B3F4C3F4B23604FF48073A3600025AE
:102D9400E56065614FF44023E36165604FF0050829
:102DA400C4F810802046FEF7E7FD374A536843F421
:102DB400802353604FF4C023059305A92046FEF7F2
:102DC4002BF904950B2702974FF00109CDF80C90CD
:102DD40002A92046FEF756FCCDF810900295022376
:102DE400039302A92046FEF74DFC0E23029303230E
:102DF400039302A92046FEF745FC0C230293042307
:102E0400039302A92046FEF73DFC072304931023F5
:102E14000293CDF80C8002A92046FEF733FC226809
:102E2400936843F4000343F480739360936843EA24
:102E340009039360736943EA09037361736903EADD
:102E440009030193019B114B9D60C3F80C80104A48
:102E54001A61104A5A6140F6A2229A609A6842EABC
:102E640009029A602A4629463846FEF74BF9384645
:102E7400FEF758F907B0BDE8F08300BF0010024028
:102E840050030020002401400000014000000240E3
:102E94004C240140BC010020F0B585B0274B9A6951
:102EA40042F480629A619B6903F480630093009BFF
:102EB400234C244B23604FF48073A3600025E5600A
:102EC40065614FF46023E361656005262661204651
:102ED400FEF752FD03950A2301930125029501A9EA
:102EE4002046FEF7CFFB03950D230193022702979B
:102EF40001A92046FEF7C6FB0F2301930325029583
:102F040001A92046FEF7BEFB0197042302930DEBB3
:102F140003012046FEF7B6FB0195029601A920465F
:102F2400FEF7B0FB23689A6842F480729A609A684C
:102F340042F001029A6005B0F0BD00BF00100240EB
:102F4400200300200028014070B5214C002384F8A0
:102F5400FB3084F8FA30022384F8F930012684F82F
:102F6400FD6043F66033A4F8CE304FF49643A4F8E2
:102F7400DA3084F8FE604FF4C852A4F8D0204FF43D
:102F8400C872A4F8CC20A4F8E03042F6E063A4F8B8
:102F9400E230104D4FF480722146284603F050FA77
:102FA40085F8FA600C4804600C4BC3600C4B43601A
:102FB4000C4B83600C4C25600C4BE3600C4B636042
:102FC4000C4BA36003F092F9204603F08FF970BD17
:102FD40074000020400500201C070020600600202B
:102FE40050060020400600200C0700209404002016
:102FF40084040020740400200C4B93F8FE301BB9A9
:103004000B4B93F8FE3043B10A4B4FF496621A808F
:10301400094B4FF650321A807047064B4FF47A72C0
:103024001A80054B4FF618421A807047740000202E
:103034004005002068040020660400200268D3686C
:1030440023F48073D3600268536923F0010353614E
:103054007047000010B5084B00221A70082405E0E0
:10306400064B1C706420FEF7F9FA013C002CF7DAD9
:10307400024B00221A7010BD780700207A07002046
:10308400034B1870034B1970034B1A70704700BF41
:10309400780700207A0700207907002038B500253A
:1030A400044B1D70044C20704FF4FA70FEF7D6FAEE
:1030B400257038BD780700207A07002038B5002530
:1030C400044B1D70044C20706420FEF7C7FA257071
:1030D40038BD00BF780700207A07002038B50446C1
:1030E400002915DB4400E4B205E0E01CC0B2FFF7A0
:1030F400E5FF023CE4B2012CF7D838BDE81CC0B2AD
:10310400FFF7DCFF0235EDB2B5EB440FF6DDF4E773
:103114000225F9E7094BB3F90830094AB2F9082046
:103124009B1A03EBD37343F34F03064A1380002B1C
:10313400B8BF5B42044A1380704700BF7404002088
:10314400400600206E0400206C040020224B1B78F3
:10315400032B00D07047214BB3F90030002B1ADD4C
:10316400524202FB00F040F3CF3009B1404200B2BA
:103174001B4B1B78C3EBC3011A4A02EB4102B2F9A1
:1031840002108AB2952A0BD8C3EBC303154A02EB8B
:1031940043035880704702FB00F040F3CF30E4E76C
:1031A400963292B2952A06D8C3EBC3030D4A02EBBA
:1031B400430358807047952906DDC3EBC303094ACE
:1031C40002EB430358807047C3EBC303054A02EB89
:1031D40043035880BEE700BF5E0000206E04002059
:1031E400710400204000002010B5154B83FB00C47F
:1031F4004FEAE07ECEEBA41E83FB02434FEAE27C5F
:10320400CCEBA3139E4512D00D4C84FB01C44FEAB2
:10321400E17CCCEBA41C63450BD090420BDC8A42CE
:103224000BDBE64501D0022002E0012000E0002093
:1032340010BD0020FCE70020FAE70020F8E700BFFB
:103244001F85EB5170B582B0FFF762FA2C4C402217
:103254002C492046FEF7B4FD2046FFF7EFFEFDF7AC
:103264004BF801F0EDFA0DF10601274B188801F037
:10327400C1FA00241CB1FDF753F802B070BD254615
:10328400C4EBC402214B03EB42035B79032B1DD037
:10329400C4EBC4011D4A02EB41021371C5EBC50224
:1032A4001B4B03EB42035B79032B1CD0C5EBC5011D
:1032B400174A02EB41021371C5EBC505154B03EB2D
:1032C400450301221A711444E4B2D3E70F4E06EB0E
:1032D4004206B6F90A20B6F90810B6F90600FFF757
:1032E40083FF3071DAE70A4E06EB4206B6F90A208C
:1032F400B6F90810B6F90600FFF776FF3071DBE780
:10330400E0020020240400200800002050000020D7
:1033140040000020300000200379012B04D0022B50
:1033240017D0002343807047B0F90030B0F906C0CD
:10333400A3EB0C0302FB03F3B0F90A10A1EB0C019D
:1033440093FBF1F39A4202DB23EAE3731AB242805D
:10335400704730B5B0F90030B0F908C0B0F90CE0EE
:10336400ACEB0E04A34206DD0CEB0E05AB4202DA15
:103374000023438012E0634511DDF444A3EB0C0306
:1033840002FB03F3B0F90A10A1EB0C0193FBF1F378
:103394009A4202DB23EAE3731AB2428030BD1B1B5C
:1033A40001FB03F3B0F90620121B93FBF2F3002B8D
:1033B40002DD00214180F1E79942B8BF194609B204
:1033C400F8E7000008B5184B1B7823BB174AB2F97D
:1033D40002C0C3EBC3004100154820F801C0B2F994
:1033E40004C0144820F801C0B2F90600124B585228
:1033F400124B1978B2F9083099420CD0104A12785D
:103404004AB9104A127832B90F4A12781AB95A1EB8
:1034140092B2022A00D908BD084A1370012108207B
:10342400FFF75CFEF7E700BF7104002014040020DE
:103434005000002040000020300000205E000020EA
:103444006B0400206A0400200004002008B51D4A13
:103454001388591C1180B3F5FA7F06D31A4B012245
:103464001A70184B4FF4FA721A80174B1B78174ACC
:103474001370174A12781AB913B9164B1B786BB12B
:103484000022154B1A70154B1B78C3EBC30148007F
:10349400134901444A80134B03445A800F4B1B7851
:1034A40013B1114A127822B113B90F4B1B7823B907
:1034B40008BD0820FFF702FEFAE71220FFF7FEFD21
:1034C400F6E700BF04000020200400206A04002066
:1034D4006B040020000400205E0000207104002022
:1034E40050000020400000207004002070B5FFF759
:1034F40069FF144E3378144D144CC3EBC3035800C6
:10350400B5F90020B4F90010114B1844FFF704FF7B
:103514003378C3EBC30358004FF47A7200210D4B88
:103524001844FFF7F9FE3378C3EBC3035800B5F929
:103534000020B4F90010084B1844FFF7EDFEFFF724
:1035440085FF70BD7104002068040020660400201B
:1035540050000020300000204000002003884AF67C
:10356400CD3C634500D070471BB2B0F902C083EA7A
:103574000C03B0F904C083EA0C03B0F906C083EA73
:103584000C03B0F908C083EA0C039BB2B0F80AC07C
:103594009C45E8D100B5D0F800E0D0F804C08368B9
:1035A400C1F800E0C1F804C08B60022A01D05DF8C4
:1035B40004FB0023034A1370034A1380034A136075
:1035C400F5E700BF20040020040000202C070020A1
:1035D40070B51E4B5B6B1B685C68C4F140041C4BEC
:1035E4001B68A34208D002D2E21A0C2A09D0C3F104
:1035F40040052A190C2A12D0154B1C60402C22D0ED
:1036040070BD14495A18144E3546C858516892680A
:1036140007C5022211493046FFF7A0FFECE72A460E
:103624000C4919440C4802F00BFF2CB902220B4937
:103634000948FFF793FFDFE7224606490648284476
:1036440002F0FEFEF2E700221A60D9E7E002002051
:103654000404002024040020080400201404002092
:103664002DE9F843374B1B7813B9374B1B78C3B19B
:10367400FCF742FE354C41F26901208801F06AFAF8
:10368400334DB5F9CE1089B2608801F063FAB5F90B
:10369400DA1089B2A08801F05DFA00251DB1FCF7AB
:1036A4003FFEBDE8F883EC00E01C621B5300294F89
:1036B4001F44264E397936F8100001F04BFA231DC9
:1036C400B7F9061089B236F8130001F043FA631D06
:1036D400B7F9081089B236F8130001F03BFAA31DBC
:1036E400B7F90A1089B236F8130001F033FAE21D73
:1036F400DFF86480631B5F004744397936F81200B1
:1037040001F028FA05F101094FEAC903B7F90610D7
:1037140089B236F8130001F01DFA04F10903B7F970
:10372400081089B236F8130001F014FA04F10A0201
:10373400B7F90A1089B236F8120001F00BFA5FFAF1
:1037440089F5ABE76404002065040020080000202C
:1037540074000020500000204000002010B5002418
:103764000B4B1C700B4B1C700B4B1C7005E00B4B74
:103774001C706420FDF772FF0134072CF7DDFFF79E
:103784006FFF002220210648FDF799FEFEE700BFE7
:103794007107002078070020790700207A070020AD
:1037A4000008014010B414682313C3EB00134FEA5C
:1037B400E37CA1FB033001FB0C011B0943EA017309
:1037C4000911B3F1004F71F1000008DA1846B3F1A2
:1037D400004F71F1FF3104DA4FF0004001E06FF067
:1037E40000400444146010BC704700002DE9F04F01
:1037F40083B0FFF78FFC544BB3F90030052B02DD87
:1038040003B0BDE8F08FFFF7DDFD504B1B78C3EB31
:10381400C3014F4A32F91120120401924D4A32F980
:1038240011301B0400934FF000094B4DCA4647F674
:10383400FF762F46CB46B0462FE0FFF7C3FDDFF8F7
:103844000C9199F80030C3EBC30301AA41F6991116
:103854003F4830F91300FFF7A5FF99F80030C3EB98
:10386400C3036A4641F699113A4830F91300FFF749
:1038740099FFBDF906B0BDF902A0D845A8BFD84646
:103884005F45B8BF5F465645A8BF56465545B8BFC5
:1038940055460520FDF7E2FEA14602212F48FDF71B
:1038A40007FE28B909F10104A4B2B9F57A6FC4D3AB
:1038B4003A4659464046FFF797FC244B1C78C0B261
:1038C400C4EBC402224B03EB420318715B799842A8
:1038D40009D0032B07D0C4EBC4021D4B03EB4203F6
:1038E40000221A7109E0C4EBC402194B03EB420332
:1038F400A3F80680A3F808B05F812A4651463046F3
:10390400FFF772FCC0B2C4EBC402124B03EB4203D8
:1039140018715B79984209D0032B07D0C4EBC40417
:103924000C4B03EB440300221A7108E0094BC4EB6F
:10393400C40203EB4202D680A2F808A05581084BCA
:1039440001221A705CE700BF6C040020710400209F
:1039540050000020400000200080FFFF00080140CC
:103964006404002030B583B0FFF7D4FB514BB3F9A6
:103974000030052B00F396804F4B1B78C3EBC3013B
:103984004E4A32F91120120401924D4A32F9113093
:103994001B04009300244B4B1C701CE0FFF712FD2A
:1039A400454C2378C3EBC30301AA41F6991143485C
:1039B40030F91300FFF7F6FE2378C3EBC3036A461E
:1039C40041F699113E4830F91300FFF7EBFE05204C
:1039D400FDF744FE2C4602213B48FDF769FD20B962
:1039E400631C9DB2B4F5FA6FD8D3334B1B78C3EB89
:1039F400C302324901EB4201B1F90600019AA2EB7C
:103A04000042B1F90A10091A92FBF1F2B2F5803FB3
:103A14004ADA41F699118A42B8BF0A4690B2C3EB1A
:103A2400C302274901EB4201B1F90640009AA2EB17
:103A34000442B1F90A10091B92FBF1F2B2F5803F7E
:103A440035DA40F6CC418A42B8BF0A4691B2C3EB9C
:103A5400C3041A4A02EB440212796AB140F2B63244
:103A640000FB02F212131948A0F8CE201848A0F85F
:103A7400CE20144A01201070C3EBC303104A02EB9A
:103A840043031B7973B14FF4966303FB01F21313E1
:103A94000E4AA2F8DA300E4AA2F8DA30094A13784C
:103AA4000233137003B030BD4FF6FF70B7E74FF623
:103AB400FF71CCE76C04002071040020500000204A
:103AC400400000206504002000080140400500205B
:103AD4007400002038B502212248FDF7E9FCD0B17A
:103AE4000025214B1D7000E0254602211D48FDF7ED
:103AF400DFFC58B10A20FDF7B1FD6C1CA4B2B5F58A
:103B0400FA7FF1D10520FFF7D9FAEDE7B5F5FA7F91
:103B140002D2082D24D838BD4FF47A70FDF79EFDEB
:103B240002211048FDF7C4FC58B91020FFF7B6FA7B
:103B3400FFF75CFE0520FFF7C1FAECE70A20FDF76A
:103B44008DFD02210748FDF7B3FC0028F6D10820BB
:103B5400FFF7A4FAFFF706FF0520FFF7AFFADAE74D
:103B6400FFF7FCFD000801407107002003019BB230
:103B740010881B1A1BB28B4204DC494209B28B42E7
:103B840000DB1946084410807047000010B54FEA66
:103B9400610EA0EB6101B1F5004F26DA174CA1428A
:103BA400B8BF214609111180154CB4F900C0614514
:103BB4001EDC144CB4F90040A142B8BF2146118068
:103BC4007044B0F5004F15DA0C4A9042B8BF104665
:103BD40002111A80944505DB0A49B1F900C09445E5
:103BE400B8BF9446A3F800C010BD47F6FF71D9E7EB
:103BF4006146E4E747F6FF70EAE700BF0080FFFF95
:103C0400680400206604002030B597B002250C95A6
:103C140001231093102311931395002414944FF44B
:103C2400601315930CA8FCF71FFC0F23079308954A
:103C340009944FF480630A930B94294607A8FCF770
:103C44003BFE01954FF48043039301A8FDF742FC2A
:103C5400FCF7F0FE084BA3FB00308009FDF76EFA79
:103C64000420FDF77FFA224621464FF0FF30FDF78E
:103C740049FA17B030BD00BFD34D6210F0B583B020
:103C8400FDF7CCFC364CA36943F00103A361A3699F
:103C940003F001030093009B0320FDF721FA0022A7
:103CA40011466FF00B00FDF72DFA002211466FF05C
:103CB4000A00FDF727FA002211466FF00900FDF70C
:103CC40021FA002211466FF00400FDF71BFA0022CE
:103CD40011466FF00300FDF715FA002211466FF04C
:103CE4000100FDF70FFA002211464FF0FF30FDF7F7
:103CF40009FAFFF789FF636923F001036361FEF7A3
:103D040019FEFEF72DFFFFF72FF8FFF7C5F8FFF7B1
:103D14001BF9012220211348FDF7D1FBFFF76CF9B1
:103D2400FFF790FA1048FDF78DFD1048FDF78AFD66
:103D3400FFF790F9012204210D48FDF7C0FB0D4A5D
:103D4400138A1B040193138A02E00A20FDF786FC00
:103D540002210448FDF7ACFB0028F6D12CE100BF9A
:103D640000100240000801405003002020030020FE
:103D7400000C0140BC010020B34BB3F900303C2BD4
:103D840000F35E810A2BB8BF0A230A3BDB03AF4A68
:103D940082FB0312D817C0EB221080B2AC4B1B7805
:103DA400C3EBC303AB4A02EB4303B3F90220002A7B
:103DB40000F39481A84CA64D2B78C3EBC303A74A08
:103DC40002EB430322464FF4F071B3F90200FFF70C
:103DD400CDFEA34E2B78C3EBC303A24A02EB4303ED
:103DE40032464FF4F071B3F90200FFF7BFFE9E4D67
:103DF400B4F900002A4641F699110011FFF7D2FCEC
:103E04009A4CB6F90000224641F699110011FFF7C9
:103E1400C9FCB5F90210964B1980B4F90200954B10
:103E2400188000010901944C944D23462A4609B296
:103E340000B2FFF7ABFEB5F90020914B1A60B4F95C
:103E440000305B428F4A13608F4B188A01AA40F2FC
:103E54008F2180B2FFF7A6FCBDF90630A3F2776389
:103E640003EB831203EB4203884A82FB0312DB1742
:103E7400A3EB620303F5B3731BB2854A1380854A2F
:103E8400B2F9002040F6827101FB02F201F1AF4168
:103E940001F5B30101F24F1181FB0201D217C2EB0C
:103EA400612212B27C490A807C498989C1EBC13103
:103EB400490088B27A4C21807A498989C1EBC131A1
:103EC40049008CB2784D2980204400B2774908809B
:103ED4007749096811F0010F26D176494AF6CD34A5
:103EE4000C805B4C2478C4EBC4065C4D05EB4605A2
:103EF400B5F902C0A1F802C05A4D05EB4604B4F965
:103F040002608E806C4CB4F90850CD806B4CB4F9CF
:103F140008400C814A818881CB816949096B096811
:103F24004968002900F0DF80FFF7D4FD594BB3F94D
:103F3400003040F2EE52934205DC434AB2F90020CD
:103F4400132A40F3E2805D4A927922B95A4A92795F
:103F5400002A00F0DD805B4B00221A700122182138
:103F64001046FFF78DF8444BB3F90030002BB8BF6F
:103F74005B429BB2322B09D8404BB3F90030002B83
:103F8400B8BF5B429BB2322B40F204814E4B0022FD
:103F94001A604D4B1A684D4B9A4201D9FFF7DEFB6C
:103FA4002B4B1A784A4B1A704A4B1A684A4B1A60C0
:103FB4003F4A136801331360464B1B68464A126834
:103FC4009B1A502BF8D9FFF791FAFFF7A3F83D4B52
:103FD4001B78002B7FF4D0AE384B9B79002B7FF4F9
:103FE400CBAE354B9B79002B7FF4C6AE184B1A78B9
:103FF400C2EBC201194B03EB4103B3F90230313375
:104004009BB2622B3FF6B8AE164B03EB4103B3F9F8
:10401400023031339BB2622B3FF6AEAE0620FFF77F
:104024004DF80420FFF74AF86420FDF717FB00233E
:104034000E4A13600C4A1360224B01221A709BE64D
:104044004FF40040AAE600BF6C0400201F85EB512A
:1040540071040020300000203E07002050000020A2
:104064003C070020400000203807002034070020CF
:1040740040070020420700205A070020580700206C
:104084007C07002080070020BC0100206B4CA407A3
:10409400620700206400002064070020500600200E
:1040A40060070020840400205E0700205C070020D5
:1040B4006807002044070020740400204006002004
:1040C400E0020020710700202C0700208038010046
:1040D40070040020740700203007002092B20021F1
:1040E400FFF734F866E62E4900270F822D4F8CEA3D
:1040F40007077E4075406C406240504043404B820D
:1041040014222948FDF716FE0EE7FFF727FB2AE7DE
:10411400264A1278EAB9264A127802BB254A12784E
:104124001ABB40F22962934225DD234BB3F90030D8
:1041340013F1320F04DA214BB3F90030002B20DBEA
:10414400002211461046FEF79BFF1D4B00221A70F9
:1041540009E7012218210220FEF792FF03E701225A
:1041640018210320FEF78CFFFDE60122182104200C
:10417400FEF786FFF7E606220A210020FEF780FFFD
:10418400F1E6012205210020FEF77AFF0C4B012203
:104194001A70E8E60B4A136801331360F9E600BFAE
:1041A40044070020CDABFFFFE00200206B04002099
:1041B4006A04002000040020420700206E0400204E
:1041C4006C0700202C070020994B02225A60994B5F
:1041D4001B88B3F5FA6FC0F0A08010B5964B1A682F
:1041E400964BA3FB02139B094FF47A7101FB132333
:1041F400002B00F0D380924B998889B2914A12889F
:10420400521A91490A80D98889B2904A1288521A5E
:104214008F490A80598889B28E4A1288521A12B27A
:104224008D490A80188980B28C490988091A8C48FA
:104234000180588980B28B490988091A8A4801800B
:10424400198889B2894B1B885B1A1BB288490B8079
:10425400002AB8BF524292B240F21A418A4204D8AC
:10426400844A1278002A40F0A78083494A6C22F4D9
:1042740000424A64002BB8BF5B429BB240F21A4230
:10428400934204D87B4B1B78002B40F09B807B4AE5
:10429400536C23F400435364674A13680133136077
:1042A400774B1A78002A00F09380634B1B6875499A
:1042B400A1FB03131B0B744909780131B3FBF1F023
:1042C40001FB1033002B40F08380704B1B787BB9CB
:1042D4006E4B012119706E490B780133DBB20B7000
:1042E4006C49097802318B4202DD694B0121197056
:1042F400514B1B68B3FBF2F102FB1133002B6AD163
:10430400634B1A78634B1B789A4201D9002B62D114
:1043140010216148FDF7D9F85DE00133454A138067
:10432400474A918889B24748B0F900300B4403EBFF
:10433400D3735B100380D18889B24448B0F900304C
:104344000B4403EBD3735B100380118989B2434898
:10435400B0F900300B4403EBD3735B100380518935
:1043640089B24048B0F900300B4403EBD3735B10BF
:104374000380518889B23748B0F900300B4403EB0D
:10438400D3735B100380128892B23849B1F90030BC
:10439400134403EBD3735B100B807047284B98894D
:1043A4003E4C224640F28F2180B2FFF7FBF9B4F96C
:1043B40002203B4B1A801EE72F494A6C42F400420C
:1043C4004A6457E72D4A536C43F40043536463E74C
:1043D4002E4B1B78FBB9334B93F8F930022B23D0C7
:1043E400314B00221A80314B1B78002B40F00D8199
:1043F4002E4B01221A701F4B1B78002B5CD02C4BC8
:104404009B79002B40F002812A4B9B79002B00F012
:10441400FF80002251E0002210211F48FDF74FF8D1
:104424001A4B00221A70D6E71F4B6E221A80DAE765
:10443400000002406E07002074070020D34D621074
:10444400BC010020700000208E0700206E000020B8
:104454008C070020680000208A0700206C000020E0
:10446400880700206A0000208607002066000020DC
:10447400840700207107002000340140002C014013
:104484007A0700205917B7D1790700207307002055
:104494007207002078070020000801406000002017
:1044A4006400002074000020900700206D070020A5
:1044B40040060020740400200022D2B26D4B1A7012
:1044C4006D4B996811F0200F0CBF012400249968EA
:1044D40011F0400F0CBF012000209B6813F0800FE7
:1044E4000CBF01210021654B1A70654A12785A707D
:1044F400644A12685A801C7158719971624A128810
:104504001A81624A12885A81614A12889A81614BDF
:10451400186800F00FFE604BB3F90010B3F90220E5
:10452400B3F904C001F2E7345C4BB3F90030C3F5CE
:10453400FA6084426EDB81B2594C616302F2E73166
:1045440088426FDCC3F5FA6292B255498A630CF271
:10455400E73290426EDCC3F5FA639BB2504AD363F0
:10456400504B9A6812F4806F0CBF012000209A68A7
:1045740012F4006F0CBF012100219B6813F4805FCB
:104584000CBF01220022484B3A4C24781C703C4C4E
:1045940024785C70454C24685C80187159719A7158
:1045A400434A12881A81434A12885A81424A12881D
:1045B4009A81424B186800F0BDFD414BB3F90010DD
:1045C400B3F90220B3F904C001F2E734334BB3F971
:1045D4000030C3F5FA60844234DB81B2394C616344
:1045E40002F2E731884235DCC3F5FA6292B235490A
:1045F4008A630CF2E732904234DCC3F5FA639BB26F
:10460400304AD363304B00221A7010BD002254E7A5
:10461400012252E701F57A74A34201DCA1B28BE7CF
:1046240099B289E702F57A718B4201DC8AB28CE790
:104634009AB28AE70CF57A72934201DC93B28DE761
:104644009BB28BE701F57A74A34201DCA1B2C5E702
:1046540099B2C3E702F57A718B4201DC8AB2C6E7EC
:104664009AB2C4E70CF57A72934201DC93B2C7E7BD
:104674009BB2C5E770070020000C014050060020E3
:104684005E000020800700208E0700208C07002099
:104694008A070020A8640008400600209007002034
:1046A4000034014000100140840400207C070020F5
:1046B400880700208607002084070020A4640008DF
:1046C40074040020002C01406D07002000E0043039
:1046D400064B984207D203889BB24FF6FF7293426F
:1046E400F5D0002070470120704700BF0008010882
:1046F400114B1B889BB2114A128892B288B10128CF
:1047040013D13AB94EF6EE618B4201D040230DE04D
:1047140013460BE063B94EF6EE618A4206D140239C
:1047240004E01BB132B9402300E00023184670476F
:10473400AB23FBE7AB23F9E7000001080000020804
:1047440070B506460D460120FFF7D2FFAB281ED0F8
:1047540000F580342034E40201300D4B03EBC02C0F
:10476400644513D22368B3F1FF3F01D00434F7E763
:104774002A46002321460120FBF710FE38B93246B1
:104784000023A11C0120FBF709FE00E0802070BD7E
:10479400FFFF000810B586B000230593019312486B
:1047A400039001230493FFF791FF28B905A901A8F9
:1047B400FCF712FD044638B9002200230A490120FF
:1047C400FBF7ECFD044610B1204606B010BD074BC4
:1047D40003930748FFF77AFF0028F5D105A901A83C
:1047E400FCF7FAFC0446EFE700000108008001082A
:1047F4000000020838B504460D460020FFF778FF94
:10480400AB2819D000F5803C0CF1200C4FEACC2CDD
:1048140001300A4B03EBC0230CF102029A420AD284
:104824001A8892B2A24201D0043BF5E733F8023C65
:104834002B80002000E0012038BD00BFFEFF0008EF
:10484400F0B587B0002205928C4B1E88B6B28C4915
:104854000D88ADB201920393012304934EF6EE63E7
:104864009E423FD04FF6FF739E420AD0002E00F0C6
:10487400A380FFF78FFF054600B90025284607B03F
:10488400F0BD55B14EF6EE639D4215D0FFF782FFA1
:1048940005460028F2D10025F0E77848FFF716FF17
:1048A40004460028EAD105A901A8FCF795FC0546B1
:1048B4000028E3D12546E1E77048FFF707FF30B948
:1048C40005A901A8FCF788FC05460028D6D10022DA
:1048D40000236B490120FBF761FD05460028CDD17B
:1048E4000025CBE75DB34FF6FF739D424AD0FFF737
:1048F40051FF05460028C1D10025BFE727B20CE0CF
:104904000134A4B2122C1ED85C4BDB889BB2264621
:104914005C4A32F814008342F0D0BE42F0D05A49C7
:10492400FFF768FF0128EBD0574B1988554B33F834
:104934001600FFF705FF0028E2D005469EE72C4647
:104944004FF0FF37DEE7002200234C490120FBF73C
:1049540025FD08B1054691E7002301934B4B0393D2
:10496400012304934648FFF7B1FE0446002885D18D
:1049740005A901A8FCF730FC054600287FF47EAFAA
:1049840025467BE7414B03933D48FFF79FFE38B92B
:1049940005A901A8FCF720FC054600287FF46EAFAA
:1049A4000022002335490120FBF7F8FC05460028C6
:1049B4007FF464AF002561E73DB14FF6FF739D427C
:1049C4000AD034464FF0FF371CE0FFF7E3FE00281F
:1049D4003FF454AF054651E72C4B03932848FFF7A7
:1049E40075FE054608B1354648E705A901A8FCF758
:1049F400F3FB00283FF442AF05463FE727B20CE043
:104A04000134A4B2122C1AD81D4BDB889BB2254664
:104A14001C4A32F814008342F0D0BD42F0D01A4947
:104A2400FFF7E8FE0128EBD0174B1988154B33F834
:104A34001500FFF785FE05460028E1D01EE7002299
:104A440000230F490120FBF7A9FC054600287FF449
:104A540015AF002301930948039001230493FFF742
:104A640035FE054608B1354608E705A901A8FCF757
:104A7400B3FB00283FF402AF0546FFE6000001083F
:104A840000000208080000209207002000800108AE
:104A94002DE9F04186B005460E4600200590FFF74B
:104AA40027FE402811D0002848D1DFF89480254FF4
:104AB4004EF6EE62002339460120FBF76FFC0446F4
:104AC40038B1204606B0BDE8F081DFF87C801C4F89
:104AD400EEE731462846FFF733FE044610B1F0E70F
:104AE4000134A4B2122C14D8184B33F81400A84281
:104AF400F6D01749FFF77EFE0128F1D0144B198830
:104B0400124B33F81400FFF71BFE0028E8D00446CC
:104B1400D7E700230193CDF80C800123049305A962
:104B240001A8FCF759FB04460028CAD1002200233F
:104B340039460120FBF732FC0446C2E7AB24C0E748
:104B4400000001080000020800800108080000209D
:104B54009207002038B504460D46FFF7F1FD802882
:104B640000D038BD29462046FFF792FFF9E7704789
:104B7400FEE7FEE7FEE7FEE770477047704708B5BB
:104B8400FCF75EFDFCF7FFFA08BD000008B502481B
:104B9400FDF722FC08BD00BF9C02002008B50248B6
:104BA400FDF71AFC08BD00BF5802002010B582B002
:104BB4000A4C2046FDF726FA2368DA6812F0100F33
:104BC40001D102B010BD002201921A6801925B6803
:104BD4000193019BFEF7FCFCF3E700BFE002002019
:104BE400884209DD401A80B2B0FBF2F29A4201D247
:104BF400D0B27047D8B2704700207047884209D9B4
:104C0400401A80B2B0FBF2F29A4201D2D0B270479D
:104C1400D8B270470020704790EA010F04D40023F3
:104C240090FBF1F01844704790FBF1F301FB130380
:104C3400002BF5D04FF0FF33F2E7018070473AB90B
:104C4400B3F90020104400B2884203DA1880704798
:104C54000022F7E719807047002303604360704720
:104C640030B4B0F900401D68A4EB2544B4F5004FFE
:104C740004DA14F5004F03DA0F4C01E047F6FF7431
:104C840004FB0154251415801C60B0F902005C6813
:104C9400A0EB2440B0F5004F04DA10F5004F03DA1E
:104CA400054801E047F6FF7000FB014108145080FD
:104CB400596030BC704700BF0080FFFF018070471F
:104CC40010B4019C42B92288104480B218808842F2
:104CD40004D2208010BC70470022F5E72180F9E758
:104CE40013781B1A18BF01230B701070704710B58E
:104CF400044600210430FFF7E1FF0021A01CFFF768
:104D0400DDFF10BD2DE9F04184B006468846174604
:104D14001D460A9C22460DF10D01FFF7E1FFFEB18D
:104D2400A37933B1A3792B702B78A37104B0BDE8B8
:104D3400F081231D00930DF10E039DF80D204146D3
:104D44000120FFF7BDFFBDF80E30434503D8A3791A
:104D540023B1012300E001232B70E5E70023FBE7E7
:104D6400A379002BDED0A31C00930DF10E039DF854
:104D74000D2039460120FFF7A3FFBDF80E30BB42DA
:104D840003D8A37913B1012300E000232B70CBE7F0
:104D940041607047002303604160704730B5BDF93E
:104DA4000CE0049D059C01FB00F000110BD40028CD
:104DB4000FDD6FF00041091AD4F800C08C4508DDFE
:104DC4006FF0004007E0C0F10041D4F800C08C450A
:104DD40013DB21680844616801444FEA213C41F334
:104DE4000F3098420CDD2B802B88A3EB0C031BB2F5
:104DF40003FB02F22260616030BD4FF00040EAE73D
:104E0400704502DAA5F800E0EEE72880ECE701231C
:104E1400037170470023437101230371704700003D
:104E240070B5BDF910E0BDF91460069D089C00FB47
:104E340002F2002A0ADB002A0CDD6FF0004CACEB16
:104E4400020CAC4506DA6FF0004C05E0C2F1004CF0
:104E5400AC4514DC02EB050C227902B123606379C2
:104E640083B1002325681D4400FB01F1CB12B1F18D
:104E7400806F09DA13F5004F08DA254B06E04FF08E
:104E8400004CE9E76346EDE747F6FF732A1403EBAA
:104E940042025310B2F5803F04DA13F5004F03DAEF
:104EA4001B4B01E047F6FF731BB2734518DD079AED
:104EB400A2F800E0BCF1000F1ADBBCF1000FD4BF74
:104EC40000220122002B16DB002BD4BF002101217C
:104ED400914213D00023637100232371256070BDB8
:104EE400B34202DA079A1680E4E7079A1380E1E7EF
:104EF4004FF0FF32E6E74FF0FF31E9E7734503DC9B
:104F0400B34203DB0023E6E70123E4E70123E2E7FE
:104F14000080FFFF012303717047002343710123C5
:104F24000371704770B5BDF910E0BDF91460069DBA
:104F3400089C00FB02F2002A0ADB002A0CDD6FF059
:104F4400004CACEB020CAC4506DA6FF0004C05E00B
:104F5400C2F1004CAC4515DC02EB050C22790AB118
:104F64001B042360637983B1002325681D4400FB7F
:104F740001F1CB12B1F1806F09DA13F5004F08DAB1
:104F8400254B06E04FF0004CE8E76346EDE747F6B3
:104F9400FF732A1403EB42025310B2F5803F04DA84
:104FA40013F5004F03DA1C4B01E047F6FF731BB205
:104FB400734518DD079AA2F800E0BCF1000F1ADB74
:104FC400BCF1000FD4BF00220122002B16DB002B02
:104FD400D4BF00210121914213D000236371002327
:104FE4002371256070BDB34202DA079A1680E4E7A4
:104FF400079A1380E1E74FF0FF32E6E74FF0FF3105
:10500400E9E7734503DCB34203DB0023E6E701234E
:10501400E4E70123E2E700BF0080FFFF0123837080
:1050240070470023C37001238370704770B5BDF9C6
:1050340010E0BDF91450069E089C00FB02F2002A01
:105044000ADB002A0CDD6FF0004CACEB020CB4451B
:1050540006DA6FF0004C05E0C2F1004CB4450DDCFB
:1050640002EB060CA27802B12380E37863B9BCF1A9
:10507400000F06DB002363441B1406E04FF0004CD2
:10508400F0E74FF6FF73F6E7002322881A4412B2C2
:1050940000FB01F1CB12B1F1806F04DA13F5004F7C
:1050A40003DA234B01E047F6FF7303EB42014B1095
:1050B400B1F5803F04DA13F5004F03DA1C4B01E02D
:1050C40047F6FF731BB273451ADD0799A1F800E098
:1050D400BCF1000F1CDBBCF1000FD4BF4FF0000C7F
:1050E4004FF0010C002B16DB002BD4BF0021012153
:1050F400614513D00023E3700023A370228070BDA8
:10510400AB4202DA07990D80E2E707990B80DFE7EB
:105114004FF0FF3CE6E74FF0FF31E9E7734503DC6E
:10512400AB4203DB0023E6E70123E4E70123E2E7E4
:105134000080FFFF2DE9F04F95B00568C46846680C
:10514400876831798A00D2B273795800C0B20244B8
:10515400D2B2B07902445FFA82FB003B18BF01234C
:1051640094F89AC094F89B20002918BF83F0010397
:10517400002818BF83F00103BCF1000F18BF83F0AF
:105184000103002A18BF83F0010394F89C1000392E
:1051940018BF012181EA0302994256D094F98E0086
:1051A400B64B5B4493F98817CBB294F88FC0A3EB4A
:1051B4000C035BB2012B06D013F1050F03D0FF23C0
:1051C40084F88E3002E0012384F88E3084F88F1046
:1051D400B4F98010A4F856101FFA81FEB4F882C006
:1051E400AEEB0C031BB2002B43DBB5F904C09C45AA
:1051F40044DC012384F8A93094F8A98084F8A280BF
:1052040094F98E30834214BF4FF0010C4FF0000C20
:1052140004D094F8A790B9F1000F57D1834235D048
:10522400B4F98A009BB200FB03F3A4F87A30A4F823
:105234008210B4F98630A4F88430B4F98830A4F824
:105244008630A4F8881084F8A7C004F14003B5F9A7
:105254000A100120FFF7F3FC0C90B5F90A308342E1
:105264003ADBB4F97A300B93002B31DB0B9B0793B9
:1052740035E0ACEB0E0C0FFA8CF3B6E7B5F906C0CB
:105284009C45B9DB002384F8A930B5E7B8F1000FD9
:1052940005D0A889000190FBF1F000B2C2E7A8890B
:1052A400800080B20001B4F88480B4F88690C844C9
:1052B4001FFA88F8B4F88890C8441FFA88F8C644DE
:1052C4000FFA8EFE90FBFEF000B2ABE70020A9E7D8
:1052D4005B421BB2079302E000230B930793B5F9DB
:1052E400D430079A93420DDC012384F8A83095F852
:1052F400FB3083B994F8A8205AB394F8A22052B38F
:10530400002209E0B5F9D230079A9342EFDB00237B
:1053140084F8A830EBE70122D2B20A9294F8A320D1
:105324000D9294F8A4200E92B6F9022012010F9265
:1053340012B20892B6F908204FEA021A46F63F2143
:10534400B1EB021F09DB4E4A924517DB0FFA8AFACA
:1053540005E00022E0E70122DEE746F6402AB6F93E
:105364000A204FEA021846F63F21B1EB021F08DB80
:10537400434A90457ADB0FFA88F804E0DFF804A189
:10538400EDE746F64028002B40F094800A9B002B62
:105394007CD0B4F956000C9B984200DC034694F987
:1053A4008E10012965D0354A5A4492F88827013273
:1053B40052B29B0393FBF0F39BB289B201FB03F35C
:1053C4001BB203EB823343F38F03002B70DDC3EB7B
:1053D400031343F30F13099394F9903095F8F920CC
:1053E400022A00F087804FF0FF3984F890909945A5
:1053F40017D0B3B994F998302BB9A4F85230A4F863
:105404007830A4F85430FF2384F898300023A4F8AB
:105414007C30A4F87E30A4F85230A4F85430A4F8B8
:105424007830B9F1000F40F03D8195F8FA30002B47
:1054340040F0B08044F6E71303FB0AF203FB08F3E1
:10544400002A5ADB4FF0000890444FEAE838002B5A
:1054540056DB0022134443F38F334344B3F5004F28
:1054640051DA13F5004F50DA074B4EE0DFF81480A1
:1054740089E7024A5A4492F988279AE7AC640008FB
:10548400C195FFFFC095FFFF0080FFFF94F98E30A8
:10549400012B08D0BD4B5B4493F8883701335BB2D2
:1054A4001B031BB291E7B94B5B4493F98837F7E7C9
:1054B40000238CE7B6F90E9095F8F83003FB09F950
:1054C400A9F5F0794FF4B4514846FFF7A5FB80B233
:1054D40000EB4000C0EB0013DB009BB21B019BB24E
:1054E400A9EB03090FFA89F94FEA89090FFA89F33D
:1054F400099371E74FF0000977E747F6FF78A3E7D0
:1055040043F6FF72A6E747F6FF730FFA83F8B42356
:10551400802200210998FFF763FB9C4B33F910208C
:10552400A4F87C20B43003EB4003B3F90230A4F8B0
:105534007E3094F9983032780AB94FF0FF3984F804
:105544009890994507D033B90022A4F85220A4F8C2
:105554007820A4F85420B9F1000F40F0A380002B68
:1055640073D14246B4F97E3003FB08F848F38F3810
:105574005046B4F97C1001FB0AFA4AF38F3AA8EBBF
:105584000A08B8F5004F65DA18F5004F64DADFF859
:10559400008261E0012B1ED044F6E71303FB0AF2FC
:1055A40003FB08F3002A45DB4FF0000890444FEA60
:1055B400E838C8F10008002B3FDB0022134443F312
:1055C4008F33A8EB0303B3F5004F39DA13F5004F1B
:1055D40038DA6F4B36E053464146AAEB0808B8F573
:1055E400004F0EDA18F5004F1BDB44F6E71202FBFE
:1055F40008F2002A02DB4FF0000805E047F6FF78C6
:1056040002E0644A4FF00008904448F3CF385B420C
:105614005B1AB3F5004F08DA13F5004F07DA5C4B59
:1056240005E05D4A47F6FF78EEE747F6FF730FFAA9
:1056340083FA6CE747F6FF78B8E743F6FF72BDE7F5
:1056440047F6FF730FFA83F861E704F13800FFF7B8
:1056540003FB86E747F6FF78ADF8488000FB03F3C9
:1056640043F38F3301FB02F242F38F321344B3F559
:10567400004F04DA13F5004F03DA454B01E047F617
:10568400FF73ADF84A3004F1380304F15202B5F85F
:10569400EC1012A8FFF7E4FAB4F95230002B4CDBFB
:1056A400A4F8783094F8A330002B00F00D8295F81C
:1056B400FD30002B35D094F89D3013F0040F41D009
:1056C40001238DF84F30BBF1070F58D04FF000087D
:1056D400BBF1000F08BF08F101089DF84F309B0093
:1056E400DBB29844EA89298A18F0FF0804F12E03F2
:1056F400009304F1A10314BF01200020FFF702FB73
:1057040004F12C020DF14F0194F8A100FFF7E8FA1F
:105714009DF84F30002B35D087F80680BB7984F88C
:105724009D3094F8A130002B38D13378002B41D030
:105734007378002B40D1012331E09BB25B42A4F883
:105744007830AFE7B4F98C30002B0CDB327872B1CF
:10575400B5F9DC2007998A420DDDB5F9DE209A42BD
:105764000BDB002304E09BB25B421BB2EEE7002399
:105774008DF84F30A7E70023FAE70123F8E74FF04D
:105784000208A5E794F89D30BB71C7E7AC64000834
:105794000080FFFF1936F32400800CDB0123DBB209
:1057A4008DF84F307278022A08D095F8FC1041B376
:1057B400012104E00123F2E70023F0E70121C8B24C
:1057C400032A20D00022D1B294F89E2012BB0123D8
:1057D40084F89E30022384F89F30002384F89930A3
:1057E40095F8F930022B00F09B80089BB3F57A5FA3
:1057F40000F3118113F57A5F80F2C280AF4B0893F6
:10580400BEE00021DBE795F8FC200AB10022DAE7CC
:105814000122D8E794F89F20012A0FD0002284F8AF
:105824009920002BDCD17378012B5FD000285DD147
:105834000029D5D0012384F89F305BE043B10023D5
:1058440084F8A030022284F89F2084F89930C7E7B6
:1058540094F8A030012B0FD0022B24D0012384F81C
:105864009930B9B3002384F8A030022384F8A0301F
:10587400032384F89930B3E7022384F8993000288D
:10588400AED1002384F8A03031B1022384F8A030D3
:10589400032384F89930A3E7032384F8A030012379
:1058A40084F899309CE7032384F89930002997D130
:1058B400002384F8A03030B1012384F8A0300223FF
:1058C40084F899308CE7032384F8A030012384F80A
:1058D400993085E7002883D0002384F8A030012381
:1058E40084F8A030022384F8993079E7012384F8FE
:1058F4009F3031B1022384F8A030032384F8993017
:105904006EE730B1012384F8A030022384F8993083
:1059140066E7032384F8A030012384F899305FE715
:105924000023ADF84030B5F91230ADF84230B5F986
:10593400DA30ADF84430B5F9CE30ADF84630089BD6
:10594400B3F57A5F05DC13F57A5F05DA5B4B0893F0
:1059540002E04FF47A530893737814AA02EB4303DA
:1059640033F9103C5B01564A82FB0312DB17C3EB8D
:10597400E2039BB2089A02FB03F343F30F33089349
:1059840094F9971094F89930003B18BF01235AB248
:1059940084F89720002B42D0002B40F08580B4F986
:1059A4007430002BC0F28480A4F8763094F99120EE
:1059B40095F8F930022B00F04483B4F974804FF069
:1059C400FF3384F89130934206D02AB9A4F84C20CE
:1059D400A4F84E20A4F85020002B40F0CF83B4F953
:1059E4005A20B4F97E1001FB02F343F38F33B4F968
:1059F4005800B4F97CE00EFB00FC4CF38F3CA3EBA5
:105A04000C03B3F5004F80F2208313F5004F80F2AE
:105A14001E832C4B1BE34FF47A530893B0E7914257
:105A240004D0012384F8A6300023A364B4F98C3095
:105A34001903002B28DA41F0784194F8A6008DF878
:105A44004F00002384F8A63008BBA36C5A4212F01E
:105A5400006F1ED042F0784C2A68624508DB52423F
:105A640012F0006F18D042F07842944500DB624691
:105A7400134413F0006F12D043F0784390B1A16443
:105A84001B13A4F874308AE721F07841D5E70B465C
:105A9400DCE722F0784CDFE722F07842E5E723F0F8
:105AA4007843EBE7A364EBE7089BA4F8743076E74C
:105AB4009BB25B42A4F8763078E700BF80C1FFFF59
:105AC400D34D62100080FFFF94F8A430002B00F047
