:020000040800F2
:1000000000C00020A1640008454B0008494B0008CF
:100010004D4B0008514B0008554B000800000000F4
:10002000000000000000000000000000594B000824
:100030005D4B000800000000614B0008654B0008A4
:10004000E9640008E9640008E9640008E96400085C
:10005000E9640008E9640008E9640008E96400084C
:10006000E9640008E9640008E9640008A1410008A7
:10007000E9640008E9640008E9640008E96400082C
:10008000714B0008814B0008E9640008E96400082E
:10009000E9640008E9640008E9640008E96400080C
:1000A000E9640008E9640008E9640008E9640008FC
:1000B000E9640008E9640008E9640008E9640008EC
:1000C000E9640008E9640008E9640008E9640008DC
:1000D000E9640008E9640008914B0008E96400083D
:1000E000E9640008E9640008E9640008E9640008BC
:1000F000E9640008E9640008E9640008E9640008AC
:10010000E9640008E9640008E9640008E96400089B
:10011000E9640008E9640008E9640008E96400088B
:10012000E9640008E9640008E9640008E96400087B
:1001300000000000000000000000000000000000BF
:1001400000000000000000000000000000000000AF
:10015000000000000000000000000000000000009F
:10016000000000000000000000000000000000008F
:10017000000000000000000000000000000000007F
:10018000000000000000000000000000000000006F
:10019000000000000000000000000000000000005F
:1001A000000000000000000000000000000000004F
:1001B000000000000000000000000000000000003F
:1001C000000000000000000000000000000000002F
:1001D000000000000000000000000000000000001F
:0401E0005FF8E0F1F3
:1001E40010B5054C237833B9044B13B10448AFF36D
:1001F40000800123237010BD700100200000000066
:1002040050650008084B10B51BB108480849AFF306
:1002140000800848036803B910BD074B002BFBD0CE
:10022400BDE81040184700BF0000000050650008FA
:100234007401002070010020000000000022044B23
:10024400DA61044A136943F00103136101807047C2
:100254005002002000200240154BDB6813F0100F01
:1002640006D0144AD36943F00203D361102300E09B
:1002740000230F4AD26812F0040F06D00D49CA6950
:1002840042F00102CA6143F00403094AD26912F040
:10029400010F09D00749CA6942F00402CA6104493E
:1002A400CA6922F00102CA61014AD360704700BFE3
:1002B4000020024050020020074B1B6913F0800FFE
:1002C40007D0054B054A5A6002F188325A60002073
:1002D40070470120704700BF00200240230167459A
:1002E400034A136943F0800313610020704700BF81
:1002F4000020024038B5044601F082F9054608E0C2
:10030400B4F1FF3F05D024B301F07AF9401BA042B9
:1003140021D8134BDB6813F0010FF1D1104BDB68CC
:1003240013F0200F02D020220D4BDA600C4BDB6857
:1003340013F0100F09D10A4BDB6913F0010F04D13C
:10034400074BDB6813F0040F07D0FFF785FF01208C
:1003540038BD032038BD032038BD002038BD00BFA0
:10036400002002402DE9F843244C247E012C41D086
:100374001E4690460F4604460122204B1A764CF244
:100384005030FFF7B7FF034670BB012C04D0022C9A
:1003940005D14FF0020904E04FF0010901E04FF0EC
:1003A400040900241EE02101C1F12002A1F120036F
:1003B40028FA01F106FA02F2114326FA03F319436B
:1003C40007EB440089B2FFF739FF4CF25030FFF7D6
:1003D40091FF0B4B1D6925F001051D61034618B9FA
:1003E4000134E4B24C45DED30021044A11761846A8
:1003F400BDE8F8830220BDE8F88300BF5002002066
:100404000020024082B0084B1B68084AA2FB032369
:100414005B0A00FB03F0019000BF019B5A1E01928E
:10042400002BF9D102B0704700000020D34D6210B8
:1004340070B582B00446036813F0010F6BD0A84B6B
:100444005B6803F00C03042B0AD0A54B5B6803F034
:100454000C03082B0DD1A24B5B6813F4803F08D02A
:100464009F4B1B6813F4003F55D06368002B52D197
:10047400B8E16368B3F5803F05D1994A136843F442
:100484008033136026E063B903F1804303F504333A
:100494001A6822F480321A601A6822F480221A60E0
:1004A40018E0B3F5A02F0CD103F18043A3F53C333E
:1004B4001A6842F480221A601A6842F480321A6080
:1004C40008E0874B1A6822F480321A601A6822F412
:1004D40080221A6063687BB101F092F8054605E05A
:1004E40001F08EF8401B642800F27E817C4B1B686F
:1004F40013F4003FF4D00EE001F082F8054605E065
:1005040001F07EF8401B642800F27081744B1B6874
:1005140013F4003FF4D1236813F0020F50D0704B52
:100524005B6813F00C0F0AD06D4B5B6803F00C038F
:10053400082B16D16A4B5B6813F4803F11D1684BCA
:100544001B6813F0020F03D02369012B40F0508184
:10055400634A136823F0F803616943EAC103136033
:100564002EE02369D3B101225E4B1A6001F048F8F2
:10057400054605E001F044F8401B022800F23A81E8
:10058400574B1B6813F0020FF4D0554A136823F03D
:10059400F803616943EAC103136011E00022514B7F
:1005A4001A6001F02DF8054605E001F029F8401B1A
:1005B400022800F221814A4B1B6813F0020FF4D188
:1005C400236813F0080F29D0A369ABB10122464B6D
:1005D4001A6001F015F8054605E001F011F8401B1A
:1005E400022800F20B813E4B5B6A13F0020FF4D039
:1005F4000120FFF707FF11E000223B4B1A6000F0D7
:10060400FFFF054605E000F0FBFF401B022800F257
:10061400F780334B5B6A13F0020FF4D1236813F0B5
:10062400040F00F089802E4BDB6913F0805F0BD13F
:100634002B4BDA6942F08052DA61DB6903F08053B4
:100644000193019B012500E00025284B1B6813F44E
:10065400807F13D1254A136843F48073136000F03C
:10066400CFFF064605E000F0CBFF801B642800F2B4
:10067400C9801E4B1B6813F4807FF4D0E368012B00
:1006840005D1174A136A43F00103136222E063B9E8
:1006940003F1804303F504331A6A22F001021A625B
:1006A4001A6A22F004021A6214E0052B09D10C4BD9
:1006B4001A6A42F004021A621A6A42F001021A62C9
:1006C40008E0074B1A6A22F001021A621A6A22F041
:1006D40004021A62E368CBB100F092FF06460FE011
:1006E4000010024000004242800442420070004078
:1006F40000F086FF801B41F28833984200F2848028
:10070400494B1B6A13F0020FF2D00FE000F078FFA0
:10071400064606E000F074FF801B41F288339842DD
:1007240074D8414B1B6A13F0020FF3D125B13E4A32
:10073400D36923F08053D361E369002B68D03A4A2C
:10074400526802F00C02082A64D0022B37D100222E
:10075400364B1A6000F054FF054604E000F050FFE9
:10076400401B022858D8304B1B6813F0007FF5D18A
:10077400236AB3F5803F06D12B494B6823F400323A
:10078400A36813434B602848436823F47411236A15
:10079400626A13430B4343600122244B1A6000F046
:1007A4002FFF044604E000F02BFF001B022835D87D
:1007B4001D4B1B6813F0007FF5D0002031E00022B0
:1007C4001A4B1A6000F01CFF044604E000F018FF06
:1007D400001B022824D8144B1B6813F0007FF5D1AA
:1007E40000201EE001201CE003201AE0032018E092
:1007F400012016E0032014E0032012E0032010E09F
:1008040003200EE003200CE003200AE0032008E0AC
:10081400002006E0012004E0032002E0032000E0C1
:10082400032002B070BD00BF0010024060004242CD
:1008340030B486B0164D02AC28686968AA68EB68C3
:100844000FC42B8AADF80430124B5A6802F00C0323
:10085400082B19D1C2F3834306A90B4413F8103CA7
:1008640012F4803F0CD00B4A5268C2F340420A444F
:1008740012F8140C084AB2FBF0F003FB00F004E099
:10088400064800FB03F000E0034806B030BC7047A4
:10089400686500080010024000127A0000093D005B
:1008A40070B55C4B1B6803F007038B420BD2594AAB
:1008B400136823F007030B431360136803F0070363
:1008C4008B4240F09780036813F0020F06D0524C1D
:1008D400636823F0F0028368134363600D460446A3
:1008E400036813F0010F4DD04268012A05D14A4B29
:1008F4001B6813F4003F0DD17EE0022A05D1464B5C
:100904001B6813F0007F05D178E0434B1B6813F09C
:10091400020F75D040494B6823F0030313434B6027
:1009240000F06EFE06466368012B0ED106E000F06F
:1009340067FE801B41F28833984263D8364B5B686C
:1009440003F00C03042BF2D11CE0022B15D106E0BA
:1009540000F056FE801B41F28833984254D82E4B47
:100964005B6803F00C03082BF2D10BE000F048FEA7
:10097400801B41F28833984248D8274B5B6813F0B8
:100984000C0FF3D1234B1B6803F00703AB420AD9C6
:10099400204A136823F007032B431360136803F002
:1009A4000703AB4234D1236813F0040F06D01A496D
:1009B4004B6823F4E062E36813434B60236813F04D
:1009C400080F07D0144A536823F46053216943EA9B
:1009D400C1035360FFF72CFF0F4B5B68C3F3031392
:1009E4000E4AD35CD8400E4B1860002000F0D8FDAE
:1009F400002070BD012070BD012070BD012070BDBC
:100A0400012070BD032070BD032070BD032070BDA4
:100A1400012070BD00200240001002407C650008E7
:100A240000000020014B1868704700BF0000002040
:100A340008B5FFF7F7FF044B5B68C3F30223034ACF
:100A4400D35CD84008BD00BF001002408C6500088C
:100A540008B5FFF7E7FF044B5B68C3F3C223034AFF
:100A6400D35CD84008BD00BF001002408C6500086C
:100A740030B4036A23F001030362036A44688269A1
:100A840022F073020D682A4323F002038D682B437E
:100A9400104DA84203D005F50065A84205D123F006
:100AA4000803CD682B4323F004030A4DA84203D066
:100AB40005F50065A84205D124F440744D692C4322
:100AC4008D692C43446082614A684263036230BC8E
:100AD400704700BF002C014030B4036A23F48073D4
:100AE4000362036A4468C26922F073020D682A43F0
:100AF40023F400738D6843EA0523124DA84203D002
:100B040005F50065A84206D123F40063CD6843EAE5
:100B1400052323F480630B4DA84203D005F500653B
:100B2400A84207D124F440544D6944EA05148D6960
:100B340044EA05144460C2614A68C263036230BC7B
:100B4400704700BF002C014030B4036A23F4805383
:100B54000362036A4468C26922F4E6420D6842EA09
:100B6400052223F400538D6843EA0533094DA84256
:100B740003D005F50065A84204D124F480444D69EE
:100B840044EA85144460C2614A680264036230BC6A
:100B9400704700BF002C014010B4036A046A24F0BB
:100BA40001040462846924F0F00444EA021223F08C
:100BB4000A031943826101625DF8044B704700BF68
:100BC40010B4036A23F0100303628469036A24F4F3
:100BD400704444EA023223F0A00343EA0111826123
:100BE40001625DF8044B704710B4846824F47F44B8
:100BF40042EA032319430C4384605DF8044B7047B5
:100C040010B50C460268936823F0700349680B43DF
:100C140023F0070321680B4393606368502B1FD0B4
:100C240002D8402B0BD010BD602B1FD0702B22D1CB
:100C34000068E168A2682369FFF7D6FF10BD036866
:100C4400196A1A6A22F001021A620268936923F08F
:100C5400F003246943EA041393610368196210BD25
:100C64000068A1682269FFF797FF10BD0068A168BA
:100C74002269FFF7A5FF10BD704700BF38B590F893
:100C84003C30012B18D00446012580F83C50022347
:100C940080F83D30FFF7B4FF2268D36823F04003A7
:100CA400D3602268D36823F48043D36084F83D5032
:100CB400002084F83C0038BD022038BD0368244A73
:100CC400904212D002F5006290420ED0B0F1804FF3
:100CD4000BD0A2F59832904207D002F58062904280
:100CE40003D002F58062904203D123F070034A6876
:100CF4001343174A904212D002F5006290420ED07C
:100D0400B0F1804F0BD0A2F59832904207D002F593
:100D14008062904203D002F58062904203D123F4B2
:100D24004073CA68134323F080034A691343036082
:100D34008B68C3620B688362054B984203D003F54A
:100D44000063984201D10B69036301234361704737
:100D5400002C0140C0B110B5044690F83D3013F0AA
:100D6400FF0F04D1002380F83C30FFF785FF0223F6
:100D740084F83D30214651F8040BFFF79FFF01230F
:100D840084F83D30002010BD0120704730B4036A60
:100D940023F010030362036A4468826922F4E64282
:100DA4000D6842EA052223F020038D6843EA051307
:100DB400114DA84203D005F50065A84206D123F0E1
:100DC4008003CD6843EA051323F040030A4DA8428B
:100DD40003D005F50065A84207D124F440644D69A9
:100DE40044EA85048D6944EA8504446082614A6862
:100DF4008263036230BC7047002C014038B590F820
:100E04003C30012B66D00D460446012380F83C306B
:100E1400022380F83D300C2A55D8DFE802F007544D
:100E240054541A5454542E54545441000068FFF737
:100E34001FFE2268936943F0080393612268936953
:100E440023F004039361226891692B690B43936136
:100E540039E00068FFF79AFF2268936943F400635E
:100E640093612268936923F4806393612268936990
:100E7400296943EA0123936125E00068FFF72CFE0A
:100E84002268D36943F00803D3612268D36923F04D
:100E94000403D3612268D1692B690B43D36112E047
:100EA4000068FFF751FE2268D36943F40063D361FD
:100EB4002268D36923F48063D3612268D3692969E2
:100EC40043EA0123D361012384F83D30002084F8F0
:100ED4003C0038BD022038BD10B401238B40046AA5
:100EE40024EA03030362036A8A401A4302625DF838
:100EF400044B704710B5044600680122FFF7ECFF6D
:100F040023680C4A934205D002F50062934203D150
:100F1400012202E0012200E000221AB15A6C42F4DC
:100F240000425A642268136843F0010313600020EE
:100F340010BD00BF002C014010B404238B40046A90
:100F440024EA03030362036A8A401A4302625DF8D7
:100F5400044B704710B5044600680422FFF7ECFF09
:100F64002268536C43F4004353642268136843F0CB
:100F740001031360002010BD90F83C30012B22D0F7
:100F8400012380F83C30CB6823F440728B68134310
:100F940023F480624B68134323F400620B68134309
:100FA40023F480520B69134323F400524B69134317
:100FB4008A6923F44043134302685364002380F88E
:100FC4003C30184670470220704700BF90F83C3010
:100FD400012B21D030B4012280F83C20022380F878
:100FE4003D300468636823F07003636004686568D7
:100FF4000B682B4363600468A36823F08003A36039
:101004000468A5684B682B43A36080F83D20002347
:1010140080F83C30184601E00220704730BC70472D
:1010240090F82430012B27D0012380F82430036862
:101034009A6812F0010F10D1124A926812F0010F4F
:101044000BD1114A934208D110B45A6822F4702487
:101054000A6822435A60002309E0836A43F02003AC
:1010640083620123002280F824201846704700225E
:1010740080F82420184601E0022070475DF8044BF4
:10108400704700BF002801400024014000F0070021
:10109400064AD36823F4E0631B041B0C43EA0020D4
:1010A40040F0BF6040F40030D060704700ED00E0D5
:1010B40030B4164BDC68C4F30224C4F10705042DD4
:1010C40028BF0425231D062B01D9033C00E000247E
:1010D400012303FA05F5013D2940A140A340013B4A
:1010E4001A400A43002806DA00F00F001201D2B2B7
:1010F400074B1A5407E01201D2B200F1604000F528
:10110400614080F8002330BC704700BF00ED00E070
:1011140014ED00E0410900F01F0001238340024A5E
:1011240042F82130704700BF00E100E00138B0F11F
:10113400807F0AD2064B5860F021064A82F82310B9
:101144000020986007221A6070470120704700BF92
:1011540010E000E000ED00E0042805D1054A136822
:1011640043F0040313607047024A136823F0040336
:101174001360704710E000E0704700BF08B5FFF748
:10118400FBFF08BD0022064BDA61064B1A6942F0E8
:1011940004021A611A6942F040021A61704700BFE2
:1011A40050020020002002400022064BDA61064B68
:1011B4001A6942F002021A6158611A6942F0400247
:1011C4001A6170475002002000200240264B1B7E0B
:1011D400012B47D070B50E4605460122224B1A76E4
:1011E4000368022B12D14CF25030FFF783F888BB0E
:1011F4000120FFF7C7FF4CF25030FFF77BF802469F
:101204001A490B6923F004030B6126E04CF25030B9
:10121400FFF770F800BB4FF0FF333360AC68012276
:1012240011E02046FFF7C0FF4CF25030FFF762F8A0
:101234000E4A136923F002031361024608B13460B5
:101244000BE004F50064E968AB6803EBC123A34237
:10125400E7D802E0012200E001220021024B1976C6
:10126400104670BD0220704750020020002002404A
:10127400F0B583B000273C46E2E00122A2400B68AF
:101284001340934240F0DB804D68122D2DD00BD8D3
:10129400022D27D003D85DB3012D1ED035E0032DD8
:1012A40030D0112D1BD030E0684EB54220D008D884
:1012B400A6F58016B5421BD006F58036B54224D17A
:1012C40016E0634EB54213D006F58036B5420FD012
:1012D400A6F58016B54218D10AE0CF6815E0CF68AC
:1012E400043712E0CF6808370FE0CF680C370CE002
:1012F4008D684DB1012D02D10261082705E04261DC
:10130400082702E0002700E00427FF2B01D88446C9
:1013140001E000F1040CFF2B02D84FEA840E03E035
:10132400A4F1080E4FEA8E0EDCF800600F2202FAD8
:101334000EF226EA020507FA0EF22A43CCF8002040
:101344004A6812F0805F7AD0424A956945F00105F7
:101354009561926902F001020192019AA208961C19
:101364003D4D55F8266004F0030E4FEA8E0E0F250E
:1013740005FA0EF526EA0506384DA8421FD005F5F4
:101384008065A84219D005F58065A84213D005F5FB
:101394008065A8420DD005F58065A84207D005F503
:1013A4008065A84201D105250AE0062508E0042548
:1013B40006E0032504E0022502E0012500E0002503
:1013C40005FA0EF535430232234E46F822504A6898
:1013D40012F4803F04D0224D2A681A432A6004E0A4
:1013E4001F4D2A6822EA03022A604A6812F4003F69
:1013F40004D01B4D6A681A436A6004E0184D6A6899
:1014040022EA03026A604A6812F4801F04D0144D71
:10141400AA681A43AA6004E0114DAA6822EA0302EA
:10142400AA604A6812F4001F04D00D4DEA68134301
:10143400EB6004E00A4DEA6822EA0303EB6001343E
:101444000F2C7FF61AAF03B0F0BD00BF00002110CF
:10145400000031100010024000000140000801406B
:101464000004014083680B4201D001207047002032
:10147400704700BF0AB101617047090401617047F8
:10148400C3685940C160704770B582B004460368B0
:1014940013F0010F5CD03E4BDB6913F0805F0BD17E
:1014A4003B4BDA6942F08052DA61DB6903F0805326
:1014B4000193019B012600E00026364B1B6813F4C0
:1014C400807F12D1334A136843F48073136000F0B1
:1014D40097F8054604E000F093F8401B64284FD8C1
:1014E4002C4B1B6813F4807FF5D0294B1B6A13F433
:1014F400407321D0626802F440729A421CD0244A9C
:10150400136A23F44070244901250D6000250D6001
:10151400106213F0010F0FD000F072F8054606E0D8
:1015240000F06EF8401B41F2883398422AD8184BD9
:101534001B6A13F0020FF3D015490B6A23F44072AF
:10154400636813430B621EB1CB6923F08053CB61F4
:10155400236813F0020F06D00D494B6823F4404270
:10156400A36813434B60236813F0100F0CD0084991
:101574004B6823F48002636913434B60002004E04A
:10158400032002E0032000E0002002B070BD00BF91
:10159400001002400070004040044242704700BF07
:1015A40010B50446074B1B680748A0FB03308009AD
:1015B400FFF7BCFD4FF0FF3021460022FFF778FD16
:1015C400002010BD00000020D34D621008B5074A6A
:1015D400136843F0100313600320FFF757FD002046
:1015E400FFF7DEFFFFF7DAFF002008BD002002400E
:1015F400024A136801331360704700BF7002002071
:10160400014B1868704700BF7002002030B583B0EA
:101614000190FFF7F5FF0546019CB4F1FF3F00D0B0
:101624000134FFF7EDFF401BA042FAD303B030BDF5
:10163400704700BF70B483B00023019390F8243046
:10164400012B00F08380012380F824304B68062BA3
:101654000DD80668756B03EB8303053B1F229A4084
:1016640025EA02040A689A40224372631CE00C2BA8
:101674000DD80668356B03EB8303233B1F229A4086
:1016840025EA02040A689A40224332630CE00668A1
:10169400F56A03EB8303413B1F229A4025EA0204C7
:1016A4000A689A402243F2620B68092B0DD9066836
:1016B400F56803EB43031E3B07229A4025EA020424
:1016C4008A689A402243F2600BE00668356903EBAE
:1016D400430307229A4025EA02048A689A40224377
:1016E40032610B68103B012B26D80368194A9342D8
:1016F4001CD19A6812F4000F20D19A6842F40002B7
:101704009A600B68102B1BD1134B1B68134AA2FB66
:1017140003239B0C03EB83035B00019302E0019B17
:10172400013B0193019B002BF9D10AE0836A43F04A
:1017340020038362012304E0002302E0002300E08D
:101744000023002280F82420184600E0022003B081
:1017540070BC7047002401400000002083DE1B435E
:1017640030B583B00023019303689A6812F0010F27
:101774002FD19A6842F001029A60174B1B68174AEE
:10178400A2FB03239B0C019302E0019B013B019309
:10179400019B002BF9D10446FFF732FF054611E007
:1017A400FFF72EFF401B02280CD9A36A43F0100355
:1017B400A362E36A43F00103E362002384F8243064
:1017C400012007E023689B6813F0010FE8D0002094
:1017D40000E0002003B030BD0000002083DE1B4386
:1017E40090F82430012B70D010B50446012380F802
:1017F4002430FFF7B5FF0346002861D1A26A22F422
:10180400407222F0010242F48072A26222683049DE
:101814008A4205D1A1F58061496811F4702F0ED177
:10182400A16A21F48011A162516811F4806F1CD067
:10183400A16A21F4405141F48051A16215E0A16AEA
:1018440041F48011A16223498A4203D001F58061E9
:101854008A420AD11F49496811F4806F05D0A16AF0
:1018640021F4405141F48051A162A16A11F4805FD6
:1018740004D0E16A21F00601E16201E00021E162A5
:10188400002184F824106FF002011160226891682D
:1018940001F46021B1F5602F0DD10D498A4205D1C3
:1018A400A1F58061496811F4702F04D1916841F465
:1018B400A001916007E0916841F48011916002E019
:1018C400002284F82420184610BD0220704700BF6F
:1018D400002801400024014038B503689A6812F0DA
:1018E400010F1ED004469A6822F001029A60FFF7A5
:1018F40087FE05460EE0FFF783FE401B022809D948
:10190400A36A43F01003A362E36A43F00103E362B2
:10191400012038BD23689B6813F0010FEBD1002030
:1019240038BD002038BD00BF002800F0888070B5A5
:101934000446836A23B9C36280F82430FFF778FE33
:101944002046FFF7C9FFA36A13F0100F71D10028D6
:101954006FD1A36A23F4885323F0020343F00203F4
:10196400A36262682168374B994206D1E369B3F5F3
:10197400402F03D14FF4002300E0E3691343E568EB
:1019840043EA4503A268B2F5807F04D0012A05D159
:101994004FF4807203E04FF4807200E00022666925
:1019A400012E0FD135B9A569013D42EA453242F411
:1019B400006207E0A56A45F02005A562E56A45F0E6
:1019C4000105E5624D6825F469452A434A602168AA
:1019D4008D681D4A2A401A438A60A268B2F5807F46
:1019E40001D0012A03D12269013A110500E0002146
:1019F4002568EA6A22F470020A43EA62226891685E
:101A0400124A0A40934208D10023E362A36A23F0F6
:101A1400030343F00103A36270BDA36A23F012031E
:101A240043F01003A362E36A43F00103E36201207D
:101A340070BDA36A43F01003A362012070BD0120AE
:101A4400704700BF003C0140FDF7E1FFFE0E1FFFA1
:101A54000268D36823F0C003D360202380F83930B0
:101A6400704700BF0268D36823F49073D3600268A0
:101A7400536923F001035361202380F83A307047FF
:101A840090F83930DBB2212B2AD18368B3F5805F1B
:101A94000FD1036A02681B88C3F308035360036908
:101AA4001BB9036A0233036209E0036A0133036268
:101AB40005E00268036A591C01621B785360C38CF9
:101AC400013B9BB2C3846BB90268D36823F08003E3
:101AD400D3600268D36843F04003D36000207047AA
:101AE40002207047002070472DE9F84381460168C1
:101AF4000B6923F44052C36813430B618168036983
:101B04001943436919430068C26822F4B05323F0AF
:101B14000C030B43C360D9F800104B6923F44072E3
:101B2400D9F8183013434B61D9F800505B4B9D42F0
:101B340059D1FEF78DFF00EB800000EB8000D9F84F
:101B44000440A400B0FBF4F4554EA6FB043464092D
:101B54002401FEF77DFF00EB800000EB8000D9F844
:101B640004309B00B0FBF3F7FEF772FF00EB80003C
:101B740000EB8000D9F804309B00B0FBF3F3A6FB24
:101B840003235B094FF0640808FB13731B01323312
:101B9400A6FB03235B0903F0F0031C44FEF758FF84
:101BA40000EB800000EB8000D9F804309B00B0FB10
:101BB400F3F7FEF74DFF00EB800000EB8000D9F84F
:101BC40004309B00B0FBF3F3A6FB03235B0908FB83
:101BD40013731B013233A6FB0323C3F343131C44C7
:101BE400AC60BDE8F883FEF723FF00EB800000EB58
:101BF4008000D9F80440A400B0FBF4F4284EA6FBFE
:101C0400043464092401FEF713FF00EB800000EBA9
:101C14008000D9F804309B00B0FBF3F7FEF708FF0F
:101C240000EB800000EB8000D9F804309B00B0FB8F
:101C3400F3F3A6FB03235B094FF0640808FB13735B
:101C44001B013233A6FB03235B0903F0F0031C449E
:101C5400FEF7EEFE00EB800000EB8000D9F80430C4
:101C64009B00B0FBF3F7FEF7E3FE00EB800000EB14
:101C74008000D9F804309B00B0FBF3F3A6FB0323E8
:101C84005B0908FB13731B013233A6FB0323C3F365
:101C940043131C44AC60BDE8F88300BF0038014026
:101CA4001F85EB5168B310B5044690F8393013F032
:101CB400FF0F04D1002380F8383000F04DFD2423B9
:101CC40084F839302268D36823F40053D360204663
:101CD400FFF70AFF2268136923F490431361226813
:101CE400536923F02A0353612268D36843F40053F1
:101CF400D3600020E063202384F8393084F83A303C
:101D040010BD0120704700BF38B50446134690F853
:101D14003920D2B2202A2FD100292FD0002B2FD046
:101D240090F83820012A2DD0012280F83820016251
:101D34008384C3840025C563212280F83920026B83
:101D440011489062226B1148D062226B10481063D4
:101D5400226B55632268206B043200F041FA236839
:101D64006FF040021A6084F838502268536943F0D7
:101D740080035361284638BD022038BD012038BD98
:101D8400012038BD022038BD491E0008991E0008F4
:101D9400991F000870B582B00446134690F83A20A3
:101DA400D2B2202A3CD10E4600293BD0002B3BD096
:101DB40090F83820012A39D0012280F83820A16215
:101DC40083850025C563222280F83A20426B194995
:101DD4009162426B1849D162426B18491163426B9C
:101DE40055630168406B0431324600F0F9F90195FE
:101DF40023681A6801925A680192019A84F838504B
:101E0400DA6842F48072DA602268536943F00103AD
:101E140053612268536943F040035361284606E046
:101E2400022004E0012002E0012000E0022002B0D0
:101E340070BD00BFA91E0008891F0008991F000873
:101E4400704700BF08B5436A0268126812F0200F99
:101E54000CD10022DA8419684A6922F080024A61AE
:101E64001A68D36843F04003D36008BD1846FFF7EF
:101E7400E7FF08BD08B50168CB6823F04003CB60D9
:101E8400202380F83930FFF7DBFF002008BD00BFB6
:101E9400704700BF08B5406AFFF7FAFF08BD00BFEE
:101EA400704700BF08B5436A0268126812F0200F39
:101EB40013D10022DA851968CA6822F48072CA60D4
:101EC40019684A6922F001024A6119684A6922F0D4
:101ED40040024A61202283F83A201846FFF7E0FFC7
:101EE40008BD00BF08B590F83A30DBB2222B43D1CD
:101EF4008368B3F5805F13D1826A036943B90368C9
:101F04005B68C3F308031380836A0233836218E0B7
:101F140003685B68DBB21380836A0133836210E079
:101F2400036933B9836A5A1C8262026852681A7060
:101F340007E0826A531C836203685B6803F07F03D3
:101F44001370C38D013B9BB2C385BBB90268D368D0
:101F540023F02003D3600268D36823F48073D36032
:101F64000268536923F001035361202380F83A3057
:101F7400FFF796FF002008BD022008BD002008BD21
:101F8400704700BF08B5406AFFF7FAFF08BD00BFFD
:101F9400704700BF10B5446A23685B6903F0800290
:101FA40094F83930DBB2212B05D122B10023E3842C
:101FB4002046FFF74DFD23685B6903F0400294F867
:101FC4003A30DBB2222B05D122B10023E38520462F
:101FD400FFF748FDE36B43F01003E3632046FFF78C
:101FE400D7FF10BD10B5044602681368D168526962
:101FF40013F00F0009D113F0200F06D011F0200FB9
:1020040003D02046FFF76EFF10BD002862D012F007
:10201400010202D111F4907F5CD013F0010F06D0BD
:1020240011F4807F03D0E06B40F00100E06313F013
:10203400040F04D01AB1E06B40F00200E06313F027
:10204400020F04D01AB1E06B40F00400E06313F017
:10205400080F04D01AB1E26B42F00802E263E26BAB
:10206400002A4AD013F0200F05D011F0200F02D01F
:102074002046FFF737FF23685B6903F04003E26BF8
:1020840012F0080F00D1FBB12046FFF7EBFC2368E8
:102094005A6912F0400F13D05A6922F040025A6173
:1020A400636B4BB1154A5A63606B00F0D3F820B3ED
:1020B400606B436B984710BD2046FFF769FF10BD66
:1020C4002046FFF765FF10BD2046FFF761FF0023A0
:1020D400E36310BD13F0800F06D011F0800F03D01E
:1020E4002046FFF7CDFC10BD13F0400F05D011F0D2
:1020F400400F02D02046FFF7BDFE10BD05210008A9
:1021040008B5406A0023C385C384FFF741FF08BDB7
:1021140070B4C56B066C0124B4406C6004686360E1
:102124004368102B04D103689A600368D96003E004
:10213400036899600368DA6070BC704700283ED079
:1021440010B403460168204A91420AD81F4A0A443F
:102154001F49A1FB02121209920002641D4AC263C4
:1021640009E01D4A0A441A49A1FB0212120992000D
:1021740002641A4AC263022283F821201C6822687E
:1021840022F47F5222F03002586899680843D968D3
:102194000843196908435969084399690843D96987
:1021A40001430A43226000209862D862186358638E
:1021B4009863012283F8212083F8200001E00120A4
:1021C40070475DF8044B704707040240F8FFFDBFF9
:1021D400CDCCCCCC00000240F8FBFDBF0004024093
:1021E40038B590F82040012C32D0012480F82040EA
:1021F40090F82140012C26D10446022084F82100C5
:102204000020A0632568286820F00100286020468B
:10221400FFF77EFFE36A2BB12268136843F00E03D5
:10222400136009E02268136823F004031360226832
:10223400136843F00A0313602268136843F0010330
:102244001360002038BD002380F82030022038BD00
:10225400022038BD08B590F82130022B03D00423A6
:102264008363012008BD0268136823F00E03136022
:102274000268136823F00103136003684B4A934216
:1022840043D9783A93423CD01432934237D0143233
:10229400934231D0143293422BD01432934225D03E
:1022A400143293421FD01432934219D002F5627251
:1022B400934213D0143293420ED01432934208D076
:1022C4001432934202D14FF480521BE04FF4803217
:1022D40018E04FF4807215E0102213E0012211E09F
:1022E4004FF080720EE04FF480120BE04FF4803216
:1022F40008E04FF4805205E04FF4807202E01022AF
:1023040000E001222A4B5A6042E02A4A93423CD020
:102314001432934237D01432934231D01432934260
:102324002BD01432934225D0143293421FD014324E
:10233400934219D002F56272934213D0143293423D
:102344000ED01432934208D01432934202D14FF487
:1023540080521BE04FF4803218E04FF4807215E095
:10236400102213E0012211E04FF080720EE04FF4CE
:1023740080120BE04FF4803208E04FF4805205E005
:102384004FF4807202E0102200E001220A4B5A60EE
:10239400012380F82130002380F82030436B13B1EF
:1023A4009847002008BD002008BD00BF80000240FF
:1023B40000040240080002400000024038B5C36B2C
:1023C4001A6804682568016C04238B40134200F0EA
:1023D4009D8015F0040F00F09980236813F0200FFE
:1023E40003D1236823F0040323600368A84A9342BB
:1023F40043D9783A93423CD01432934237D01432C2
:10240400934231D0143293422BD01432934225D0CC
:10241400143293421FD01432934219D002F56272DF
:10242400934213D0143293420ED01432934208D004
:102434001432934202D14FF480421BE04FF48022C5
:1024440018E04FF4806215E0402213E0042211E00A
:102454004FF080620EE04FF480020BE04FF48022D4
:1024640008E04FF4804205E04FF4806202E040222D
:1024740000E00422874B5A6042E0874A93423CD0F2
:102484001432934237D01432934231D014329342EF
:102494002BD01432934225D0143293421FD01432DD
:1024A400934219D002F56272934213D014329342CC
:1024B4000ED01432934208D01432934202D14FF416
:1024C40080421BE04FF4802218E04FF4806215E054
:1024D400402213E0042211E04FF080620EE04FF43A
:1024E40080020BE04FF4802208E04FF4804205E0C4
:1024F4004FF4806202E0402200E00422674B5A60FD
:10250400C36A002B00F0C280984738BD02238B4079
:10251400134200F0A18015F0020F00F09D802368A3
:1025240013F0200F06D1236823F00A03236001234C
:1025340080F821300368564A934243D9783A93424B
:102544003CD01432934237D01432934231D01432F7
:1025540093422BD01432934225D0143293421FD08D
:102564001432934219D002F56272934213D014329A
:1025740093420ED01432934208D01432934202D1C3
:102584004FF400521BE04FF4003218E04FF4007295
:1025940015E0202213E0022211E04FF000720EE059
:1025A4004FF400120BE04FF4003208E04FF40052F5
:1025B40005E04FF4007202E0202200E00222354BD5
:1025C4005A6042E0344A93423CD01432934237D0AA
:1025D4001432934231D0143293422BD014329342AA
:1025E40025D0143293421FD01432934219D002F5ED
:1025F4006272934213D0143293420ED01432934237
:1026040008D01432934202D14FF400521BE04FF42D
:10261400003218E04FF4007215E0202213E0022289
:1026240011E04FF000720EE04FF400120BE04FF493
:10263400003208E04FF4005205E04FF4007202E06B
:10264400202200E00222154B5A60002380F820303B
:10265400836ADBB1984738BD08238B40134215D0F9
:1026640015F0080F12D0236823F00E032360C26B09
:10267400016C012303FA01F15160836380F8213076
:10268400002380F82030036B03B1984738BD00BFA6
:1026940080000240000402400800024000000240A2
:1026A4000F4B1A6842F001021A6059680D4A0A4039
:1026B4005A601A6822F0847222F480321A601A680E
:1026C40022F480221A605A6822F4FE025A604FF4FF
:1026D4001F029A604FF00062034B9A60704700BF7C
:1026E400001002400000FFF800ED00E000B583B0E8
:1026F400164B5A6942F001025A615B6903F0010307
:102704000193019B102000210A46FEF7D1FC102002
:10271400FEF700FD112000210A46FEF7C9FC112036
:10272400FEF7F8FC0A480B4B03604FF4E1334360B7
:1027340000238360C36003610C2242618361C3612F
:10274400FFF7B0FA03B05DF804FB00BF00100240CD
:102754005405002000440040F0B589B0044600232D
:10276400049305930693079303685B4A934256D1F7
:102774005A4BDA6942F40032DA61DA6902F400325F
:102784000092009A9A6942F004029A619B6903F0EC
:1027940004030193019B042304930223059303235D
:1027A40007934F4E304604A9FEF762FD08230493B5
:1027B4000025059501230693304604A9FEF758FD2C
:1027C400484E494B33607560B5608027F7603561CA
:1027D40075612023B361F5613046FFF7AFFC666392
:1027E4007462424E424B336010237360B560F760ED
:1027F40035617561B561F5613046FFF79FFC26636D
:102804007462262029462A46FEF752FC2620FEF74B
:1028140081FC2268D36843F01003D3605AE0354A40
:10282400934257D12D4BDA6942F48022DA61DA6996
:1028340002F480220292029A9A6942F008029A6192
:102844009B6903F008030393039B4FF48063049391
:102854000223059303230793274E304604A9FEF76A
:1028640007FD4FF4006304930025059501230693A7
:10287400304604A9FEF7FCFC204E214B3360756002
:10288400B5608027F760356175612023B361F56118
:102894003046FFF753FC666374621A4E1A4B33607A
:1028A40010237360B560F76035617561B561F561DA
:1028B4003046FFF743FC26637462272029462A46E4
:1028C400FEF7F6FB2720FEF725FC2268D36843F0C9
:1028D4001003D36009B0F0BD004400400010024072
:1028E40000080140740200206C000240FC04002037
:1028F4008000024000480040000C0140B802002063
:1029040030000240000400201C0002402DE9F04F7A
:1029140089B07E4B9A6942F004029A619A6902F086
:1029240004020192019A9A6942F008029A619A6932
:1029340002F008020292029A9A6942F010029A6125
:102944009B6903F010030393039B4FF00009CDF838
:102954001490CDF81890022707974FF0200A0DEB3A
:102964000A0444F810AD6A482146FEF781FC40236E
:10297400049367482146FEF77BFC80250495644850
:102984002146FEF775FC4FF48063049361482146A9
:10299400FEF76EFC4FF4006304935E482146FEF795
:1029A40067FC4FF4805604965A482146FEF760FCB3
:1029B4004FF00108CDF81880049657482146FEF7D9
:1029C40057FCCDF81890049753482146FEF750FC65
:1029D400CDF814804FF00409CDF810904C482146EE
:1029E400FEF746FC102604964B482146FEF740FCB1
:1029F400CDF810A048482146FEF73AFC032305937E
:102A0400CDF8108043482146FEF732FCCDF8108003
:102A140041482146FEF72CFC4FF0080BCDF810B0CE
:102A24003C482146FEF724FC04973A482146FEF729
:102A34001FFC049637482146FEF71AFCCDF810A077
:102A440034482146FEF714FCCDF810903148214655
:102A5400FEF70EFCCDF810B02F482146FEF708FC17
:102A6400CDF810902C482146FEF702FC0597402330
:102A7400049328482146FEF7FBFB0495254821468C
:102A8400FEF7F6FB4FF48079CDF8109021482146EB
:102A9400FEF7EEFB049520482146FEF7E9FBCDF84E
:102AA40010801B482146FEF7E3FB04971848214693
:102AB400FEF7DEFBCDF8109017482146FEF7D8FB51
:102AC4004FF40073049314482146FEF7D1FB4FF4EE
:102AD4008063049310482146FEF7CAFB4FF4005369
:102AE40004930B482146FEF7C3FB4FF48043049341
:102AF40007482146FEF7BCFB4FF400430493044807
:102B04002146FEF7B5FB09B0BDE8F08F0010024086
:102B1400000C014000100140000801402DE9F04F75
:102B240099B0774B9A6942F400629A619A6902F407
:102B340000620192019A9A6942F400529A619B6977
:102B440003F400530293029B6E4EDFF8C091C6F863
:102B54000090002474604FF0200AC6F808A04FF4D7
:102B6400FA6BC6F80CB034617461B4613046FEF798
:102B7400F1F8102316931794304616A9FEF726FA97
:102B840060230F93109411940827129713941494AC
:102B94004FF40073159330460FA92246FEF72EF921
:102BA40030460FA90422FEF729F930460FA93A4608
:102BB400FEF724F94FF4006308934FF480630993FC
:102BC4000A9430230B930C940D940E9430460DEB21
:102BD4000A01FEF7D1F94C4DDFF83481C5F80080C5
:102BE4006C60C5F808A0C5F80CB02C616C61AC61D0
:102BF4002846FEF7AFF8CDF858A08023179328464F
:102C040016A9FEF7E3F9049418A9052341F8543DE5
:102C14002846FEF733F85023C8F8243060230F9376
:102C2400109411941297139414944FF40073159301
:102C340028460FA92246FEF7E1F828460FA90422E8
:102C4400FEF7DCF828460FA93A46FEF7D7F84FF40A
:102C5400006308934FF4806309930A9430230B9321
:102C64000C940D940E9428460DEB0A01FEF784F99A
:102C7400D8F8443023F40043C8F84430D9F8443039
:102C840023F40043C9F8443028462146FEF732F9BC
:102C940028460421FEF72EF928463946FEF72AF97C
:102CA40028462146FEF756F928460421FEF752F934
:102CB40028463946FEF74EF930462146FEF71AF902
:102CC40030460421FEF716F930463946FEF712F96C
:102CD40030462146FEF73EF930460421FEF73AF924
:102CE40030463946FEF736F92B6801221A633268FA
:102CF400136843F00103136019B0BDE8F08F00BFFF
:102D040000100240C003002094050020002C014064
:102D1400003401402DE9F04387B0434EB36943F4D6
:102D24000073B361B36903F400730093009B3F4CD9
:102D34003F4B23604FF48073A3600025E560656119
:102D44004FF44023E36165604FF00508C4F8108038
:102D54002046FEF7E9FD374A536843F48023536065
:102D640006A94FF4C02341F8043D2046FEF758F964
:102D740004950B2702974FF00109CDF80C902046DB
:102D840002A9FEF757FCCDF8109002950223039395
:102D9400204602A9FEF74EFC0E230293032303935D
:102DA400204602A9FEF746FC0C2302930423039356
:102DB400204602A9FEF73EFC072304931023029346
:102DC400CDF80C80204602A9FEF734FC22689368F3
:102DD40043F4000343F480739360936843EA090364
:102DE4009360736943EA09037361736903EA09032E
:102DF4000193019B104B1D60C3F804800F4A9A6035
:102E04000F4ADA6040F6A2221A601A6842EA0902FE
:102E14001A60384629462A46FEF74AF93846FEF72C
:102E240079F907B0BDE8F08300100240CC0400201B
:102E34000024014000000140080002404C240140ED
:102E440040050020F0B585B0274B9A6942F48062B2
:102E54009A619B6903F480630093009B234C244B89
:102E640023604FF48073A3600025E56065614FF42F
:102E74006023E3616560052626612046FEF754FD64
:102E840003950A23019301250295204601A9FEF723
:102E9400D1FB03950D23019302270297204601A934
:102EA400FEF7C8FB0F23019303250295204601A9D1
:102EB400FEF7C0FB01970423029320460DEB0301A8
:102EC400FEF7B8FB01950296204601A9FEF7B2FB76
:102ED40023689A6842F480729A609A6842F0010208
:102EE4009A6005B0F0BD00BF001002403C03002012
:102EF4000028014070B5214C002384F8FB3084F88D
:102F0400FA30022384F8F930012684F8FD604FF486
:102F1400C853A4F8CE304FF49643A4F8DA3084F8BA
:102F2400FE604FF4FA52A4F8D0204FF4C872A4F80B
:102F3400CC20A4F8E03042F6E063A4F8E230104D6F
:102F4400284621464FF4807203F0F4FA85F8FA60BB
:102F54000C4804600C4BC3600C4B43600C4B836007
:102F64000C4C25600C4BE3600C4B63600C4BA36072
:102F740003F034FA204603F031FA70BD70000020EB
:102F8400D805002084080020E806002060080020FE
:102F94009407002070080020B4070020A407002034
:102FA400D80600200C4B93F8FE301BB90B4B93F85A
:102FB400FE3043B14FF49662094B1A804FF65032FB
:102FC400084B1A8070474FF47A72054B1A804FF6FB
:102FD4001842044B1A80704770000020D805002066
:102FE40092010020900100200268D36823F48073CA
:102FF400D3600268536923F001035361704700BF33
:1030040010B50022074B1A70082405E0064B1C700B
:103014006420FEF7FBFA013C002CF7DA0022024B95
:103024001A7010BD3602002040020020034B1870B5
:10303400034B1970034B1A70704700BF360200200F
:10304400400200203002002038B50025044B1D70DA
:10305400044C20704FF4FA70FEF7D8FA257038BD8E
:10306400360200204002002038B50025044B1D70B4
:10307400044C20706420FEF7C9FA257038BD00BFE7
:10308400360200204002002038B50446002912DB35
:103094004400E4B205E0E01CC0B2FFF7E5FF023CE7
:1030A400E4B2012CF7D838BDE81CC0B2FFF7DCFF4E
:1030B4000235EDB200E00225B5EB440FF4DD38BD76
:1030C400094BB3F90830094AB2F908209B1A03EBFB
:1030D400D373C3F34F03064A13801BB2002BB8BF4C
:1030E4005B42044A13807047D806002094070020EE
:1030F400D405002080080020214B1B78032B3ED1EF
:10310400204BB3F90030002B05DD524200FB02F0E6
:10311400C0F3CF3003E000FB02F0C0F3CF3009B1BD
:10312400404280B2184B1B78C3EBC3014900174AD5
:10313400114449888AB2952A06D8C3EBC3035B00BD
:10314400124A134458807047963292B2952A06D890
:10315400C3EBC3035B000D4A13445880704709B2A4
:10316400952906DDC3EBC3035B00084A134458806A
:103174007047C3EBC3035B00044A13445880704791
:1031840004000020D40500208F0100201800002036
:1031940070B4144B83FB0045C417C4EBA51583FB23
:1031A4000243D417C4EBA3139D420FD00D4C84FBF0
:1031B4000146CC17C4EBA614A34209D0904209DC03
:1031C400914209DCA54209D1012008E0002006E073
:1031D400002004E0002002E0002000E0022070BC97
:1031E400704700BF1F85EB5170B582B0FFF77EFAC0
:1031F4002F4C20462F494022FEF7CCFD2046FFF7F6
:10320400F3FEFDF759F801F0FBFA2B4B18880DF18A
:10321400060101F0D1FA002543E02C46C5EBC503B5
:103224005B00264A13445A79032A0ED1EE00731B1D
:103234005B00224E1E44B6F90600B6F90810B6F932
:103244000A20FFF7A5FF307105E0C5EBC5035B005D
:103254001A490B441A71C4EBC4035B00184A1344A3
:103264005A79032A0ED1E600331B5B00144E1E4428
:10327400B6F90600B6F90810B6F90A20FFF788FF78
:10328400307105E0C4EBC4035B000D490B441A71B3
:10329400C4EBC40464000B4B1C44012323711D4480
:1032A400EDB2002DB9D0FDF71BF802B070BD00BF20
:1032B40054050020A401002038000020080000204C
:1032C4001800002028000020F0B50579012D02D057
:1032D400022D13D04AE0B0F90640B0F90010091BE2
:1032E40002FB01F1B0F90A301B1B91FBF3F39A4284
:1032F40002DB23EAE37292B24280F0BD068834B264
:1033040005892FB2B0F90C30C3EB070E744506DD06
:1033140007EB030E744502DA00234380F0BD36B296
:103324002DB2AE420FDD3B44E41A02FB04F1B0F9C6
:103334000A40E31A91FBF3F4A24202DB24EAE474A8
:10334400A2B24280F0BDDA1BA31801FB03F3B0F96B
:103354000640144493FBF4F4002C04DC8C42B8BF04
:103364000C46A1B200E000214180F0BD002343805F
:10337400F0BD00BF38B5184B1A78002A2BD1174975
:103384004D88D300981A4000154C25528D88981A00
:103394004000144C2552C8889B1A5B00124AD05234
:1033A400124B18780B891AB2904214D0104A127832
:1033B4008AB9104A127872B90F4A127812F0FF0FC4
:1033C40009D15A1E92B2022A05D8084A137008205D
:1033D4000121FFF759FE38BD8F010020E8010020CC
:1033E400080000201800002028000020040000200D
:1033F400F4010020F50100208C01002010B51E4AC4
:103404001388591C1180B3F5FA7F06D301221B4B94
:103414001A704FF4FA72184B1A80184B1B78184A1A
:103424001370184A12782AB923B9174B1B7813F072
:10343400FF0F0FD00021154B1970154B1878C300DE
:103444001A1A5200134C224451801B1A5B00124A70
:10345400134459800E4B1B7833B1104A12781AB9B1
:103464000820FFF701FE10BD2BB90C4B1B7813B1DC
:103474001220FFF7F9FD10BD06000020A101002075
:10348400F5010020F40100208C010020040000203C
:103494008F0100200800002018000020A001002057
:1034A40070B5FFF767FF144C2078C0EBC0004000F4
:1034B400124E134D134B1844B6F90010B5F9002001
:1034C400FFF702FF2078C0EBC00040000E4B184409
:1034D40000214FF47A72FFF7F7FE2078C0EBC000AA
:1034E40040000A4B1844B6F90010B5F90020FFF764
:1034F400EBFEFFF783FF70BD8F01002090010020D9
:10350400920100200800002028000020180000205C
:10351400F0B403884AF6CD34A34219D1478886888B
:10352400C58804897B4073406B40634044899C4256
:103534000ED10568446883680D604C608B60022A74
:1035440006D10023034A1370034A1380034A13600D
:10355400F0BC7047A101002006000020980800205C
:1035640070B51D4B5B6B1B685C68C4F140041B4B5E
:103574001B689C4228D010D9E21A0C2A0DD1184994
:103584000B44184E3546186859689A6807C5304682
:1035940015490222FFF7BCFF16E0C3F140052A19C2
:1035A4000C2A11D10F480E4919442A4602F0C2FFD1
:1035B4002CB10C4828440A49224602F0BBFF0948B2
:1035C40009490222FFF7A4FF044B1C60402C01D1DF
:1035D40000221A6070BD00BF54050020E4010020E1
:1035E400A401002094010020E80100202DE9F84303
:1035F400314B1B781BB9314B1B78002B5AD0FCF78D
:103604005BFE2F4C208841F2690101F08DFA2D4DAB
:103614006088B5F8CE1001F087FAA088B5F8DA1002
:1036240001F082FA002541E0EC00E21C631B5B0020
:10363400254F1F44224E36F81200397901F074FAEE
:10364400231D36F81300F98801F06EFA631D36F86D
:103654001300398901F068FAA31D36F8130079893B
:1036640001F062FAE31DDFF86490671B7F004F44AA
:1036740036F81300397901F057FA05F101084FEAD9
:10368400C80336F81300F98801F04EFA04F109036F
:1036940036F81300398901F047FA04F10A0336F8C1
:1036A4001300798901F040FA5FFA88F5002DBBD048
:1036B400FCF716FEBDE8F8838E0100208D01002082
:1036C40038000020700000200800002018000020AE
:1036D40010B500240B4B1C700B4B1C700B4B1C7057
:1036E40005E00B4B1C706420FDF790FF0134072CA0
:1036F400F7DDFFF77BFF074820210022FDF7BAFE24
:10370400FEE700BF2A02002036020020300200201B
:1037140040020020000801402DE9700316683313AD
:10372400C3EB00104FEAE0798CB2A0FB040104FB68
:103734000911040944EA01740D11B4F1004F75F143
:10374400000308DA2346B4F1004F75F1FF3104DABF
:103754004FF0004301E06FF0004333441360BDE8D1
:10376400700370472DE9F04F83B0FFF7A9FC604B5D
:10377400B3F90030052B00F3B880FFF7FBFD5D4B78
:103784001A78D300991A49005B48415E09040191F3
:103794009B1A5B00594AD35E1B0400934FF0000B45
:1037A4004FF40044D94647F6FF752646DA462F46BD
:1037B4003BE0FFF7DFFDDFF83C9199F80030C3EB05
:1037C400C3035B004C4AD05E41F6991101AAFFF78E
:1037D400A3FF99F80030C3EBC3035B00474AD05EF4
:1037E40041F699116A46FFF797FFBDF806A0BDF8A8
:1037F40002900FFA8AF33FB29F42A8BF1F46BFB29E
:1038040036B29E42B8BF1E46B6B20FFA89F32DB245
:103814009D42A8BF1D46ADB224B29C42B8BF1C460F
:10382400A4B20520FDF7F2FEC34635480221FDF798
:1038340019FE30B90BF101081FFA88F8BBF57A6F4D
:10384400B7D32C4B93F8008038B20FFA8AF132B216
:10385400FFF79EFCC0B24FEAC803C8EB03035B004A
:10386400254A134418715B79984201D0032B0BD17C
:1038740021494FEAC803C8EB030252000A44D78027
:10388400A2F808A0568108E0C8EBC8084FEA480827
:10389400194B9844002388F80430164B1E7828B23C
:1038A4000FFA89F122B2FFF773FCC0B2F3009B1B3D
:1038B4005B00124A134418715B79984201D0032BC0
:1038C40009D10E49F3009A1B52000A44D580A2F88C
:1038D4000890548106E0C6EBC6067600074B1E44EA
:1038E400002333710122074B1A7003B0BDE8F08F37
:1038F400800800208F01002008000020180000200C
:10390400000801408E01002030B583B0FFF7D8FBDA
:10391400534BB3F90030052B00F39F80514B1A78B9
:10392400D300991A49005048415E090401919B1A39
:103934005B004E4AD35E1B04009300244C4B1C7066
:103944001CE0FFF717FD474C2378C3EBC3035B0070
:10395400454AD05E41F6991101AAFFF7DDFE2378AE
:10396400C3EBC3035B00414AD05E41F699116A463A
:10397400FFF7D2FE0520FDF749FE2C463D48022103
:10398400FDF770FD20B9631C9DB2B4F5FA6FD8D36E
:10399400344B1B78DA00D21A520033490A44B2F984
:1039A40006000199A1EB0041B2F90A20121A91FB19
:1039B400F2F2B2F5803F06DA41F69914A242B8BF9A
:1039C400224694B201E04FF6FF74DA00D21A520094
:1039D40026490A44B2F906500099A1EB0541B2F90F
:1039E4000A00421B91FBF2F2B2F5803F06DA40F680
:1039F400CC418A42B8BF0A4692B201E04FF6FF7248
:103A0400C3EBC301490018480144097971B14FF46B
:103A1400C87101FB04F1C1F30F311748A0F8CE10AF
:103A24001648A0F8CE10012011490870C3EBC30357
:103A34005B000E490B441B797BB14FF4966303FB87
:103A440002F3C3F30F330C4AA2F8DA300B4AA2F89C
:103A5400DA30074A13780233137003B030BD00BF65
:103A6400800800208F01002008000020180000209A
:103A74008D01002000080140D805002070000020BE
:103A840038B524480221FDF7EDFC002841D000257B
:103A9400214B1D700BE00A20FDF7B8FD6C1CA4B28D
:103AA400B5F5FA7F02D10520FFF7DEFA254619485D
:103AB4000221FDF7D7FC0028EDD1B5F5FA7F24D318
:103AC4004FF47A70FDF7A2FD12480221FDF7CAFCFB
:103AD40018B911E00A20FDF799FD0E480221FDF7FF
:103AE400C1FC0028F6D10820FFF7AEFAFFF70CFF5F
:103AF4000520FFF7B9FA38BD1020FFF7A5FAFFF744
:103B040031FE0520FFF7B0FA38BD082D01D9FFF7C3
:103B1400DFFD38BD000801402A02002010B41488DB
:103B2400C4EB001000B2884204DC4B4219B2884254
:103B340000DB0146214411805DF8044B704700BF4F
:103B4400F0B44910451AB5F5004F04DA1B4CA542F0
:103B5400B8BF254601E047F6FF75C5F30F1515807C
:103B6400174C24882FB226B2B74208DC3D46154EC6
:103B7400B6F90060B742B8BF3546ADB200E025469D
:103B840015800144B1F5004F04DA0C4A9142B8BFE4
:103B9400114601E047F6FF71C1F30F11198022B2FB
:103BA40008B2824207DB0146064AB2F90040A0424D
:103BB400B8BF21468CB21C80F0BC70470080FFFF68
:103BC400920100209001002030B597B002250C9599
:103BD40001231093102311931395002414944FF48C
:103BE400601315930CA8FCF723FC0F230793089587
:103BF40009944FF480630A930B9407A82946FCF7B1
:103C04004FFE01954FF48043039301A8FDF73CFC5C
:103C1400FCF708FF084BA3FB00308009FDF786FA88
:103C24000420FDF799FA4FF0FF3021462246FDF7B4
:103C34003FFA17B030BD00BFD34D6210F0B583B06A
:103C4400FDF7C4FC5C4CA36943F00103A361A369C1
:103C540003F001030093009B0320FDF717FA6FF0B4
:103C64000B0000210A46FDF723FA6FF00A00002139
:103C74000A46FDF71DFA6FF0090000210A46FDF718
:103C840017FA6FF0040000210A46FDF711FA6FF0ED
:103C9400030000210A46FDF70BFA6FF00100002132
:103CA4000A46FDF705FA4FF0FF3000210A46FDF7FA
:103CB400FFF9FFF789FF636923F001036361FEF7EE
:103CC40025FEFEF72BFFFFF725F8FFF7BBF8FFF7FC
:103CD40011F93A4820210122FDF7CCFBFFF762F9E4
:103CE400FFF782FA3648FDF77BFD3648FDF778FD8D
:103CF400FFF786F9344804210122FDF7BBFB334A60
:103D0400138A1B040193138A02E00A20FDF77EFC48
:103D14002A480221FDF7A6FB0028F6D12C4B1B688C
:103D24002C4A12689B1A502BF8D9FFF7B9FBFFF7FE
:103D3400C7F9294B1B7863BB284B9B794BBB284B9A
:103D44009B7933BB274B1B78C3EBC3025200264934
:103D54000A445288313292B2622A1AD8C3EBC3039E
:103D64005B00224A13445B8831339BB2622B10D828
:103D74000620FFF779F90420FFF776F96420FDF7B0
:103D840045FC00231A4A13601A4A13600122124B9D
:103D94001A70194B1B881AB23C2A31DC13460A2AC2
:103DA400B8BF0A230A3BDB03144880FB0320DB175C
:103DB400C3EB201080B225E000100240000801404F
:103DC400CC0400203C030020000C014040050020EE
:103DD40048020020FC0100202A0200209407002051
:103DE400D80600208F0100200800002018000020C1
:103DF400F80100201C020020800800201F85EB51E0
:103E04004FF40040AB4B1B78C3EBC3035B00AA4ADF
:103E140013445A8813B2002B02DD0021FFF76CF91A
:103E2400A44C2378C3EBC3035B00A44A1344A44DFE
:103E3400B3F902004FF4F0712A46FFF76FFE2378BE
:103E4400C3EBC3035B009F4A13449F4CB3F90200C6
:103E54004FF4F0712246FFF761FEB5F900009B4D67
:103E6400001141F699112A46FFF756FCB4F90000F7
:103E7400974C001141F699112246FFF74DFC6988D1
:103E8400944B19806088944B188040F30B0041F3E5
:103E94000B01924D924C000109012A462346FFF77B
:103EA4004FFEB5F900208F4B1A60B4F900305B4225
:103EB4008D4A13608D4B188A80B240F28F2101AA7B
:103EC400FFF72AFCBDF90630A3F2776303EB8312F4
:103ED40003EB4203864880FB0320DB17A3EB60005F
:103EE40000F5B37080B2834B1880834BB3F9002084
:103EF40040F6827303FB02F3804D85FB0325DB1739
:103F0400C3EB6525ADB27E4B1D807E4BB3F90C40EF
:103F14006FF0630202FB04F47B4E86FB0413E41788
:103F2400C4EB231399B2794B1980794BB3F90C3054
:103F340002FB03F286FB0243D217C2EB231293B2B5
:103F4400744A13800B449BB2734A1380734A1268F9
:103F540012F0010F35D1724A4AF6CD31118055491C
:103F64000E78F1008C1B6400544F3C4464885480E8
:103F7400891B4900534E3144B1F802E0A2F804E031
:103F840068490F89D78068490E89168155819381C4
:103F9400D081664A126B1268526892B960490A82EB
:103FA40084F42B4484F0CD048EEA040487EA0402EA
:103FB400724055406B40584048825C481422FDF7DB
:103FC400A3FEFFF75DFD4C4B1B8819B240F2EE5285
:103FD400914207DC564AB2F90020132A02DCFFF7AB
:103FE40077FB52E0504A927912B94E4A927942B123
:103FF4000022504B1A70012018210246FFF716F8D0
:1040040043E04D4A12782AB1022018210122FFF719
:104014000DF83AE0494A12782AB103201821012206
:10402400FFF704F831E0464A127812F0FF0F05D08A
:10403400042018210122FEF7F9FF26E01BB240F20A
:104044002962934205DC00200A210622FEF7EEFFD6
:104054001BE0214BB3F9003013F1320F0DDA394B69
:10406400B3F90030002B08DA002005210122FEF705
:10407400DDFF0122344B1A7007E00020014602469E
:10408400FEF7D4FF0022304B1A70154BB3F9003001
:10409400002BB8BF5B42322B07DC104BB3F9003066
:1040A400002BB8BF5B42322B52DD0022274B1A6033
:1040B40052E000BF8F0100202800002008000020EB
:1040C4001402002018000020180200201C02002006
:1040D400F801002016020020200200206C090020B4
:1040E40068090020440200203C0200204005002012
:1040F4006B4CA4076E09002062000020D190D957B0
:1041040072090020600800201F85EB516A09002015
:10411400A4070020700900207409002094080020DE
:1041240000020020D8060020940700205405002037
:10413400800800202A020020F4010020F50100205C
:104144008C010020D40500209C0800209808002041
:104154000B4A136801331360094B1A68094B9A42DE
:1041640001D9FFF7B5FA084B1A78084B1A70084BB7
:104174001A68084B1A60084A136801331360CDE5C6
:1041840098080020803801008F010020A001002041
:1041940048020020FC01002094080020F8B5022207
:1041A4008C4B5A608C4B1B88B3F5FA6F40D20133A9
:1041B400894A1380894A938899B28948B0F90030B2
:1041C4000B4403EBD3735B100380D38899B2854807
:1041D400B0F900300B4403EBD3735B1003801389F5
:1041E40099B28148B0F900300B4403EBD3735B10F0
:1041F4000380538999B27D48B0F900300B4403EB36
:10420400D3735B100380538899B27948B0F90030B6
:104214000B4403EBD3735B10038013889AB2754984
:10422400B1F90030134403EBD3735B100B80F8BD7A
:10423400714B1A68714BA3FB02139B094FF47A71FB
:1042440001FB13235BB9654B98896D4C80B240F236
:104254008F212246FFF760FA62886A4B1A805F4911
:104264008A885F4B1B889B1A674A1380CA885D4BF8
:104274001B889B1A654A13804A885D4B1B889A1ACF
:1042840092B2634B1A800889574B1B881B1A6148EA
:1042940003804889554B1B881B1A5F480380098893
:1042A400544B1B885B1A9BB25C490B8012B2002AE8
:1042B400B8BF5242B2F5FA7F02DC594A12782AB9E1
:1042C40058494A6C22F400424A6404E055494A6C55
:1042D40042F400424A641BB2002BB8BF5B42B3F500
:1042E400FA7F02DC4E4B1B782BB94F4A536C23F4F4
:1042F4000043536404E04C4A536C43F40043536456
:104304003D4A136801331360484B1978002932D0B1
:104314001368474AA2FB03231B0B464A1278013257
:10432400B3FBF2F002FB10332BBB434B1B787BB97E
:104334000122414B1A70414A13780133DBB21370E6
:104344003F4A12780232934202DD01223B4B1A703B
:10435400294B1A68B2FBF1F301FB1321B1B9374BB6
:104364001A78374B1B789A4200D97BB9354810210B
:10437400FDF786F80AE0304B1B783BB13148102139
:104384000022FDF777F800222B4B1A702E4B93F87E
:10439400F930022B03D16E222C4B1A8002E000224A
:1043A4002A4B1A802A4B1B78002B40F03A810122B9
:1043B400274B1A701A4B1B7843B1264B9B793BB998
:1043C400254B9B79002B49D0002248E0002246E08F
:1043D400002244E0000002402402002040050020A6
:1043E4005E000020600000206A0000206C000020B5
:1043F400680000206E00002048020020D34D6210A7
:1044040064000020620000202C0200202E02002004
:10441400220200202802002038020020340200205A
:104424002A02002000340140002C014040020020F8
:104434005917B7D130020020260200204D02002077
:1044440036020020000801407000002032020020E3
:104454004C02002094070020D80600200122D2B28A
:10446400704B1A70704B996811F0200F0CBF012427
:104474000024996811F0400F0CBF012000209B68B4
:1044840013F0800F0CBF01210021684B1A70684A99
:1044940012785A70674A12685A801C71587199715F
:1044A400654A12881A81654A12885A81644A1288B8
:1044B4009A81644B186800F045FE634B19880FFA23
:1044C40081FE5A8817B29B8818B20EF57A7E5F4C2B
:1044D400248826B2C6F5FA65AE4503DDC4F5FA6153
:1044E40089B206E0B64501DAA1B202E001F57A71BB
:1044F40089B2DFF85CE1CEF8341007F57A718D42A9
:1045040003DAC4F5FA6292B206E08E4201DDA2B289
:1045140002E002F57A7292B24D498A6300F57A722A
:10452400954203DAC4F5FA639BB206E0964201DDD4
:10453400A3B202E003F57A739BB2454AD363454BB9
:104544009A6812F4806F0CBF012000209A6812F45C
:10455400006F0CBF012100219B6813F4805F0CBF26
:10456400012200223C4B2F4C24781C70304C2478C0
:104574005C703A4C24685C80187159719A71384A9D
:1045840012881A81374A12885A81374A12889A81C6
:10459400364B186800F0D6FD354B19880FFA81FEAA
:1045A4005A8817B29B8818B20EF57A7E274C248855
:1045B40026B2C6F5FA65AE4503DDC4F5FA6189B2E3
:1045C40006E0B64501DAA1B202E001F57A7189B2DA
:1045D400DFF8A0E0CEF8341007F57A718D4203DAE3
:1045E400C4F5FA6292B206E08E4201DDA2B202E0A4
:1045F40002F57A7292B21F498A6300F57A72954283
:1046040003DAC4F5FA639BB206E0964201DDA3B275
:1046140002E003F57A739BB2164AD3630022164B69
:104624001A70F8BD2B020020000C01406008002025
:10463400040000203C0200202C0200202E02002056
:104644002202002094650008940700203202002012
:104654000034014000100140A4070020440200205F
:104664002802002038020020340200209865000847
:10467400D8060020002C01404C02002006E00388EC
:104684009BB24FF6FF72934205D10430034B98421C
:10469400F5D9012070470020704700BFFF070108CB
:1046A400134B1B889BB2134A128892B278B101282B
:1046B40011D12AB94EF6EE6293420ED10020704712
:1046C4006BB94EF6EE639A420BD14020704753B15A
:1046D4005AB9402070470020704740207047AB20F3
:1046E40070470020704700207047AB20704700BF20
:1046F400000001080000020870B505460E460120BE
:10470400FFF7CEFFAB2821D000F580342034E4023B
:10471400C0020F4A024415E02368B3F1FF3F10D1F1
:104724000120214632460023FBF71CFE08B180B26B
:1047340070BD0120A11C2A460023FBF713FE80B2A2
:1047440070BD04349442E7D3802070BDAB2070BDAB
:10475400FF07010800B587B00023059301931348B0
:10476400039001230493FFF789FF20B901A805A949
:10477400FCF72CFD90B901200C4900220023FBF723
:10478400F1FD60B90A4B03930A48FFF777FF38B984
:1047940001A805A9FCF71AFD20B903E002E001E035
:1047A4000020FFE707B05DF804FB00BF000001082C
:1047B400008001080000020838B504460D460020B8
:1047C400FFF76EFFAB2816D000F580312031C90207
:1047D400C0020A4B034409E01A8892B2A24204D1EF
:1047E40033F8023C2B80002038BD043B8A1C9A42DB
:1047F400F2D3012038BDAB2038BD00BFFE0701084D
:1048040070B586B00020059090490B889BB2904A01
:10481400128892B201900391012104914EF6EE6147
:104824008B4239D04FF6FF718B4203D0002B40F0FE
:10483400F28097E07AB98548FFF720FF0446002804
:1048440040F0EE8001A805A9FCF7C0FC002800F0A8
:10485400FA8084B2F7E04EF6EE639A4215D17B48B3
:10486400FFF70CFF30B901A805A9FCF7AFFC08B1AC
:1048740084B2E8E00120764900220023FBF772FDB0
:10488400002800F0CF8084B2DDE0FFF763FF00284A
:1048940000F0CA8084B2D6E0FAB142E06D4B1B88C6
:1048A4009BB225466C4A32F81400834200D1A6B26A
:1048B40033B29D420ED06949FFF77EFF012809D02B
:1048C400654B33F81500654B1988FFF715FF08B1E0
:1048D4000446B8E00134A4B202E04FF6FF760024A7
:1048E400122CDBD90120594900220023FBF73AFDA1
:1048F40008B184B2A7E000230193594B0393012329
:1049040004935348FFF7BAFE0446002840F08E8013
:1049140001A805A9FCF75AFC002800F0948084B291
:1049240091E04FF6FF739A4216D14D4B03934848DA
:10493400FFF7A4FE30B901A805A9FCF747FC08B1AC
:1049440084B280E00120414900220023FBF70AFDE4
:1049540000286DD084B276E0FFF7FCFE002869D011
:1049640084B270E02AB9FFF7F5FE002864D084B25F
:1049740069E04FF6FF739A422ED1394B03933448C2
:10498400FFF77CFE0446002858D101A805A9FCF7CE
:104994001DFC002857D084B255E0324B1B889BB2D3
:1049A40025462D4A32F81400834200D1A6B233B210
:1049B4009D420ED02949FFF7FFFE012809D0264B5E
:1049C40033F81500254B1988FFF796FE08B1044605
:1049D40039E00134A4B202E04FF6FF760024122C31
:1049E400DBD901201A4900220023FBF7BBFC08B1E4
:1049F40084B228E000230193144803900123049314
:104A0400FFF73CFE0446D8B901A805A9FCF7DEFB74
:104A1400C8B184B217E0FFF79DFE98B184B212E0EA
:104A2400002410E000240EE000240CE000240AE03E
:104A3400002408E0002406E0002404E0002402E04E
:104A4400002400E00024204606B070BD00000108E8
:104A54000000020806000108380000204E02002071
:104A640000800108060002082DE9F04186B00546E1
:104A74000C4600200590FFF713FE402804D00028C0
:104A840043D1244F244E01E0244F224E01203146CD
:104A94004EF6EE620023FBF765FC08B180B236E007
:104AA40028462146FFF728FE88BB002414E01C4B4F
:104AB40033F81400A8420DD01A49FFF77DFE0128EF
:104AC40008D0174B33F81400164B1988FFF714FE5F
:104AD40000B11CE00134A4B2122CE8D900230193E4
:104AE40003970123049301A805A9FCF76FFB08B100
:104AF40080B20CE00120314600220023FBF732FC97
:104B040008B180B203E080B201E0AB20FFE706B059
:104B1400BDE8F081000001080000020800800108DF
:104B2400380000204E02002038B505460C46FFF739
:104B3400E3FD802803D128462146FFF795FF38BDC1
:104B4400704700BFFEE700BFFEE700BFFEE700BFFF
:104B5400FEE700BF704700BF704700BF704700BF4B
:104B640008B5FCF745FDFCF709FB08BD08B502488C
:104B7400FDF724FC08BD00BF7402002008B50248FC
:104B8400FDF71CFC08BD00BFFC04002010B582B07A
:104B9400094C2046FDF726FA2368DA6812F0100F54
:104BA40008D0002201921A6801925B680193019B6C
:104BB400FEF7D6FC02B010BD54050020884209DD82
:104BC400411A89B2B1FBF2F29A4201D2D0B27047D3
:104BD400D8B2704700207047884209D9411A89B277
:104BE400B1FBF2F29A4201D2D0B27047D8B2704708
:104BF40000207047CB0FB3EBD07F05D090FBF1F3CF
:104C040001FB130313B903E0002301E04FF0FF336A
:104C140090FBF1F018447047018070470AB91A8874
:104C240000E00022104480B202B28A4201DA188005
:104C340000E0198000B270470023036043607047AE
:104C440070B4B0F900501E68A5EB2644B4F5004FCB
:104C540003DA14F5004F03DB03E047F6FF7400E0CA
:104C64000E4C04FB0164250C15801C60B0F9024055
:104C74005D68A4EB2540B0F5004F03DA10F5004F52
:104C840003DB03E047F6FF7000E0044801FB00503B
:104C9400010C5180586070BC704700BF0080FFFF5A
:104CA4000180704710B4019C0AB9228800E00022F8
:104CB400104480B21880884201D2208000E0218014
:104CC4005DF8044B704700BF13781B1A18BF01230B
:104CD4000B701070704700BF10B5044604300021FB
:104CE400FFF7DEFFA01C0021FFF7DAFF10BD00BFB5
:104CF4002DE9F04184B006460F4690461D460A9CB5
:104D04000DF10D012246FFF7DFFFC6B1A379B3B958
:104D14009DF80D20231D0093012039460DF10E034B
:104D2400FFF7C0FFBDF80E30BB4203D8A3791BB117
:104D3400012302E0012300E000232B701AE0BEB936
:104D4400A379ABB19DF80D20A31C0093012041462B
:104D54000DF10E03FFF7A6FFBDF80E30434502D850
:104D6400A37913B902E0002300E001232B7001E0D2
:104D7400A3792B702B78A37104B0BDE8F08100BF38
:104D8400416070470023036041607047F0B5BDF98E
:104D94001470069E079C01FB00F1091104D52568D7
:104DA400C1F1004085420ADB002905DD25686FF06A
:104DB4000040401AA84205DB2068014404E04FF09B
:104DC400004101E06FF00041606801440D13A8B296
:104DD4000FFA80FE9E4501DD338005E003B2BB423D
:104DE40001DA378000E030803088431B1BB202FBBD
:104DF40003F222606160F0BD01230371704700BFBC
:104E04000023437101230371704700BFF0B5BDF95E
:104E14001470BDF918E0079E089C099D02FB00F27E
:104E2400002A03DAC2F1004CB44509DC002A05DD8E
:104E34006FF0004CC2EB0C0CB44504DB324404E0CC
:104E44004FF0004201E06FF000422E7906B12B6072
:104E54006B790BB1002600E016462B681E4401FB5B
:104E640000F1C912B1F5004F03DA11F5004F03DB6D
:104E740003E047F6FF7100E02349331401EB4303D9
:104E84005B10B3F5004F03DA13F5004F03DB03E0C7
:104E940047F6FF7300E01C4B9BB219B2B942D4BF72
:104EA400002001207145ACBF0021012108B12780F9
:104EB40004E011B1A4F800E000E02380002A04DB40
:104EC400002AD4BF0022012201E04FF0FF3213F484
:104ED400004F05D11BB2002BD4BF0023012301E0F6
:104EE4004FF6FF731BB2934203D120B929B90023B3
:104EF40004E0002302E0012300E001236B7100239E
:104F04002B712E60F0BD00BF0080FFFF01230371F1
:104F1400704700BF0023437101230371704700BF32
:104F2400F0B5BDF91470BDF918E0079E089C099D01
:104F340002FB00F2002A03DAC2F1004CB44509DC9A
:104F4400002A05DD6FF0004CC2EB0C0CB44504DB09
:104F5400324404E04FF0004201E06FF000422E7949
:104F64000EB11B042B606B790BB1002600E01646D2
:104F74002B681E4401FB00F1C912B1F5004F03DA9E
:104F840011F5004F03DB03E047F6FF7100E023490E
:104F9400331401EB43035B10B3F5004F03DA13F54D
:104FA400004F03DB03E047F6FF7300E01B4B9BB2AB
:104FB40019B2B942D4BF002001207145ACBF002111
:104FC400012108B1278004E011B1A4F800E000E059
:104FD4002380002A04DB002AD4BF0022012201E03E
:104FE4004FF0FF3213F4004F05D11BB2002BD4BF96
:104FF4000023012301E04FF6FF731BB2934203D158
:1050040020B929B9002304E0002302E0012300E0D1
:1050140001236B7100232B712E60F0BD0080FFFF14
:1050240001238370704700BF0023C3700123837082
:10503400704700BFF0B5BDF91470BDF918E0079DC5
:10504400089C099E02FB00F2002A03DAC2F1004C1C
:10505400AC4509DC002A05DD6FF0004CC2EB0C0CFA
:10506400AC4504DB2A4404E04FF0004201E06FF059
:105074000042B57805B13380F37843B9002A02DAE7
:105084004FF6FF7500E0002515442D0C00E00025C7
:1050940033881D44ADB201FB00F1C912B1F5004FD4
:1050A40003DA11F5004F03DB03E047F6FF7100E07C
:1050B40023492BB201EB43035B10B3F5004F03DA32
:1050C40013F5004F03DB03E047F6FF7300E01C4BCE
:1050D4009BB219B2B942D4BF002001207145ACBFC4
:1050E4000021012108B1278004E011B1A4F800E0F7
:1050F40000E02380002A04DB002AD4BF002201221E
:1051040001E04FF0FF3213F4004F05D11BB2002B26
:10511400D4BF0023012301E04FF6FF731BB2934277
:1051240003D120B929B9002304E0002302E00123BC
:1051340000E00123F3700023B3703580F0BD00BF9D
:105144000080FFFF2DE9F04F95B00568C4684668FC
:10515400876896F804C07379580000EB8C0096F8C1
:1051640006E0704400F0FF020992191C18BF0121E7
:1051740094F89A8094F89B2094F89C00BCF1000F5A
:1051840018BF81F00101BEF1000F0CBF0B4681F086
:105194000103B8F1000F18BF83F00103002A0CBF0C
:1051A4001A4683F00102002818BF82F00102002A87
:1051B40000F0938094F88E10BF4B0998034493F841
:1051C40088E794F88F30C3EB0E03DBB258B20128A2
:1051D40002D010F1050F03D1012384F88E3002E0D0
:1051E400FF2384F88E3084F88FE0B4F88000A4F8AC
:1051F40056001FFA80FEB4F88230C3EB0E039BB254
:105204001FFA83FC1CF4004F02D05B421FFA83FC9C
:10521400B5F904800FFA8CF3984503DC012384F874
:10522400A93008E0B5F906800FFA8CF3984502DB43
:10523400002384F8A93094F8A98084F8A28094F813
:105244008E304FFA83FC49B2BCEB010118BF012137
:1052540021B194F8A7C0BCF1000F29D111B1B4F861
:105264008AE027E0B8F1000F0AD0B5F80CE04FEA65
:105274000E1E0FFA80FC9EFBFCFE1FFA8EFE19E048
:10528400B5F80CC04FEA8C0C1FFA8CFC4FEA0C1CCE
:10529400B4F884A0B4F88680B4F88890D044C844A4
:1052A400C6440FFA8EFE9CFBFEFE1FFA8EFE01E042
:1052B4004FF0000E5BB203FB0EF3A4F87A30A4F8AF
:1052C4008200B4F88630A4F88430B4F88830A4F8A6
:1052D4008630A4F8880084F8A7100120B5F90A10D4
:1052E40004F14003FFF79AFC0B90B5F90A308342AE
:1052F40003DBB4F87A30079301E000230793079B9C
:1053040013F4004F03D05B429BB2089301E0079B68
:105314000893B5F9D420BDF920309A4203DC012367
:1053240084F8A83008E0B5F9D220BDF920309A42BB
:1053340002DB002384F8A83095F8FB3043B994F8D5
:10534400A82042B194F8A22042B14FF0000907E02E
:105354004FF0010904E04FF0000901E04FF00109AA
:105364005FFA89F994F8A3200C9294F8A4200D9282
:10537400B6F902B04FEA0B120F921FFA82FBB6F98C
:1053840008804FEA081846F63F22904506DC4B4A4F
:10539400904507DB1FFA88F20E9206E046F640229B
:1053A4000E9202E049F2C0520E92B6F90A804FEA18
:1053B400081846F63F22904505DC404A904505DB37
:1053C4001FFA88F804E046F6402801E049F2C05884
:1053D400002B4CD1B9F1000F2AD0B4F856E00FFAE3
:1053E4008EF30B9A9A4201DA114600E0714694F862
:1053F4008E2053B2012B05D12F4B0998034493F807
:10540400883706E02C4B0998034493F88837013316
:10541400DBB209B288030FFA8EF190FBF1F152B2BC
:1054240002FB01F212B202EB8333C3F38F0313E0E6
:1054340094F98E30012B05D11F4B099A134493F82C
:10544400883706E01C4B099A134493F888370133D4
:10545400DBB21B0303F470431AB2002A00DC0023FE
:105464001BB2C3EB0313C3F30F130A931BE095F8AA
:10547400F830B6F90EA003FB0AFAAAF5F07A504602
:105484004FF4B451FFF7B6FB00EB4000C0EB001043
:10549400C3001846AAEB031A0FFA8AFA4FEA8A0ADB
:1054A4001FFA8AF30A9394F8902095F8F930022BA6
:1054B40006D04FF0FF0A05E09C650008C195FFFF88
:1054C4004FF0000A84F890A053B24FFA8AF18B424D
:1054D40017D0B2B994F898302BB9A4F85230A4F884
:1054E4007830A4F85430FF2384F898300023A4F8CB
:1054F4007C30A4F87E30A4F85230A4F85430A4F8D8
:105504007830BAF1000F40F0038195F8FA3063BBAC
:10551400BDF9381044F6E71202FB01F10FFA88F8DE
:1055240002FB08F2002902DA47F6FF7801E04FF0A7
:10553400000888444FEAE838002A02DA43F6FF7389
:1055440000E000231A4442F38F3208EB0203B3F560
:10555400004F03DA13F5004F03DB03E047F6FF7354
:1055640000E0B84B1FFA83F85BE0012B2DD1BDF9A5
:1055740038300FFA88F1581AB0F5004F03DA10F5F5
:10558400004F03DB03E047F6FF7000E0AD4844F64C
:10559400E71202FB00F2002A02DA47F6FF7801E084
:1055A4004FF000084244C2F3CF385B425B1AB3F5B4
:1055B400004F03DA13F5004F03DB03E047F6FF73F4
:1055C40000E0A04B9BB20E932BE0BDF9382044F6CB
:1055D400E71303FB02F20FFA88F803FB08F8002A2A
:1055E40002DA47F6FF7300E000231A44D213524252
:1055F400B8F1000F02DA43F6FF7300E00023984489
:1056040048F38F38C8EB0203B3F5004F03DA13F500
:10561400004F03DB03E047F6FF7300E0894B1FFAFA
:1056240083F8BDF9280000218022B423FFF7C6FACD
:10563400854B33F81020A4F87C2003EB4003B3F827
:105644006A31A4F87E3094F8982033780BB94FF07F
:10565400FF0A84F898A053B24FFA8AF18B4207D01C
:1056640032B90023A4F85230A4F87830A4F85430A6
:10567400BAF1000F4CD11AB104F13800FFF7DCFA8B
:105684000FFA88F8B4F97EE00EFB08F141F38F308D
:10569400BDF93830B4F97C2002FB03F141F38F31BA
:1056A400411AB1F5004F03DA11F5004F03DB03E0B3
:1056B40047F6FF7100E06349ADF8481003FB0EF3B1
:1056C40043F38F3302FB08F242F38F321344B3F5F2
:1056D400004F03DA13F5004F03DB03E047F6FF73D3
:1056E40000E0584BADF84A3012A8B5F8EC1004F1BC
:1056F400520204F13803FFF7A3FAB4F8523013F45A
:10570400004F03D05B42A4F8783001E0A4F878306D
:1057140094F8A330002B00F0C18195F8FD30002BE4
:105724005AD094F89D3013F0040F03D001238DF860
:105734004F301CE0B4F88C3013F4004F01D05B42BE
:105744009BB2327862B1B5F9DC10BDF920209142E8
:1057540008DDB5F9DE201BB29A4205DB002304E024
:10576400002302E0002300E001238DF84F30099B61
:10577400072B02D14FF0020801E04FF00008099B0B
:10578400002B14BF434608F101030DF1500A1AF827
:10579400018D03EB880818F0FF08298AEA8904F1CF
:1057A4002E03009314BF0120002004F1A103FFF78E
:1057B4009FFA94F8A100514604F12C02FFF784FAF1
:1057C4009DF84F3013B187F8068002E094F89D30BD
:1057D400BB71BB7984F89D3094F8A1302BB9337830
:1057E4002BB173782BB9012304E0012302E00123D8
:1057F40000E00023DBB28DF84F307278022A04D027
:1058040095F8FC1019B1012102E0012100E000210A
:10581400C8B2032A04D195F8FC201AB1002202E090
:10582400002200E00122D1B294F89E2072B9012333
:1058340084F89E30022384F89F30002384F8993042
:1058440085E000BF0080FFFF9C65000894F89F205E
:10585400012A5AD143B1002384F8A030022284F8EB
:105864009F2084F8993072E094F8A030012B02D084
:10587400022B17D02DE0022384F89930002866D13A
:10588400002384F8A03031B1022384F8A03003232C
:1058940084F899305BE0032384F8A030012384F872
:1058A400993054E0032384F8993000294FD1002320
:1058B40084F8A03030B1012384F8A030022384F8A6
:1058C400993044E0032384F8A030012384F899300C
:1058D4003DE0012384F8993001B9C0B3002384F872
:1058E400A03031B1022384F8A030032384F8993026
:1058F4002DE030B1012384F8A030022384F89930DC
:1059040025E0032384F8A03021E0002284F89920C4
:10591400EBB97378012B01D000B9C1B1012384F82C
:105924009F3031B1022384F8A030032384F89930E6
:105934000DE030B1012384F8A030022384F89930BB
:1059440005E0032384F8A030012384F8993095F806
:10595400F930022B30D10023ADF840306B8AADF81A
:105964004230B5F8DA30ADF84430B5F8CE30ADF8A1
:1059740046300FFA8BF3B3F57A5F03DC13F57A5FE5
:1059840003DB04E04FF47A5B01E04CF2801B737894
:1059940014AA02EB430333F9103C5B01B24A82FBC5
:1059A4000312DB17C3EBE2039BB20FFA8BFB0BFB77
:1059B40003FBCBF30F3B0CE00FFA8BF3B3F57A5FE9
:1059C40005DC13F57A5F04DA4CF2801B01E04FF436
:1059D4007A5B94F8971094F89930003318BF012338
:1059E400DAB284F8972013B1002B49D14AE052B2BD
:1059F40049B28A4204D0012384F8A6300023A36468
:105A0400B4F98C20120312F0006F02D042F07842F5
:105A140001E022F0784294F8A6108DF84F1000238C
:105A240084F8A63009B9A06C00E01046434213F094
:105A3400006F02D043F0784E01E023F0784E2B68DB
:105A44009E450BDC5B4213F0006F02D043F07843B9
:105A540001E023F078439E4500DB7346034413F0D2
:105A6400006F02D043F0784301E023F0784309B19A
:105A7400A26400E0A364C3F30F33A4F8743001E01C
:105A8400A4F874B0B4F8743013F4004F03D05B423C
:105A9400A4F8763001E3A4F87630FEE294F8A4305A
:105AA400002B00F0738195F8FE30002B59D01BF4C5
:105AB400004F04D00F9BC3F1000B1FFA8BFBB5F80A
:105AC400E0E00FFA8EF20FFA8BF39A4206DBB5F898
