:020000040800F2
:1000000000C0002079630008734B0008754B00089E
:10001000774B0008794B00087B4B0008000000007C
:100020000000000000000000000000007D4B000800
:100030007F4B000800000000814B0008834B000844
:10004000C1630008C1630008C1630008C163000800
:10005000C1630008C1630008C1630008C1630008F0
:10006000C1630008C1630008C1630008CD410008F6
:10007000C1630008C1630008C1630008C1630008D0
:10008000914B0008A14B0008C1630008C163000840
:10009000C1630008C1630008C1630008C1630008B0
:1000A000C1630008C1630008C1630008C1630008A0
:1000B000C1630008C1630008C1630008C163000890
:1000C000C1630008C1630008C1630008C163000880
:1000D000C1630008C1630008B14B0008C163000898
:1000E000C1630008C1630008C1630008C163000860
:1000F000C1630008C1630008C1630008C163000850
:10010000C1630008C1630008C1630008C16300083F
:10011000C1630008C1630008C1630008C16300082F
:10012000C1630008C1630008C1630008C16300081F
:1001300000000000000000000000000000000000BF
:1001400000000000000000000000000000000000AF
:10015000000000000000000000000000000000009F
:10016000000000000000000000000000000000008F
:10017000000000000000000000000000000000007F
:10018000000000000000000000000000000000006F
:10019000000000000000000000000000000000005F
:1001A000000000000000000000000000000000004F
:1001B000000000000000000000000000000000003F
:1001C000000000000000000000000000000000002F
:1001D000000000000000000000000000000000001F
:0401E0005FF8E0F1F3
:1001E40010B5054C237833B9044B13B10448AFF36D
:1001F40000800123237010BD700100200000000066
:100204002464000808B5034B1BB103490348AFF34A
:10021400008008BD00000000740100202464000870
:10022400044B0022DA61044A136943F001031361A9
:100234000180704750020020002002401A4BDB6806
:1002440013F0100F27D0194AD36943F00203D36186
:100254001023154AD26812F0040F06D01349CA6954
:1002640042F00102CA6143F004030F4AD26912F05A
:10027400010F09D00D49CA6942F00402CA610A4952
:10028400CA6922F00102CA6140F20112934204D009
:10029400054AD36070470023DBE7034AD36923F0A0
:1002A4000103D361704700BF0020024050020020C8
:1002B400074B1B6913F0800F07D0054B054A5A60A2
:1002C40002F188325A60002070470120704700BF55
:1002D4000020024023016745034A136943F0800369
:1002E40013610020704700BF0020024038B5044667
:1002F40001F050F90546174BDB6813F0010F0AD0E3
:10030400B4F1FF3FF7D00CB301F044F9401BA04215
:10031400F1D9032019E00F4BDB6813F0200F02D052
:100324000C4B2022DA600B4BDB6813F0100F09D161
:10033400084BDB6913F0010F04D1064BDB6813F0A3
:10034400040F05D0FFF77AFF012038BD0320FCE736
:100354000020FAE7002002402DE9F843234C247ED4
:10036400012C41D01E4690460F4604461F4B0122E5
:100374001A764CF25030FFF7B9FF034670BB012CDC
:1003840029D0022C24D04FF0040900244C4525D256
:100394002101C1F12002A1F1200328FA01F106FA9A
:1003A40002F2114326FA03F3194389B207EB44001E
:1003B400FFF736FF4CF25030FFF798FF0C4B1D69E6
:1003C40025F001051D61034640B90134E4B2DDE7BF
:1003D4004FF00209D9E74FF00109D6E7034A00219B
:1003E40011761846BDE8F8830223FAE7500200208C
:1003F4000020024082B0084B1B68084AA2FB03237A
:100404005B0A00FB03F0019000BF019B5A1E01929E
:10041400002BF9D102B0704700000020D34D6210C8
:1004240070B582B00446036813F0010F2CD0AB4BB7
:100434005B6803F00C03042B1DD0A84B5B6803F02E
:100444000C03082B12D06368B3F5803F41D0002B16
:1004540055D103F1804303F504331A6822F4803242
:100464001A601A6822F480221A6037E09B4B5B689A
:1004740013F4803FE7D0994B1B6813F4003F03D07B
:100484006368002B00F0AE81236813F0020F76D06E
:10049400924B5B6813F00C0F5FD0904B5B6803F0DA
:1004A4000C03082B54D02369002B00F08A808C4B5A
:1004B40001221A6001F06EF80546884B1B6813F0A0
:1004C400020F75D101F066F8401B0228F5D903200C
:1004D4008BE1824A136843F480331360636843B347
:1004E40001F058F805467D4B1B6813F4003FCBD14F
:1004F40001F050F8401B6428F5D9032075E1B3F5E9
:10050400A02F09D0754B1A6822F480321A601A6839
:1005140022F480221A60E1E703F18043A3F53C331F
:100524001A6842F480221A601A6842F480321A600F
:10053400D4E701F02FF80546684B1B6813F4003F1D
:10054400A2D001F027F8401B6428F5D903204CE120
:10055400624B5B6813F4803FA5D1604B1B6813F0BA
:10056400020F04D02369012B01D001203DE15B4A35
:10057400136823F0F803616943EAC1031360236835
:1005840013F0080F32D0A369002B5BD0554B012226
:100594001A6000F0FFFF0546504B5B6A13F0020F30
:1005A40021D100F0F7FF401B0228F5D903201CE1FC
:1005B4004A4A136823F0F803616943EAC1031360EC
:1005C400DDE7474B00221A6000F0E4FF0546434B89
:1005D4001B6813F0020FD2D000F0DCFF401B02288E
:1005E400F5D9032001E10120FFF704FF236813F08C
:1005F400040F00F09780394BDB6913F0805F33D12F
:10060400364BDA6942F08052DA61DB6903F08053D9
:100614000193019B0125344B1B6813F4807F25D083
:10062400E368012B36D0002B4CD103F1804303F552
:1006340004331A6A22F001021A621A6A22F00402CE
:100644001A622CE0274B00221A6000F0A3FF054633
:10065400224B5B6A13F0020FC8D000F09BFF401BD3
:100664000228F5D90320C0E00025D4E71E4A136808
:1006740043F48073136000F08DFF06461A4B1B6829
:1006840013F4807FCCD100F085FF801B6428F5D95A
:100694000320AAE0114A136A43F001031362E368DA
:1006A40073B300F077FF06460C4B1B6A13F0020F7E
:1006B40037D100F06FFF801B41F288339842F3D9A1
:1006C400032092E0052B11D0044B1A6A22F0010298
:1006D4001A621A6A22F004021A62E0E70010024069
:1006E400000042428004424200700040414B1A6ABA
:1006F40042F004021A621A6A42F001021A62CEE758
:1007040000F048FF06463B4B1B6A13F0020F08D06B
:1007140000F040FF801B41F288339842F3D9032054
:1007240063E0E5B9E369002B5ED0324A526802F017
:100734000C02082A5BD0022B17D02F4B00221A6020
:1007440000F028FF04462B4B1B6813F0007F47D0B2
:1007540000F020FF001B0228F5D9032045E0254ABC
:10076400D36923F08053D361DCE7234B00221A6062
:1007740000F010FF05461F4B1B6813F0007F06D0E6
:1007840000F008FF401B0228F5D903202DE0236A5E
:10079400B3F5803F1AD017494B6823F47413226AC7
:1007A400606A024313434B60134B01221A6000F04A
:1007B400F1FE04460F4B1B6813F0007F0ED100F0CE
:1007C400E9FE001B0228F5D903200EE0094A53680C
:1007D40023F40033A1680B435360DCE7002004E0FA
:1007E400002002E0012000E0002002B070BD0120E2
:1007F400FBE700BF001002406000424210B487B023
:10080400164C94E80F000DF1180C0CE90F00238A24
:10081400ADF80430124B5B6803F00C02082A1AD1BD
:10082400C3F38342624412F8100C13F4803F05D1E1
:100834000C4B03FB00F007B010BC7047084B5B681F
:10084400C3F34043634413F8142C074BB3FBF2F394
:1008540000FB03F0EFE70448EDE700BF3C64000849
:100864000010024000093D0000127A00594B1B6839
:1008740003F007038B420CD2564A136823F0070394
:100884000B431360136803F007038B4201D001206C
:10089400704770B5036813F0020F06D04E4A5368D0
:1008A40023F0F0038468234353600C460546036831
:1008B40013F0010F52D04368012B23D0022B28D010
:1008C400454A126812F0020F00F0828042494A68D9
:1008D40022F0030213434B6000F05CFE06466B6893
:1008E400012B1DD0022B2AD03B4B5B6813F00C0F5D
:1008F40034D000F04FFE801B41F288339842F3D984
:10090400032064E0344A126812F4003FDED101206F
:100914005DE0314A126812F0007FD7D1012056E021
:100924002D4B5B6803F00C03042B17D000F032FE50
:10093400801B41F288339842F2D9032047E0264BCA
:100944005B6803F00C03082B08D000F023FE801B27
:1009540041F288339842F2D9032038E01D4B1B68DA
:1009640003F00703A3420CD91A4A136823F00703C0
:1009740023431360136803F00703A34201D001204B
:1009840025E02B6813F0040F06D0134A536823F4B0
:10099400E063E9680B4353602B6813F0080F07D03A
:1009A4000D4A536823F46053296943EAC103536031
:1009B400FFF724FF084B5B68C3F30313074AD35CB8
:1009C400D840074B1860002000F0B4FD002070BD33
:1009D4000120FCE70020024000100240506400089F
:1009E40000000020014B1868704700BF0000002081
:1009F40008B5FFF7F7FF044B5B68C3F30223034A10
:100A0400D35CD84008BD00BF0010024060640008F9
:100A140008B5FFF7E7FF044B5B68C3F3C223034A3F
:100A2400D35CD84008BD00BF0010024060640008D9
:100A340030B4036A23F001030362056A42688469DF
:100A440024F073040B681C4325F002058B682B43C8
:100A5400104DA84203D005F50065A84205D123F046
:100A64000803CD682B4323F004030A4DA84203D0A6
:100A740005F50065A84205D122F440724D6915437D
:100A84008A692A43426084614A684263036230BCD3
:100A9400704700BF002C014030B4036A23F4807314
:100AA4000362036A4268C46924F073040D682C432A
:100AB40023F400738D6843EA0523124DA84203D042
:100AC40005F50065A84206D123F40063CD6843EA26
:100AD400052323F480630B4DA84203D005F500657C
:100AE400A84207D122F440524D6942EA05128D69A9
:100AF40042EA05124260C4614A68C263036230BCC0
:100B0400704700BF002C014030B4036A23F48053C3
:100B14000362036A4468C26922F4E6420D6842EA49
:100B2400052223F400538D6843EA0533094DA84296
:100B340003D005F50065A84204D124F480444D692E
:100B440044EA85144460C2614A680264036230BCAA
:100B5400704700BF002C014010B4036A046A24F0FB
:100B640001040462846924F0F00444EA021223F0CC
:100B74000A030B438261036210BC704710B4036A1A
:100B840023F0100303628469036A24F4704444EA82
:100B9400023223F0A00343EA01138261036210BC12
:100BA400704710B4846824F47F4442EA03230B435F
:100BB4002343836010BC704710B50468A26822F018
:100BC40070024B68134323F007030A681343A360BE
:100BD4004B68502B1ED00AD9602B21D0702B05D125
:100BE4000B698A68C9680068FFF7DBFF10BD402BFA
:100BF400FCD103681C6A1A6A22F001021A620268B4
:100C0400936923F0F003096943EA011393610368CC
:100C14001C62EBE70A6989680068FFF79DFFE5E756
:100C24000A6989680068FFF7A9FFDFE7704738B5EC
:100C340090F83C30012B18D00446012580F83C5034
:100C4400022380F83D30FFF7B7FF2268D36823F012
:100C54004003D3602268D36823F48043D36084F8CC
:100C64003D50002084F83C0038BD0220FCE7000021
:100C74000368244A904212D002F5006290420ED0DA
:100C8400B0F1804F0BD0A2F59832904207D002F514
:100C94008062904203D002F58062904203D123F037
:100CA40070034A681343174A904212D002F5006257
:100CB40090420ED0B0F1804F0BD0A2F59832904202
:100CC40007D002F58062904203D002F58062904220
:100CD40003D123F44073CA68134323F080034A69A1
:100CE400134303608B68C3620B688362054B9842AD
:100CF40003D003F50063984201D10B690363012318
:100D040043617047002C0140A8B110B5044690F827
:100D14003D305BB1022384F83D30211D2068FFF78C
:100D2400A7FF012384F83D30002010BD80F83C303B
:100D3400FFF77CFFEEE701207047000030B4036A40
:100D440023F010030362036A4468826922F4E642D2
:100D54000D6842EA052223F020038D6843EA051357
:100D6400114DA84203D005F50065A84206D123F031
:100D74008003CD6843EA051323F040030A4DA842DB
:100D840003D005F50065A84207D124F440644D69F9
:100D940044EA85048D6944EA8504446082614A68B2
:100DA4008263036230BC7047002C014038B590F870
:100DB4003C30012B66D00D460446012380F83C30BC
:100DC400022380F83D300C2A1AD8DFE802F0071914
:100DD4001919201919193419191947000068FFF74E
:100DE40027FE2268936943F008039361226893699C
:100DF40023F0040393612268936929690B43936187
:100E0400012384F83D30002084F83C0038BD00689C
:100E1400FFF794FF2268936943F4006393612268A7
:100E2400936923F48063936122689369296943EA8F
:100E340001239361E4E70068FFF72EFE2268D3697B
:100E440043F00803D3612268D36923F00403D36118
:100E54002268D36929690B43D361D1E70068FFF79E
:100E640053FE2268D36943F40063D3612268D369D3
:100E740023F48063D3612268D369296943EA012397
:100E8400D361BDE70220C1E710B4012303FA01F4E2
:100E9400036A23EA04030362036A8A401343036276
:100EA40010BC704710B5044601220068FFF7ECFF40
:100EB4002368094A934203D002F50062934203D1A6
:100EC4005A6C42F400425A642268136843F00103E6
:100ED4001360002010BD00BF002C014010B4042397
:100EE40003FA01F4036A23EA04030362036A8A40EF
:100EF4001343036210BC704710B504460422006813
:100F0400FFF7ECFF2268536C43F4004353642268F8
:100F1400136843F001031360002010BD90F83C30C7
:100F2400012B25D0012380F83C30CB6823F4407397
:100F34008A68134323F480634A68134323F40063E9
:100F44000A68134323F480530A69134323F40053B8
:100F54004A69134323F480438A69134323F4004307
:100F6400134302685364002380F83C3018467047EA
:100F74000220704790F83C30012B22D030B401227B
:100F840080F83C20022380F83D300468636823F035
:100F940070036360046863680D682B4363600468CE
:100FA400A36823F08003A3600468A36849680B4323
:100FB400A36080F83D20002380F83C30184630BC04
:100FC4007047022070470000034690F82420012A4D
:100FD40020D0012280F824200268906810F0010FCC
:100FE40007D10D48806810F0010F02D10B488242EE
:100FF40008D09A6A42F020029A620120002283F803
:1010040024207047506820F470200968014351601F
:101014000020F3E70220704700280140002401402B
:10102400074AD36823F4E0631B041B0C000200F49A
:10103400E060184340F0BF6040F40030D060704777
:1010440000ED00E030B4174BDB68C3F30223C3F1B7
:101054000704042C28BF04241D1D062D18D9033BA6
:101064004FF0FF3505FA04F421EA0401994005FA2A
:1010740003F322EA0303194300280BDB0901C9B275
:1010840000F1604000F5614080F8001330BC704707
:101094000023E5E700F00F000901C9B2024B19541F
:1010A400F4E700BF00ED00E014ED00E000F01F02E3
:1010B400400901239340024A42F82030704700BFA0
:1010C40000E100E00138B0F1807F0AD2064B58609D
:1010D400064AF02182F823100020986007221A6043
:1010E40070470120704700BF10E000E000ED00E011
:1010F400042805D0054A136823F0040313607047DD
:10110400024A136843F004031360704710E000E0E0
:10111400704708B5FFF7FCFF08BD0000064B00222E
:10112400DA61064B1A6942F004021A611A6942F044
:1011340040021A61704700BF5002002000200240A4
:10114400064B0022DA61064B1A6942F002021A6168
:1011540058611A6942F040021A6170475002002037
:1011640000200240264B1B7E012B46D070B50E4654
:101174000446234B01221A760368022B20D04CF23A
:101184005030FFF7B3F890BB4FF0FF333360A568DE
:101194000122E168A36803EBC123AB4228D92846A6
:1011A400FFF7CEFF4CF25030FFF7A0F8154A136951
:1011B40023F0020313610246B8B905F50065E8E7B8
:1011C4004CF25030FFF792F808B1012210E00120F0
:1011D400FFF7A4FF4CF25030FFF788F802460949A4
:1011E4000B6923F004030B6102E0356000E0012287
:1011F400034B00211976104670BD02221046704739
:101204005002002000200240F0B482B0002635468F
:10121400ABE0002C63D0012C00D1CE68FF2B72D838
:101224008446FF2B72D8AC00DCF800200F27A740BF
:1012340022EA070206FA04F42243CCF800204A68A2
:1012440012F0805F00F09080654A946944F00104D4
:101254009461926902F001020192019AAC08A71C00
:10126400604A52F827C005F0030297000F22BA40E3
:101274002CEA020C5C4A90424ED002F58062904205
:1012840000F08B8002F58062904200F0888002F5C5
:101294008062904200F0858002F58062904200F006
:1012A400828002F58062904234D0062235E04F4FAE
:1012B400BC4214D00BD94E4FBC4210D007F5803736
:1012C400BC420CD0A7F58017BC42A7D107E0A7F514
:1012D4008017BC4203D007F58037BC429ED18C688E
:1012E4007CB1012C08D04261082697E7CE68083605
:1012F40094E7CE680C3691E7026108268EE7002653
:101304008CE704268AE700F1040C8AE7A5F10804B7
:10131400A40089E7052200E00022BA4042EA0C0258
:101324000234304F47F824204A6812F4803F3CD0FE
:10133400304C22681A4322604A6812F4003F3AD0C3
:101344002C4C62681A4362604A6812F4801F38D0D9
:10135400284CA2681A43A2604A6812F4001F36D0CF
:10136400244CE2681343E36001350F2D35D8012284
:10137400AA400B6813409A42F6D14C68122CB8D09C
:1013840095D8022CB2D07FF644AF032CB7D0112CE1
:101394007FF444AFCE68043640E70122BDE7022261
:1013A400BBE70322B9E70422B7E7124C226822EA1A
:1013B40003022260C0E70F4C626822EA0302626003
:1013C400C2E70C4CA26822EA0302A260C4E7094CFB
:1013D400E26822EA0303E360C6E702B0F0BC7047A8
:1013E40000100240000001400008014000002110EC
:1013F40000003110000401408368194201D100202B
:1014040070470120704712B90904016170470161F6
:101414007047C3685940C1607047000070B582B01E
:101424000446036813F0010F34D03E4BDB6913F01C
:10143400805F48D13B4BDA6942F08052DA61DB6964
:1014440003F080530193019B0125374B1B6813F470
:10145400807F3AD0334B1B6A13F4407311D0626817
:1014640002F440729A420CD02E4A136A23F440705C
:101474002E4901260E6000260E60106213F0010F43
:1014840037D1284A136A23F4407361680B4313620B
:10149400002D3FD1236813F0020F06D0214A536870
:1014A40023F44043A1680B435360236813F0100FE7
:1014B40035D01C4A536823F4800361690B4353609D
:1014C400002002B070BD0025BFE7174A136843F43B
:1014D4008073136000F05EF80646134B1B6813F428
:1014E400807FB7D100F056F8801B6428F5D903201B
:1014F400E7E700F04FF806460A4B1B6A13F0020FA9
:10150400BFD100F047F8801B41F288339842F3D9E9
:101514000320D6E7D36923F08053D361BAE70020D0
:10152400CFE700BF00100240007000404004424278
:101534007047000010B50446074B1868074BA3FB1F
:1015440000308009FFF7BEFD002221464FF0FF3036
:10155400FFF778FD002010BD00000020D34D62107D
:1015640008B5074A136843F0100313600320FFF71C
:1015740057FD0020FFF7DEFFFFF7DAFF002008BD6C
:1015840000200240024A136801331360704700BF11
:1015940070020020014B1868704700BF70020020E1
:1015A40030B583B00190FFF7F5FF0546019CB4F117
:1015B400FF3F00D00134FFF7EDFF401BA042FAD3F8
:1015C40003B030BD7047000030B482B000230193F3
:1015D40090F82430012B00F08B800246012380F820
:1015E40024304B68062B29D80568686B03EB83030A
:1015F400053B1F249C4020EA04000C6804FA03F312
:1016040003436B630B68092B38D91568E86803EB4F
:1016140043031E3B07249C4020EA04008C6804FA20
:1016240003F30343EB600B68103B012B34D9002018
:10163400002382F8243002B030BC70470C2B0ED843
:101644000568286B03EB8303233B1F249C4020EA9B
:1016540004000C6804FA03F303432B63D2E7056820
:10166400E86A03EB8303413B1F249C4020EA040007
:101674000C6804FA03F30343EB62C3E715682869B3
:1016840003EB430307249C4020EA04008C6804FA1B
:1016940003F303432B61C6E713681648834205D05E
:1016A400936A43F0200393620120C1E7986810F421
:1016B400000F1BD1986840F4000098600B68102B51
:1016C40001D00020B4E70C4B1B680C49A1FB0313A9
:1016D4009B0C03EB83035900019102E0019B013B46
:1016E4000193019B002BF9D10020A1E700209FE783
:1016F4000220A0E7002401400000002083DE1B43F9
:1017040030B583B00023019303689A6812F0010F87
:101714002ED19A6842F001029A60174B1B68174A4F
:10172400A2FB03239B0C019302E0019B013B019369
:10173400019B002BF9D10446FFF72CFF05462368D3
:101744009B6813F0010F11D1FFF724FF401B0228FF
:10175400F5D9A36A43F01003A362E36A43F00103DB
:10176400E362002384F82430012002E0002000E03A
:10177400002003B030BD00BF0000002083DE1B4307
:1017840090F82430012B6AD010B50446012380F868
:101794002430FFF7B5FF024600285BD1A36A23F487
:1017A400407323F0010343F48073A36223682D493B
:1017B4008B4227D0A16A21F48011A162596811F4E7
:1017C400806F05D0A16A21F4405141F48051A16297
:1017D400A16A11F4805F2BD0E16A21F00601E16275
:1017E400002184F824106FF00201196023689968BD
:1017F40001F46021B1F5602F1DD0996841F4801186
:1018040099602AE0A1F58061496811F4702FD1D064
:10181400A16A41F48011A1621349496811F4806FEF
:10182400D6D0A16A21F4405141F48051A162CFE79E
:101834000021E162D4E70B498B4204D0996841F45A
:10184400A001996009E0A1F58061496811F4702F45
:10185400D3D1F3E7002384F82430104610BD0222CC
:1018640010467047002801400024014038B5036841
:101874009A6812F0010F01D1002038BD04469A681D
:1018840022F001029A60FFF785FE054623689B68F3
:1018940013F0010F0ED0FFF77DFE401B0228F5D98F
:1018A400A36A43F01003A362E36A43F00103E36213
:1018B4000120E2E70020E0E7002800F08A8070B50C
:1018C4000446836A002B36D02046FFF7CFFFA36A75
:1018D40013F0100377D1002875D1A26A22F488523C
:1018E40022F0020242F00202A262626825683A49CA
:1018F4008D4226D0E1690A43E66842EA4602A168BD
:10190400B1F5807F27D0012922D06169012925D032
:10191400696821F469410B436B6021688D682F4B22
:101924002B4013438B60A368B3F5807F27D0012B32
:1019340025D0002126E0C36280F82430FFF742FE60
:10194400C2E7E169B1F5402FD5D14FF40021D2E7C8
:101954004FF48073D9E74FF48073D6E736B9A169A1
:10196400013943EA413343F40063D1E7A16A41F00A
:101974002001A162E16A41F00101E162C8E7236943
:10198400013B19052568EB6A23F470030B43EB62F2
:1019940023689968124B0B409A420BD0A36A23F038
:1019A400120343F01003A362E36A43F00103E3620A
:1019B40001200DE00023E362A36A23F0030343F054
:1019C4000103A36204E0A36A43F01003A3620120AD
:1019D40070BD0120704700BF003C0140FDF7E1FFEE
:1019E400FE0E1FFF0268D36823F0C003D3602023D8
:1019F40080F8393070470268D36823F49073D36059
:101A04000268536923F001035361202380F83A30BC
:101A1400704790F83930DBB2212B2AD18368B3F5B3
:101A2400805F16D0036A5A1C02621A7803685A60EF
:101A3400C38C013B9BB2C384EBB90268D36823F027
:101A44008003D3600268D36843F04003D36000206E
:101A54007047036A1B880268C3F308035360036971
:101A64001BB9036A02330362E2E7036A01330362C8
:101A7400DEE7022070470020704700002DE9F8439C
:101A840005460268136923F44053C1680B4313618C
:101A9400836802691343426913430168CA6822F4E4
:101AA400B05222F00C021343CB600268536923F452
:101AB400407381690B4353610268594B9A4257D072
:101AC400FEF796FF00EB800000EB80006C68A4003A
:101AD400B0FBF4F4534FA7FB043464092601FEF76A
:101AE40087FF00EB800000EB80006C68A400B0FB73
:101AF400F4F9FEF77DFF00EB800000EB80006C68DA
:101B0400A400B0FBF4F4A7FB043464094FF06408A8
:101B140008FB149424013234A7FB0434640904F050
:101B2400F0043444FEF764FF00EB800000EB800017
:101B34006E68B600B0FBF6F6FEF75AFF00EB8000C5
:101B440000EB80006B689B00B0FBF3F0A7FB003058
:101B5400400908FB10684FEA081808F13208A7FB8F
:101B64000837C7F343172B6827449F60BDE8F88301
:101B7400FEF74EFF00EB800000EB80006C68A400D1
:101B8400B0FBF4F4274FA7FB043464092601FEF7E5
:101B94003FFF00EB800000EB80006C68A400B0FB0A
:101BA400F4F9FEF735FF00EB800000EB80006C6871
:101BB400A400B0FBF4F4A7FB043464094FF06408F8
:101BC40008FB149424013234A7FB0434640904F0A0
:101BD400F0043444FEF71CFF00EB800000EB8000AF
:101BE4006E68B600B0FBF6F6FEF712FF00EB80005D
:101BF40000EB80006B689B00B0FBF3F0A7FB0030A8
:101C0400400908FB10684FEA081808F13208A7FBDE
:101C14000837C7F343172B6827449F60A6E700BF24
:101C2400003801401F85EB5158B310B5044690F8B5
:101C340039300BB3242384F839302268D36823F471
:101C44000053D3602046FFF719FF2268136923F479
:101C5400904313612268536923F02A035361226875
:101C6400D36843F40053D3600020E063202384F856
:101C7400393084F83A3010BD80F8383000F02AFD4D
:101C8400D8E701207047000038B590F83940E4B235
:101C9400202C31D1002931D0002A31D090F83830AD
:101CA400012B2FD013460446012280F8382001620C
:101CB4008384C3840025C563212280F83920026B04
:101CC40011489062226B1148D062226B1048106355
:101CD400226B556322680432206B00F03BFA2368C0
:101CE4006FF040021A6084F838502268536943F058
:101CF40080035361284600E0022038BD0120FCE740
:101D04000120FAE70220F8E7C31D00080F1E0008AF
:101D1400031F000830B583B090F83A40E4B2202C99
:101D24003DD100293ED0002A3ED090F83830012B16
:101D34003CD013460A460446012180F838108262DA
:101D440083850025C563222180F83A10416B184829
:101D54008862616B1748C862616B17480863616BDE
:101D64004D6321680431606B00F0F4F90195236838
:101D74001A6801925A680192019A84F83850DA6814
:101D840042F48072DA602268536943F001035361BC
:101D94002268536943F040035361284600E002205F
:101DA40003B030BD0120FBE70120F9E70220F7E78B
:101DB4001B1E0008F71E0008031F0008704708B523
:101DC400436A0268126812F0200F0CD10022DA84F0
:101DD40019684A6922F080024A611A68D36843F09C
:101DE4004003D36008BD1846FFF7E8FFFAE708B5DB
:101DF4000168CB6823F04003CB60202380F839309E
:101E0400FFF7DCFF002008BD704708B5406AFFF704
:101E1400FBFF08BD704708B5436A0268126812F0F8
:101E2400200F13D10022DA851968CA6822F480725F
:101E3400CA6019684A6922F001024A6119684A694C
:101E440022F040024A61202283F83A201846FFF724
:101E5400E1FF08BD08B590F83A30DBB2222B45D13A
:101E64008368B3F5805F0ED0036903BB03685A68C7
:101E7400836A591C81621A70C38D013B9BB2C3856E
:101E8400F3B1002033E0826A036943B903685B68F5
:101E9400C3F308031380836A02338362ECE70368A5
:101EA4005B68DBB21380836A01338362E4E703680F
:101EB4005B68826A511C816203F07F031370DBE765
:101EC4000268D36823F02003D3600268D36823F444
:101ED4008073D3600268536923F0010353612023A4
:101EE40080F83A30FFF796FF002000E0022008BD9A
:101EF400704708B5406AFFF7FBFF08BD704710B58F
:101F0400446A23685A6994F83930DBB2212B10D023
:101F140023685A6902F0400294F83A30DBB2222B6B
:101F240011D0E36B43F01003E3632046FFF7E6FFB1
:101F340010BD02F08002002AEAD00023E384204688
:101F4400FFF750FDE4E7002AEBD00023E3852046A9
:101F5400FFF751FDE5E7000010B504460268136879
:101F6400D168526913F00F0005D113F0200F02D08D
:101F740011F0200F53D1002867D012F0010202D1D2
:101F840011F4907F61D013F0010F06D011F4807F1B
:101F940003D0E06B40F00100E06313F0040F04D0C1
:101FA4001AB1E06B40F00200E06313F0020F04D0BA
:101FB4001AB1E06B40F00400E06313F0080F04D0A2
:101FC4001AB1E26B42F00802E263E26B002A48D0E5
:101FD40013F0200F02D011F0200F24D123685B6985
:101FE40003F04003E26B12F0080F00D13BB320462C
:101FF400FFF701FD23685A6912F0400F1BD05A699C
:1020040022F040025A61636B8BB11A4A5A63606BC7
:1020140000F0DAF828B3606B436B984721E0204660
:10202400FFF718FF1DE02046FFF714FFD6E7204610
:10203400FFF764FF15E02046FFF760FF11E020463C
:10204400FFF75CFF0023E3630BE013F0800F02D083
:1020540011F0800F06D113F0400F02D011F0400FA1
:1020640004D110BD2046FFF7D4FCFAE72046FFF761
:10207400BEFEF6E77D20000808B5406A0023C3854C
:10208400C384FFF73BFF08BD70B4066CC56B012425
:10209400B4406C60046863604368102B05D0036827
:1020A40099600368DA6070BC704703689A600368DB
:1020B400D960F8E700283FD010B4034601681F4AEE
:1020C40091422ED81E4A0A441E49A1FB021212094B
:1020D400920002641C4AC263022283F82120186819
:1020E400016821F47F5121F030015A689C68224331
:1020F400DC6822431C6922435C6922439C692243B5
:10210400DC6922430A43026000209862D8621863A3
:1021140058639863012283F8212083F8200010BCBF
:1021240070470A4A0A440749A1FB021212099200A5
:102134000264074AC263CFE70120704707040240E4
:10214400F8FFFDBFCDCCCCCC00000240F8FBFDBFB6
:102154000004024038B590F82040012C32D001240C
:1021640080F8204090F82140012C04D0002380F80E
:102174002030022038BD0446022084F821000020CB
:10218400A0632568286820F0010028602046FFF736
:102194007BFFE36A5BB12268136843F00E031360AC
:1021A4002268136843F0010313600020E2E7226809
:1021B400136823F0040313602268136843F00A03CE
:1021C4001360EDE70220D5E708B590F82130022B23
:1021D40003D004238363012008BD0268136823F03D
:1021E4000E0313600268136823F00103136003688D
:1021F4004B4A93424ED9783A934224D014329342B4
:1022040030D0143293422FD0143293422FD0143250
:1022140093422FD0143293422FD0143293422FD0B2
:1022240002F5627293422ED0143293422DD01432AE
:1022340093422CD01432934202D04FF4803203E004
:102244004FF4805200E00122364B5A60012380F89B
:102254002130002380F82030436B002B5ED0984758
:102264000020B9E71022EFE74FF48072ECE74FF457
:102274008052E9E74FF48032E6E74FF48012E3E757
:102284004FF08072E0E70122DEE71022DCE74FF432
:102294008072D9E7244A934224D01432934225D041
:1022A4001432934224D01432934224D014329342F1
:1022B40024D01432934224D01432934224D002F511
:1022C4006272934223D01432934222D01432934246
:1022D40021D01432934202D04FF4803203E04FF401
:1022E400805200E00122114B5A60AFE71022FAE756
:1022F4004FF48072F7E74FF48052F4E74FF48032E2
:10230400F1E74FF48012EEE74FF08072EBE7012221
:10231400E9E71022E7E74FF48072E4E700205BE787
:102324008000024000040240080002400000024015
:1023340038B5C36B1A6804682568016C04238B40A4
:10234400134200F09B8015F0040F00F0978023687F
:1023540013F0200F03D1236823F0040323600368E0
:10236400AA4A934246D9783A934224D014329342EB
:1023740028D01432934227D01432934227D01432F7
:10238400934227D01432934227D01432934227D059
:1023940002F56272934226D01432934225D014324D
:1023A400934224D01432934202D04FF4802203E0AB
:1023B4004FF4804200E00422954B5A60C36A03B193
:1023C400984738BD4022F7E74FF48062F4E74FF4B2
:1023D4008042F1E74FF48022EEE74FF48002EBE70E
:1023E4004FF08062E8E70422E6E74022E4E74FF496
:1023F4008062E1E7874A934224D01432934225D085
:102404001432934224D01432934224D0143293428F
:1024140024D01432934224D01432934224D002F5AF
:102424006272934223D01432934222D014329342E4
:1024340021D01432934202D04FF4802203E04FF4AF
:10244400804200E00422744B5A60B7E74022FAE766
:102454004FF48062F7E74FF48042F4E74FF48022B0
:10246400F1E74FF48002EEE74FF08062EBE70422DD
:10247400E9E74022E7E74FF48062E4E702238B4078
:10248400134200F0A38015F0020F00F09F80236830
:1024940013F0200F06D1236823F00A0323600123DD
:1024A40080F821300368594A93424BD9783A9342D1
:1024B40024D0143293422DD0143293422CD01432AF
:1024C40093422CD0143293422CD0143293422CD009
:1024D400143293422CD002F5627293422BD0143200
:1024E40093422AD01432934229D01432934202D018
:1024F4004FF4003203E04FF4005200E00222444B58
:102504005A60002380F82030836A002B3FF459AFCF
:10251400984756E72022F2E74FF40072EFE74FF4B2
:102524000052ECE74FF40032E9E74FF40012E6E71B
:102534004FF00072E3E70222E1E72022DFE74FF4E5
:102544000072DCE7334A934224D01432934225D0FC
:102554001432934224D01432934224D0143293423E
:1025640024D01432934224D01432934224D002F55E
:102574006272934223D01432934222D01432934293
:1025840021D01432934202D04FF4003203E04FF4CE
:10259400005200E00222204B5A60B2E72022FAE700
:1025A4004FF40072F7E74FF40052F4E74FF40032AF
:1025B400F1E74FF40012EEE74FF00072EBE702226E
:1025C400E9E72022E7E74FF40072E4E7082303FA7F
:1025D40001F111423FF4F5AE15F0080F3FF4F1AEEE
:1025E400236823F00E032360026CC16B012303FAFA
:1025F40002F24A60836380F82130002380F820309F
:10260400036B002B3FF4DDAE9847DAE6800002400E
:102614000004024008000240000002400F4B1A6808
:1026240042F001021A6059680D4A0A405A601A6859
:1026340022F0847222F480321A601A6822F4802212
:102644001A605A6822F4FE025A604FF41F029A601C
:10265400044B4FF000629A60704700BF00100240C4
:102664000000FFF800ED00E000B583B0164B5A6996
:1026740042F001025A615B6903F001030193019B7B
:10268400002211461020FEF7DDFC1020FEF70EFD9F
:10269400002211461120FEF7D5FC1120FEF706FD9D
:1026A4000A480B4B03604FF4E1334360002383601B
:1026B400C36003610C2242618361C361FFF7B4FA12
:1026C40003B05DF804FB00BF001002405405002075
:1026D40000440040F0B589B00446002304930593F8
:1026E4000693079303685C4A934204D05B4A93427F
:1026F40058D009B0F0BD5A4BDA6942F40032DA61BD
:10270400DA6902F400320092009A9A6942F00402F3
:102714009A619B6903F004030193019B04230493CE
:1027240002230593032307934E4E04A93046FEF774
:102734006BFD08230493002505950123069304A942
:102744003046FEF761FD484E484B33607560B56016
:102754008027F760356175612023B361F5613046E8
:10276400FFF7A8FC66637462414E424B336010234A
:102774007360B560F76035617561B561F5613046C8
:10278400FFF798FC266374622A4629462620FEF742
:1027940059FC2620FEF78AFC2268D36843F0100314
:1027A400D360A6E72E4BDA6942F48022DA61DA6953
:1027B40002F480220292029A9A6942F008029A6113
:1027C4009B6903F008030393039B4FF48063049312
:1027D4000223059303230793274E04A93046FEF7EB
:1027E40013FD4FF40063049300250595012306931C
:1027F40004A93046FEF708FD204E214B3360756076
:10280400B5608027F760356175612023B361F56198
:102814003046FFF74FFC666374621A4E1A4B3360FE
:1028240010237360B560F76035617561B561F5615A
:102834003046FFF73FFC266374622A462946272068
:10284400FEF700FC2720FEF731FC2268D36843F032
:102854001003D3604DE700BF00440040004800402F
:102864000010024000080140740200206C00024085
:10287400FC04002080000240000C0140B80200204B
:1028840030000240000400201C0002402DE9F04FFB
:1028940089B07E4B9A6942F004029A619A6902F007
:1028A40004020192019A9A6942F008029A619A69B3
:1028B40002F008020292029A9A6942F010029A61A6
:1028C4009B6903F010030393039B4FF00009CDF8B9
:1028D4001490CDF81890022707974FF0200A0DEBBB
:1028E4000A0444F810AD21466948FEF78DFC4023E4
:1028F400049321466648FEF787FC8025049521460B
:102904006348FEF781FC4FF48063049321466148D9
:10291400FEF77AFC4FF40063049321465D48FEF70A
:1029240073FC4FF48056049621465A48FEF76CFC1B
:102934004FF00108CDF81880049621465648FEF75A
:1029440063FCCDF81890049721465348FEF75CFCCD
:10295400CDF814804FF00409CDF8109021464C486E
:10296400FEF752FC1026049621464B48FEF74CFC19
:10297400CDF810A021464848FEF746FC03230593F2
:10298400CDF8108021464348FEF73EFCCDF8108078
:1029940021464148FEF738FC4FF0080BCDF810B043
:1029A40021463C48FEF730FC049721463948FEF79F
:1029B4002BFC049621463748FEF726FCCDF810A0E0
:1029C40021463448FEF720FCCDF8109021463148CA
:1029D400FEF71AFCCDF810B021462F48FEF714FC80
:1029E400CDF8109021462C48FEF70EFC05974023A5
:1029F400049321462748FEF707FC04952146254801
:102A0400FEF702FC4FF48079CDF81090214621485E
:102A1400FEF7FAFB049521461F48FEF7F5FBCDF8B7
:102A2400108021461A48FEF7EFFB04972146184808
:102A3400FEF7EAFBCDF8109021461748FEF7E4FBB9
:102A44004FF40073049321461348FEF7DDFB4FF463
:102A54008063049321461048FEF7D6FB4FF40053DD
:102A6400049321460A48FEF7CFFB4FF480430493B6
:102A740021460748FEF7C8FB4FF400430493214660
:102A84000348FEF7C1FB09B0BDE8F08F0010024017
:102A9400000C014000100140000801402DE9F04FF6
:102AA40099B0774B9A6942F400629A619A6902F488
:102AB40000620192019A9A6942F400529A619B69F8
:102AC40003F400530293029B6E4EDFF8C091C6F8E4
:102AD4000090002474604FF0200AC6F808A04FF458
:102AE400FA6BC6F80CB034617461B4613046FEF719
:102AF4000BF910231693179416A93046FEF73AFAE9
:102B040060230F931094119408271297139414942C
:102B14004FF40073159322460FA93046FEF746F989
:102B240004220FA93046FEF741F93A460FA9304670
:102B3400FEF73CF94FF4006308934FF48063099364
:102B44000A9430230B930C940D940E940DEB0A010C
:102B54003046FEF7E3F94C4DDFF83481C5F80080C8
:102B64006C60C5F808A0C5F80CB02C616C61AC6150
:102B74002846FEF7C9F8CDF858A08023179316A964
:102B84002846FEF7F7F9049418A9052341F8543DA3
:102B94002846FEF74CF85023C8F8243060230F93DE
:102BA400109411941297139414944FF40073159382
:102BB40022460FA92846FEF7F9F804220FA9284651
:102BC400FEF7F4F83A460FA92846FEF7EFF84FF45B
:102BD400006308934FF4806309930A9430230B93A2
:102BE4000C940D940E940DEB0A012846FEF796F909
:102BF400D8F8443023F40043C8F84430D9F84430BA
:102C040023F40043C9F8443021462846FEF74AF924
:102C140004212846FEF746F939462846FEF742F9CC
:102C240021462846FEF768F904212846FEF764F990
:102C340039462846FEF760F921463046FEF732F958
:102C440004213046FEF72EF939463046FEF72AF9BC
:102C540021463046FEF750F904213046FEF74CF980
:102C640039463046FEF748F92B6801221A63326868
:102C7400136843F00103136019B0BDE8F08F00BF7F
:102C840000100240C003002094050020002C0140E5
:102C9400003401402DE9F04387B0434EB36943F457
:102CA4000073B361B36903F400730093009B3F4C5A
:102CB4003F4B23604FF48073A3600025E56065619A
:102CC4004FF44023E36165604FF00508C4F81080B9
:102CD4002046FEF7F1FD374A536843F480235360DE
:102CE40006A94FF4C02341F8043D2046FEF76CF9D1
:102CF40004950B2702974FF00109CDF80C9002A917
:102D04002046FEF761FCCDF8109002950223039350
:102D140002A92046FEF758FC0E23029303230393D3
:102D240002A92046FEF750FC0C23029304230393CC
:102D340002A92046FEF748FC0723049310230293BC
:102D4400CDF80C8002A92046FEF73EFC2268936869
:102D540043F4000343F480739360936843EA0903E4
:102D64009360736943EA09037361736903EA0903AE
:102D74000193019B104B1D60C3F804800F4A9A60B5
:102D84000F4ADA6040F6A2221A601A6842EA09027F
:102D94001A602A4629463846FEF754F93846FEF7A3
:102DA40085F907B0BDE8F08300100240CC04002090
:102DB4000024014000000140080002404C2401406E
:102DC40040050020F0B585B0274B9A6942F4806233
:102DD4009A619B6903F480630093009B234C244B0A
:102DE40023604FF48073A3600025E56065614FF4B0
:102DF4006023E3616560052626612046FEF75CFDDD
:102E040003950A2301930125029501A92046FEF7A3
:102E1400DBFB03950D2301930227029701A92046AA
:102E2400FEF7D2FB0F2301930325029501A9204647
:102E3400FEF7CAFB0197042302930DEB030120461E
:102E4400FEF7C2FB0195029601A92046FEF7BCFBE2
:102E540023689A6842F480729A609A6842F0010288
:102E64009A6005B0F0BD00BF001002403C03002092
:102E74000028014070B5214C002384F8FB3084F80D
:102E8400FA30022384F8F930012684F8FD604FF407
:102E94007A63A4F8CE304FF49642A4F8DA2084F88A
:102EA400FE60A4F8D0304FF4C873A4F8CC304FF4CB
:102EB4007A53A4F8E03042F6E063A4F8E230104D0F
:102EC4004FF480722146284603F09EFA85F8FA6092
:102ED4000C4804600C4BC3600C4B43600C4B836088
:102EE4000C4C25600C4BE3600C4B63600C4BA360F3
:102EF40003F0DEF9204603F0DBF970BD700000201A
:102F0400D805002084080020E8060020600800207E
:102F14009407002070080020B4070020A4070020B4
:102F2400D80600200C4B93F8FE3063B90B4B93F892
:102F3400FE3043B90A4B4FF47A721A80094B4FF6AC
:102F440018421A807047064B4FF47A721A80054B68
:102F54004FF618421A80704770000020D8050020F0
:102F64008E010020900100200268D36823F480734E
:102F7400D3600268536923F0010353617047000072
:102F840010B5084B00221A70082405E0064B1C708B
:102F94006420FEF705FB013C002CF7DA024B00220B
:102FA4001A7010BD2702002028020020034B18705D
:102FB400034B1970034B1A70704700BF270200209F
:102FC400280200202A02002038B50025044B1D7079
:102FD400044C20704FF4FA70FEF7E2FA257038BD05
:102FE400270200202802002038B50025044B1D705C
:102FF400044C20706420FEF7D3FA257038BD00BF5E
:10300400270200202802002038B50446002915DBD9
:103014004400E4B205E0E01CC0B2FFF7E5FF023C67
:10302400E4B2012CF7D838BDE81CC0B2FFF7DCFFCE
:103034000235EDB2B5EB440FF6DDF4E70225F9E70E
:10304400094BB3F90830094AB2F908209B1A03EB7B
:10305400D37343F34F03064A1380002BB8BF5B427C
:10306400044A1380704700BFD8060020940700204C
:10307400D405002080080020214B1B78032B00D0AE
:103084007047204BB3F90030002B1FDD524202FB86
:1030940000F2D21309B1524212B21B4B1B78C3EB9C
:1030A400C301480019490144B1F9020081B29529CC
:1030B40010D9963189B2952913D9952818DCC3EB18
:1030C400C3035900114B0B445A80D9E700FB02F2A9
:1030D400D20BDFE7C3EBC30359000C4B0B445A80FC
:1030E4007047C3EBC3035900084B0B445A80704725
:1030F400C3EBC3035900054B0B445A80704700BF10
:103104002A000020D4050020AD0100203C0000204E
:1031140070B4144B83FB0054C517C5EBA41583FB93
:103124000243D417C4EBA3139D420FD00D4E86FB6C
:103134000146CC17C4EBA614A3420AD090420ADC81
:103144008A420ADBA5420AD1012000E0002070BCBB
:1031540070470020FBE70020F9E70020F7E7022092
:10316400F5E700BF1F85EB512DE9F04182B0FFF771
:103174007BFA6D4C40226D492046FEF7CBFD20467C
:10318400FFF7F2FEFDF794F801F048FB0DF106019C
:10319400674B188801F020FBBDF8062041F20203BA
:1031A4009A4201D00024A0E0614E01A9708801F088
:1031B40013FBBDF904305F4DA5F8CE305E4CA4F886
:1031C400CE3001A9B08801F007FBBDF90430A5F8A1
:1031D400DA30A4F8DA300025002D40F08880EC00C5
:1031E400E31C534E01A936F8130001F0F5FA9DF8DB
:1031F4000410621B5300514F1F443971231D01A950
:1032040036F8130001F0E8FABDF90430FB80631DC1
:1032140001A936F8130001F0DFFABDF904303B814F
:10322400A31D01A936F8130001F0D6FABDF9043044
:103234007B81E31D01A936F8130001F0CDFA9DF856
:103244000410621B53003E4F1F44397105F10108FD
:103254004FEAC80301A936F8130001F0BDFABDF91D
:103264000430FB8004F1090301A936F8130001F0CE
:10327400B3FABDF904303B8104F10A0301A936F81D
:10328400130001F0A9FABDF904307B81641B6200CC
:103294002C4B134401221A715FFA88F59CE72546EA
:1032A400C4EBC4035A00254B13445B79032B23D08E
:1032B400C4EBC4025100214A0A441371C5EBC5038F
:1032C4005A001F4B13445B79032B21D0C5EBC50275
:1032D40051001B4A0A441371C5EBC5056A00194B1A
:1032E400134401221A711444E4B2002CD7D0FCF721
:1032F400F3FF02B0BDE8F081104E1644B6F90A207F
:10330400B6F90810B6F90600FFF702FF3071D5E7E9
:103314000B4E1644B6F90A20B6F90810B6F90600A1
:10332400FFF7F6FE3071D7E754050020B401002002
:1033340004000020D8050020700000202C0000208C
:103344003C0000204C000020F0B40579012D04D08D
:10335400022D16D00023438011E0B0F90030B0F9FB
:1033640006401B1B02FB03F3B0F90A10091B93FB75
:10337400F1F39A4202DB23EAE3731AB24280F0BC0F
:103384007047B0F90040B0F90830B0F90C505E1B3A
:10339400B44202DD5F19BC4211DB9C4212DD2B44B6
:1033A400E41A02FB04F4B0F90A10CB1A94FBF3F408
:1033B400A24202DB24EAE47422B24280DFE7002363
:1033C4004380DCE7A41B01FB04F3B0F90640A41B13
:1033D40093FBF4F4002C02DD00214180CFE7A142ED
:1033E400B8BF214609B2F8E738B5184B1B7823BBA0
:1033F4001749B1F90250DA00D41A6000154C25526D
:10340400B1F90450144C2552B1F90600D31A5A00EC
:10341400124B9852124B1A78B1F908309A420CD0D8
:10342400104A12784AB9104A127832B90F4A1278FF
:103434001AB95A1E92B2022A00D938BD084A13702A
:1034440001210820FFF7E0FDF7E700BFAD010020F0
:10345400940100202C0000203C0000204C0000209F
:103464002A000020F4010020F50100208C01002036
:1034740010B51D4A1388591C1180B3F5967F06D3E5
:103484001A4B01221A70184B4FF496721A80174B7C
:103494001B78174A1370174A12781AB913B9164BC6
:1034A4001B786BB10022154B1A70154B1978CB00A1
:1034B400581A4400134820444280134B23445A8032
:1034C4000F4B1B7813B1114A127822B113B90F4B69
:1034D4001B7823B910BD0820FFF786FDFAE71220F8
:1034E400FFF782FDF6E700BF5A000020F601002036
:1034F400F5010020F40100208C0100202A000020A6
:10350400AD0100202C0000203C000020AE01002072
:1035140070B5FFF769FF144E3378144D144CC3EBA8
:10352400C3035800B5F90020B4F90010114B184436
:10353400FFF70AFF3378C3EBC30358004FF47A72E2
:1035440000210D4B1844FFF7FFFE3378C3EBC30390
:103554005800B5F90020B4F90010084B1844FFF7DF
:10356400F3FEFFF785FF70BDAD0100208E01002042
:10357400900100202C0000204C0000203C00002082
:1035840030B403884AF6CD34A34201D030BC70472E
:103594001BB2B0F902406340B0F904406340B0F993
:1035A40006406340B0F9084063409BB244899C42A2
:1035B400ECD10568446883680D604C608B60022A16
:1035C400E4D10023024A1370024A1380DEE700BFED
:1035D400F60100205A00002070B51E4B5B6B1B687F
:1035E4005C68C4F140041C4B1B68A34208D002D29F
:1035F400E21A0C2A09D0C3F140052A190C2A12D068
:10360400154B1C60402C22D070BD14490B44144E41
:103614003546186859689A6807C502221149304628
:10362400FFF7AEFFECE72A460C4919440C4802F0B8
:10363400EBFE2CB902220B490948FFF7A1FFDFE793
:10364400224606490648284402F0DEFEF2E700223C
:103654001A60D9E754050020B0010020B40100200D
:10366400A0010020940100202DE9F843374B1B787A
:1036740013B9374B1B78C3B1FCF71AFE354C41F232
:103684000201208801F066FA334DB5F9CE1089B2F3
:10369400608801F05FFAB5F9DA1089B2A08801F008
:1036A40059FA00251DB1FCF717FEBDE8F883EC00BC
:1036B400E01C621B5300294F1F44264E397936F80B
:1036C400100001F047FA231DB7F9061089B236F845
:1036D400130001F03FFA631DB7F9081089B236F8F8
:1036E400130001F037FAA31DB7F90A1089B236F8AE
:1036F400130001F02FFAE21DDFF86480631B5F0002
:103704004744397936F8120001F024FA05F1010929
:103714004FEAC903B7F9061089B236F8130001F06D
:1037240019FA04F10903B7F9081089B236F813003D
:1037340001F010FA04F10A02B7F90A1089B236F856
:10374400120001F007FA5FFA89F5ABE7AF01002038
:10375400AC01002004000020700000202C00002098
:103764003C00002010B500240B4B1C700B4B1C704C
:103774000B4B1C7005E00B4B1C706420FDF710FF15
:103784000134072CF7DDFFF76FFF002220210648E4
:10379400FDF739FEFEE700BF3C02002027020020AF
:1037A4002A02002028020020000801402DE97003AD
:1037B40016683313C3EB00104FEAE0798CB2A4FB14
:1037C400000104FB0911040944EA01740D11B4F168
:1037D400004F75F1000308DA2346B4F1004F75F188
:1037E400FF3104DA4FF0004301E06FF000431E4460
:1037F4001660BDE8700370472DE9F04F83B0FFF702
:103804001FFC554BB3F90030052B02DD03B0BDE8B6
:10381400F08FFFF7E9FD514B1A78D300981A410055
:103824004F48415E090401919B1A5A004D4B9B5E1F
:103834001B0400934FF000094B4DCA4647F6FF7630
:103844002F46CB46B04602214848FDF7D5FDB0BB14
:1038540009F10104A4B2B9F57A6F30D2FFF7C4FDBF
:10386400DFF8F89099F80030C3EBC303580001AABD
:1038740041F699113A4B185EFFF798FF99F800301A
:10388400C3EBC30358006A4641F69911354B185EE1
:10389400FFF78CFFBDF906B0BDF902A0D845A8BF5B
:1038A400D8465F45B8BF5F465645A8BF56465545FE
:1038B400B8BF55460520FDF773FEA146C3E73A4657
:1038C40059464046FFF724FC244B1B78C0B2D9006C
:1038D400C91A4C00224A224410715279904209D0EC
:1038E400032A07D0C3EBC3035A001D4B1344002221
:1038F4001A7109E01A48DA00D41A61000144A1F8E7
:103904000680A1F808B04F812A4651463046FFF799
:10391400FFFB124B1B78C0B2D900C91A4C00114AE4
:10392400224410715279904209D0032A07D0C3EB84
:10393400C3035A000B4B134400221A7108E00948D0
:10394400DA00D41A61000144CE80A1F808A04D81A8
:10395400074B01221A7059E780080020AD010020AE
:103964002C0000203C0000200080FFFF00080140E4
:10397400AF01002030B583B0FFF762FB514BB3F9C0
:103984000030052B00F396804F4B1A78D300981A19
:1039940041004E48415E090401919B1A5A004C4B68
:1039A4009B5E1B04009300254A4B1D7002214A486C
:1039B400FDF722FD10BB6C1CA4B2B5F5FA6F1DD245
:1039C400FFF712FD404D2B78C3EBC303580001AA47
:1039D40041F699113D4B185EFFF7E8FE2B78C3EBD7
:1039E400C30358006A4641F69911394B185EFFF734
:1039F400DDFE0520FDF7D4FD2546D7E7324B1B78C5
:103A0400DA00D21A500031490144B1F90600019A92
:103A1400A2EB0042B1F90A10091A92FBF1F2B2F5D5
:103A2400803F49DA41F699118A42B8BF0A4691B2F9
:103A3400DA00D21A540026482044B0F90640009A0D
:103A4400A2EB0442B0F90A00001B92FBF0F2B2F5BB
:103A5400803F34DA40F6CC408242B8BF024692B28C
:103A6400C3EBC300440019482044007960B1FA2034
:103A740000FB01F109131948A0F8CE101848A0F86A
:103A8400CE10144901200870C3EBC3035900104B36
:103A94000B441B7973B14FF4966303FB02F21213C8
:103AA4000E4BA3F8DA200E4BA3F8DA20094A137858
:103AB4000233137003B030BD4FF6FF71B8E74FF611
:103AC400FF72CDE780080020AD0100202C0000200B
:103AD4003C000020AC01002000080140D805002073
:103AE4007000002038B502212248FDF785FCD0B1D2
:103AF4000024214B1C7000E02C4602211D48FDF7D8
:103B04007BFC58B10A20FDF74BFD651CADB2B4F542
:103B1400FA7FF1D10520FFF767FAEDE7B4F5FA7FF4
:103B240002D2082C24D838BD4FF47A70FDF738FD42
:103B340002211048FDF760FC58B91020FFF744FA41
:103B4400FFF75AFE0520FFF74FFAECE70A20FDF7CE
:103B540027FD02210748FDF74FFC0028F6D1082075
:103B6400FFF732FAFFF706FF0520FFF73DFADAE721
:103B7400FFF7F8FD000801403C020020000180B27C
:103B84001388C01A00B2884203DC494209B2884251
:103B940002DA1944118070470146FAE770B44910FB
:103BA400441AB4F5004F24DA164DAC42B8BF2C4683
:103BB4002411154DB5F90050AC421DDC134EB6F975
:103BC4000060B442B8BF344614800844B0F5004FD6
:103BD40014DA0C498842B8BF08460011854205DB57
:103BE4000A4AB2F900508542B8BF05461D8070BC30
:103BF400704747F6FF74DBE72C46E5E747F6FF70AE
:103C0400EBE700BF0080FFFF8E0100209001002041
:103C140030B597B002250C9501231093102311930E
:103C24001395002414944FF4601315930CA8FCF717
:103C3400F7FB0F230793089509944FF480630A93C5
:103C44000B94294607A8FCF711FE01954FF4804315
:103C5400039301A8FDF7E2FBFCF7C4FE084BA3FBAA
:103C640000308009FDF72EFA0420FDF741FA2246C0
:103C740021464FF0FF30FDF7E5F917B030BD00BF26
:103C8400D34D6210F0B583B0FDF76AFC364CA369DE
:103C940043F00103A361A36903F001030093009BB4
:103CA4000320FDF7BDF9002211466FF00B00FDF76C
:103CB400C9F9002211466FF00A00FDF7C3F900228A
:103CC40011466FF00900FDF7BDF9002211466FF0AF
:103CD4000400FDF7B7F9002211466FF00300FDF769
:103CE400B1F9002211466FF00100FDF7ABF9002293
:103CF40011464FF0FF30FDF7A5F9FFF789FF63691F
:103D040023F001036361FEF7C1FDFEF7C7FEFEF772
:103D1400C1FFFFF757F8FFF7ADF801222021134840
:103D2400FDF771FBFFF7FEF8FFF71EFA1048FDF7E9
:103D340027FD1048FDF724FDFFF722F90122042195
:103D44000D48FDF760FB0D4A138A1B040193138A87
:103D540002E00A20FDF724FC02210448FDF74CFB95
:103D64000028F6D12AE100BF0010024000080140FB
:103D7400CC0400203C030020000C0140400500203E
:103D8400B44BB3F900303C2B00F35B810A2BB8BF72
:103D94000A230A3BDB03B04A82FB0312D817C0EBA9
:103DA400221080B2AD4B1B78C3EBC3035A00AC4B5B
:103DB4001344B3F90220002A00F34681A94CA74D0D
:103DC4002B78C3EBC3035A00A74B134422464FF48A
:103DD400F071B3F90200FFF7D1FEA44E2B78C3EBC8
:103DE400C3035A00A24B134432464FF4F071B3F9A3
:103DF4000200FFF7C3FE9F4DB4F900002A4641F6C6
:103E040099110011FFF7D2FC9B4CB6F90000224631
:103E140041F699110011FFF7C9FCB5F90210B4F984
:103E24000200964B188000010901954C954D2346DC
:103E34002A4609B200B2FFF7B1FEB5F90020924B51
:103E44001A60B4F900305B42904A1360904B188AB0
:103E540001AA40F28F21FFF7A9FCBDF90630A3F2B5
:103E6400776303EB831203EB42038A4A82FB031258
:103E7400DB17A3EB620303F5B3731BB2864A13800B
:103E8400864AB2F9001040F6827202FB01F28449BC
:103E940081FB0201D417C4EB612424B2814A14804B
:103EA400814AB2F90C206FF0630000FB02F26A4908
:103EB40081FB0265D217C2EB251212B27B4D2A8018
:103EC4007B4DB5F90C5000FB05F081FB0015C117C3
:103ED400C1EB251109B2774801800A4476490A806A
:103EE400764A126812F0010F23D1754A4AF6CD3191
:103EF40011805A490878C1000D1A6E005A4D354494
:103F0400B5F9027057805A493144B1F9026096807C
:103F14006C49B1F90850D5806B49B1F9080010819A
:103F240054819381694A126B12685268002A00F026
:103F3400DB80FFF7D7FD594BB3F9003040F2F14273
:103F4400934205DC434AB2F90020132A40F3DB8094
:103F54005D4A927922B95B4A9279002A00F0D680B0
:103F64005B4B00221A70012218211046FFF71EF83D
:103F7400434BB3F90030002BB8BF5B42322B08DC53
:103F8400404BB3F90030002BB8BF5B42322B40F3F7
:103F9400FF80504B00221A604E4B1A684E4B9A42D7
:103FA40000F2FB802D4B1A784C4B1A704C4B1A685C
:103FB4004C4B1A60414A136801331360484B1B6829
:103FC400484A12689B1A502BF8D9FFF7A1FAFFF759
:103FD40037F83F4B1B78002B7FF4D2AE3A4B9B79DA
:103FE400002B7FF4CDAE374B9B79002B7FF4C8AE0A
:103FF4001A4B1A78C2EBC20359001B4B0B44B3F99A
:10400400023031339BB2622B3FF6BAAE184B0B44ED
:10401400B3F9023031339BB2622B3FF6B1AE0620C6
:10402400FEF7E2FF0420FEF7DFFF6420FDF7B8FA95
:104034000023114A13600F4A1360254B01221A70A2
:104044009EE64FF40040ADE6D2B20021FFF714F82B
:10405400B4E600BF800800201F85EB51AD010020AD
:104064004C000020240200202C0000201C02002010
:104074003C0000202002002018020020140200202E
:10408400640900206809002048020020440200203E
:10409400400500206B4CA4076A0900205C00002046
:1040A400D190D9576E0900206008002066090020CD
:1040B400A40700206C090020700900209408002047
:1040C400F8010020D80600209407002054050020A1
:1040D4003C0200201002002080380100AE010020C4
:1040E4002C0200200C0200202D49CA812D4A7A405E
:1040F400564075406840444063400B8212222A486F
:10410400FDF7C2FD15E7FFF72DFB31E7274A1278CB
:10411400EAB9274A127802BB264A12781ABB40F23F
:104124002252934225DD244BB3F9003013F1320FB0
:1041340004DA224BB3F90030002B20DB00221146B5
:104144001046FEF733FF1E4B00221A7010E70122BF
:1041540018210220FEF72AFF0AE701221821032072
:10416400FEF724FF04E7012218210420FEF71EFFB6
:10417400FEE606220A210020FEF718FFF8E60122D7
:1041840005210020FEF712FF0D4B01221A70EFE605
:104194000C4A136801331360FEE6FFF7E3FA01E704
:1041A400F8010020CDABFFFF54050020F4010020EE
:1041B400F50100208C01002014020020D405002009
:1041C400980800201002002038B5904B02225A6053
:1041D4008F4B1B88B3F5FA6FC0F094808D4B1A682F
:1041E4008D4BA3FB02139B094FF47A7101FB13233C
:1041F400002B00F0C28089498A88894B1B889B1A4E
:10420400884A1380CA88884B1B889B1A874A138064
:104214004B88874A1288D21A12B2864B1A800889B0
:10422400854B1B881B1A854803804889844B1B884F
:104234001B1A844803800988834B1B885B1A1BB2B2
:1042440082490B80002AB8BF5242B2F5AF7F04DC2A
:104254007F4A1278002A40F09D807E494A6C22F4FD
:1042640000424A64002BB8BF5B42B3F5AF7F04DC65
:10427400774B1B78002B40F09380774A536C23F4E0
:1042840000435364634A136801331360734B1A7811
:10429400002A00F08B805F4B1B687149A1FB03135C
:1042A4001B0B704909780131B3FBF1F001FB1033AA
:1042B400002B7BD16C4B1B787BB96B4B01211970A4
:1042C4006A490B780133DBB20B7069490978023112
:1042D4008B4202DD654B012119704E4B1968B1FB0D
:1042E400F2F302FB1312002A63D1604B1A78604B7D
:1042F4001B789A4201D9002B5BD110215D48FDF750
:1043040088F856E00133424A1380444A908844496D
:10431400B1F90030034403EBD3735B100B80D088F6
:104324004149B1F90030034403EBD3735B100B80B4
:1043340010894149B1F90030034403EBD3735B1096
:104344000B8050893E49B1F90030034403EBD37329
:104354005B100B8050883649B1F90030034403EBFD
:10436400D3735B100B801188374AB2F900300B44C9
:1043740003EBD3735B10138038BD284B98893E4CF4
:10438400224640F28F21FFF711FAB4F902203B4B89
:104394001A8030E72F494A6C42F400424A6461E7CC
:1043A4002D4A536C43F4004353646BE72E4B1B7844
:1043B400F3B9334B93F8F930022B22D0314B00225E
:1043C4001A80314B1B78002BD6D12F4B01221A7047
:1043D4001F4B1B78002B5DD02C4B9B79002B40F09E
:1043E40003812B4B9B79002B00F00081002252E0CB
:1043F400002210211F48FDF706F81B4B00221A70FB
:10440400D7E7204B6E221A80DBE700BF0000024092
:104414003E0200202C020020D34D621040050020F3
:1044240068000020320200206A00002034020020CC
:1044340064000020300200206C00002038020020BC
:104444006E0000203A0200206600002036020020A0
:104454003C02002000340140002C014028020020CE
:104464005917B7D12A0200202B020020290200206C
:104474002702002000080140600000205C000020AA
:104484007000002040020020260200209407002033
:10449400D80600200022D2B26D4B1A706D4B996879
:1044A40011F0200F0CBF01240024996811F0400F73
:1044B4000CBF012000209B6813F0800F0CBF01216A
:1044C4000021654B1A70654A12785A70644A126862
:1044D4005A801C7158719971624A12881A81624A11
:1044E40012885A81614A12889A81614B186800F0D7
:1044F40011FE604BB3F90010B3F90220B3F9044084
:1045040001F57A755C4BB3F90030C3F5FA60854266
:104514006EDD81B2594D696302F57A7188426FDAB2
:10452400C3F5FA6292B255498A6304F57A729042ED
:104534006EDAC3F5FA639BB2504AD363504B9A6860
:1045440012F4806F0CBF012000209A6812F4006FEF
:104554000CBF012100219B6813F4805F0CBF012272
:104564000022484B3A4C24781C703C4C24785C70F4
:10457400454C24685C80187159719A71434A1288B9
:104584001A81434A12885A81424A12889A81424BBC
:10459400186800F0BFFD414BB3F90010B3F90220D5
:1045A400B3F9044001F57A75334BB3F90030C3F520
:1045B400FA60854234DD81B2394D696302F57A715E
:1045C400884235DAC3F5FA6292B235498A6304F552
:1045D4007A72904234DAC3F5FA639BB2304AD363F9
:1045E400304B00221A70C7E6002254E7012252E73A
:1045F4009D4203DB01F57A7189B28BE799B289E7B1
:104604008B4203DC02F57A7292B28CE79AB28AE7A3
:10461400934203DC04F57A739BB28DE79BB28BE77C
:104624009D4203DB01F57A7189B2C5E799B2C3E70C
:104634008B4203DC02F57A7292B2C6E79AB2C4E7FF
:10464400934203DC04F57A739BB2C7E79BB2C5E7D8
:104654003D020020000C0140600800202A000020D8
:1046640044020020320200203402002030020020E4
:1046740068640008940700204002002000340140D0
:1046840000100140A4070020480200203802002046
:104694003A020020360200206C640008D80600208C
:1046A400002C014026020020074B984207D80388BB
:1046B4009BB24FF6FF72934203D10430F4E701201A
:1046C40070470020704700BFFF070108114B1B888B
:1046D4009BB2114A128892B278B1012811D12AB939
:1046E4004EF6EE618B420FD113460BE073B94EF6D2
:1046F400EE618A4206D1402304E01BB142B9402353
:1047040000E00023184670474023FBE7AB23F9E79A
:10471400AB23F7E7000001080000020870B5054666
:104724000E460120FFF7D2FFAB2821D000F58034DC
:104734002034E402431C0F4800EBC320844216D209
:104744002368B3F1FF3F01D00434F7E7B2B200238A
:1047540021460120FBF700FE08B180B208E0AAB2AE
:104764000023A11C0120FBF7F7FD80B200E08020AC
:1047740070BD00BFFFFF000810B586B0002305938D
:1047840001931248039001230493FFF78DFF28B986
:1047940005A901A8FCF7E6FC044638B90022002369
:1047A4000A490120FBF7D8FD044610B1204606B0A3
:1047B40010BD074B03930748FFF776FF0028F5D198
:1047C40005A901A8FCF7CEFC0446EFE700000108A8
:1047D400008001080000020838B504460D46002098
:1047E400FFF774FFAB2816D000F580322032D202D6
:1047F400431C094800EBC320931C83420AD203885C
:104804009BB2A34201D00438F6E730F8023C2B8077
:10481400002000E0012038BDFEFF0008F0B587B09D
:1048240000220592914B1E88B6B291490D88ADB213
:1048340001920393012304934EF6EE639E4240D00B
:104844004FF6FF739E420BD0002E00F09F80FFF7BF
:1048540093FF002800F0078185B2284607B0F0BD19
:1048640055B14EF6EE639D4215D0FFF785FF002843
:1048740000F0F18085B2F0E77C48FFF715FF0446AD
:104884000028EAD105A901A8FCF76CFC002800F077
:10489400DE8085B2E1E77548FFF706FF20B905A978
:1048A40001A8FCF75FFC50B90022002370490120E5
:1048B400FBF752FD002800F0CC8085B2CDE785B22D
:1048C400CBE75DB34FF6FF739D4248D0FFF754FF2B
:1048D400002800F0C68085B2BFE727B20CE001349F
:1048E400A4B2122C1ED8634B1B889BB22646624A84
:1048F40032F814008342F0D0BE42F0D05F49FFF793
:104904006BFF0128EBD05D4B19885B4B33F8160025
:10491400FFF704FF0028E2D005469EE72C464FF03F
:10492400FF37DEE70022002350490120FBF714FD86
:1049340008B185B291E700230193514B03930123FE
:1049440004934B48FFF7B0FE0446002885D105A91F
:1049540001A8FCF707FC00287FD085B27DE7484B0F
:1049640003934348FFF7A0FE20B905A901A8FCF76B
:10497400F9FB48B9002200233C490120FBF7ECFC79
:1049840000286CD085B268E785B266E73DB14FF682
:10499400FF739D420AD034464FF0FF371CE0FFF707
:1049A400EBFE00283FF459AF85B256E7344B03932E
:1049B4002F48FFF779FE054608B135464DE705A9AE
:1049C40001A8FCF7CFFB00283FF447AF85B244E7CA
:1049D40027B20CE00134A4B2122C1AD8294B1B883C
:1049E4009BB22546244A32F814008342F0D0BD42DB
:1049F400F0D02249FFF7F0FE0128EBD01F4B1988B5
:104A04001D4B33F81500FFF789FE05460028E1D059
:104A140023E70022002316490120FBF79DFC08B17F
:104A240085B21AE7002301931048039001230493ED
:104A3400FFF73AFE054608B135460EE705A901A879
:104A4400FCF790FB00283FF408AF85B205E7254644
:104A540003E7002501E70025FFE62546FDE60025DE
:104A6400FBE60025F9E60025F7E600BF0000010893
:104A74000000020806000108040000204C02002087
:104A840000800108060002082DE9F04186B00546C1
:104A94000F4600200590FFF719FE402811D000288A
:104AA4004BD1DFF8A080264E4EF6EE62002331464D
:104AB4000120FBF751FC40B184B2204606B0BDE8AA
:104AC400F081DFF88C801F4EEEE739462846FFF769
:104AD40025FE044610B1F0E70134A4B2122C14D818
:104AE400194B33F81400A842F6D01849FFF774FEA6
:104AF4000128F1D0154B1988134B33F81400FFF734
:104B04000DFE0028E8D00446D7E700230193CDF832
:104B14000C800123049305A901A8FCF723FB08B129
:104B240084B2CAE70022002331460120FBF714FCBB
:104B340008B984B2C1E784B2BFE7AB24BDE700BFC4
:104B44000000020800000108040000204C020020BC
:104B54000080010838B504460D46FFF7DFFD8028C4
:104B640000D038BD29462046FFF78EFFF9E770478D
:104B7400FEE7FEE7FEE7FEE770477047704708B5BB
:104B8400FCF700FDFCF7C5FA08BD000008B50248B3
:104B9400FDF7CEFB08BD00BF7402002008B5024833
:104BA400FDF7C6FB08BD00BFFC04002010B582B0B1
:104BB4000A4C2046FDF7D0F92368DA6812F0100F8A
:104BC40001D102B010BD002201921A6801925B6803
:104BD4000193019BFEF700FDF3E700BF540500209D
:104BE400884209DD401A80B2B0FBF2F29A4201D346
:104BF400D8B27047D0B2704700207047884209D9B4
:104C0400401A80B2B0FBF2F29A4201D3D8B2704794
:104C1400D0B2704700207047CB0FB3EBD07F08D0E1
:104C240090FBF1F301FB13032BB990FBF1F0184453
:104C340070470023F9E74FF0FF33F6E70180704730
:104C44003AB9B3F90020104400B2884203DB19805A
:104C540070470022F7E71880704700230360436021
:104C64007047000030B4B0F900401D68A4EB25443F
:104C7400B4F5004F04DA14F5004F03DA0F4C01E0E9
:104C840047F6FF7404FB0154251415801C60B0F929
:104C940002005C68A0EB2440B0F5004F04DA10F584
:104CA400004F03DA054801E047F6FF7000FB0141BD
:104CB40008145080596030BC704700BF0080FFFF6B
:104CC4000180704710B4019C42B92288104480B21C
:104CD4001880884204D3218010BC70470022F5E775
:104CE4002080F9E713781B1A18BF01230B7010708A
:104CF400704710B5044600210430FFF7E1FF00219E
:104D0400A01CFFF7DDFF10BD2DE9F04184B006467D
:104D14000F4690461D460A9C22460DF10D01FFF7F1
:104D2400E1FF0EB1A3794BB10EB9A379EBB9A37925
:104D34002B702B78A37104B0BDE8F0819DF80D2091
:104D4400231D00930DF10E0339460120FFF7BAFF2E
:104D5400BDF80E30BB4205D8A3790BB9002302E09D
:104D6400012300E001232B70E3E79DF80D20A31C31
:104D740000930DF10E0341460120FFF7A3FFBDF898
:104D84000E30434503D8A37913B1012300E0002377
:104D94002B70CEE741607047002303604160704789
:104DA400F0B4BDF91060059D069C01FB00F10911EA
:104DB40013D4002905DD27686FF00040401A8742AC
:104DC40013DC2068084461680144081307B29F4259
:104DD4000EDCB74216DB2F800BE02768C1F10040E0
:104DE4008742E6DA4FF00040EDE76FF00040EAE773
:104DF4002B802B881B1A1BB203FB02F2226061601A
:104E0400F0BC70472E80F4E7012303717047002340
:104E14004371012303717047F0B5BDF91460BDF906
:104E24001870079C099D02FB00F2002A1DDB002A72
:104E340005DD6FF0004EAEEB020EA6451CDB2244EE
:104E44002C7904B12B606B79CBB14FF0000C2B683B
:104E540003EB0C0400FB01F3DB12B3F5004F10DA93
:104E640013F5004F0FDA274B0DE0C2F1004EA645B3
:104E7400DDDD4FF00042E3E76FF00042E0E79446E7
:104E8400E5E747F6FF73211403EB41035B10B3F529
:104E9400004F04DA13F5004F03DA1A4B01E047F62A
:104EA400FF731BB2B34215DD08990E80002A19DB8B
:104EB400002AD4BF00220122002B16DB002BD4BF12
:104EC40000210121914213D000236B7100232B7127
:104ED4002C60F0BDBB4202DA08990F80E6E708991E
:104EE4000B80E3E74FF0FF32E6E74FF0FF31E9E7ED
:104EF400B34203DCBB4203DB0023E6E70123E4E720
:104F04000123E2E70080FFFF0123037170470023C0
:104F14004371012303717047F0B5BDF91460BDF905
:104F24001870079C099D02FB00F2002A1EDB002A70
:104F340005DD6FF0004EAEEB020EA6451DDB2244EC
:104F44002C790CB11B042B606B79CBB14FF0000CA6
:104F54002B6803EB0C0400FB01F3DB12B3F5004FE9
:104F640010DA13F5004F0FDA274B0DE0C2F1004EB3
:104F7400A645DCDD4FF00042E2E76FF00042DFE7D8
:104F84009446E5E747F6FF73211403EB41035B10F6
:104F9400B3F5004F04DA13F5004F03DA1A4B01E0BE
:104FA40047F6FF731BB2B34215DD08990E80002A41
:104FB40019DB002AD4BF00220122002B16DB002BB0
:104FC400D4BF00210121914213D000236B7100232F
:104FD4002B712C60F0BDBB4202DA08990F80E6E722
:104FE40008990B80E3E74FF0FF32E6E74FF0FF311B
:104FF400E9E7B34203DCBB4203DB0023E6E701231A
:10500400E4E70123E2E700BF0080FFFF0123837090
:1050140070470023C370012383707047F0B5BDF956
:105024001470BDF918C0079D089C099E02FB00F28C
:10503400002A20DB002A05DD6FF0004EAEEB020EE5
:10504400AE451FDB2A44B57805B13380F378FBB94C
:10505400002A1ADB002515442B1435881D442DB273
:1050640000FB01F3DB12B3F5004F13DA13F5004F25
:1050740012DA274B10E0C2F1004EAE45DADD4FF0F4
:105084000042E0E76FF00042DDE74FF6FF75E2E72C
:105094000023E2E747F6FF7303EB45035B10B3F528
:1050A400004F04DA13F5004F03DA194B01E047F619
:1050B400FF731BB2BB4214DD2780002A18DB002AD1
:1050C400D4BF00220122002B15DB002BD4BF00210A
:1050D4000121914212D00023F3700023B370358074
:1050E400F0BD634502DAA4F800C0E6E72380E4E7F4
:1050F4004FF0FF32E7E74FF0FF31EAE7BB4203DC52
:10510400634503DB0023E7E70123E5E70123E3E746
:105114000080FFFF2DE9F04F95B00568C46846682C
:10512400876833799900C9B272795000C0B20144DA
:10513400C9B2B0790144C9B20991003218BF012241
:1051440094F89AC094F89B10002B0CBF134682F07D
:105154000103002818BF83F00103BCF1000F18BF3E
:1051640083F00103002918BF83F0010394F89C1015
:10517400003118BF012181EA030299425AD094F9FF
:105184008E10C04B0998034493F98807C3B294F86E
:105194008FC0A3EB0C035BB2012B06D013F1050FF8
:1051A40003D0FF2384F88E3002E0012384F88E308C
:1051B40084F88F00B4F98000A4F856001FFA80FC2C
:1051C400B4F88230ACEB03039BB20FFA83FEBEF15A
:1051D400000F43DBB5F90430734543DC012384F845
:1051E400A93094F8A98084F8A28094F98E308B4277
:1051F40014BF4FF0010E4FF0000E04D094F8A790A6
:10520400B9F1000F56D18B4234D0B4F98A109BB255
:1052140001FB03F3A4F87A30A4F88200B4F98630D1
:10522400A4F88430B4F98830A4F88630A4F888004F
:1052340084F8A7E004F14003B5F90A100120FFF750
:10524400FFFC0C90B5F90A30834239DBB4F97A30AB
:105254000B93002B30DB0B9B079334E05B420FFA7C
:1052640083FEB7E7B5F906307345BADB002384F84B
:10527400A930B6E7B8F1000F05D0A989090191FB5F
:10528400F0F109B2C3E7A989890089B20901B4F828
:105294008480B4F88690C8441FFA88F8B4F88890DB
:1052A400C8441FFA88F8C4440FFA8CFC91FBFCF143
:1052B40009B2ACE70021AAE75B421BB2079302E004
:1052C40000230B930793B5F9D430079A93420DDC6E
:1052D400012384F8A83095F8FB3083B994F8A8200A
:1052E4005AB394F8A22052B3002209E0B5F9D2309F
:1052F400079A9342EFDB002384F8A830EBE70122FE
:10530400D2B2089294F8A3200D9294F8A4200E929D
:10531400B6F902B04FEA0B120F920FFA82FBB6F9FC
:1053240008904FEA091946F63F22914509DC564A8E
:10533400914516DB0FFA89F905E00022E0E7012226
:10534400DEE746F64029B6F90A804FEA081846F621
:105354003F22904508DC4C4A904572DB0FFA88F8EE
:1053640004E0DFF82C91EEE746F64028002B40F0ED
:105374009180089B002B6ED0B4F956100C9B994277
:1053840000DC0B4694F98E20012A5DD0DFF8F4C0CE
:105394000998604490F88807013040B29B0393FB5E
:1053A400F1F399B293B203FB01F31BB203EB803325
:1053B40043F38F03002B62DDC3EB031343F30F139B
:1053C4000A9394F9903095F8F920022A00F083802A
:1053D4004FF0FF3A84F890A09A450ED06BB9FF23A2
:1053E40084F898300023A4F87C30A4F87E30A4F824
:1053F4005230A4F85430A4F87830BAF1000F40F0D9
:105404003F8195F8FA30002B40F0B58044F6E7125E
:1054140002FB09F102FB08F200295FDB00230B44C5
:10542400DB13002A5DDB4FF00008904448F38F380B
:105434004344B3F5004F57DA13F5004F56DA134BD4
:1054440054E0DFF84C8091E7DFF838C009986044F5
:1054540090F98807A2E794F98E30012B09D0094B03
:10546400099A134493F8883701335BB21B031BB2C8
:10547400A0E7044B099A134493F98837F6E700230D
:105484009AE700BF70640008C195FFFF0080FFFF2A
:10549400C095FFFFB6F90E3095F8F8A00AFB03FAA1
:1054A400AAF5F07A4FF4B4515046FFF7B5FB80B239
:1054B40000EB4000C0EB0010C30018469BB21B0178
:1054C4009BB2AAEB030A0FFA8AFA4FEA8A0A0FFA86
:1054D4008AF30A9375E74FF0000A7BE747F6FF73F8
:1054E4009DE743F6FF78A0E747F6FF730FFA83F8CA
:1054F400B423802200210A98FFF772FBB74B33F9DB
:105504001020A4F87C20B43003EB4003B3F902303C
:10551400A4F87E3094F9983032780AB94FF0FF3A03
:1055240084F898A09A4507D033B90022A4F85220F1
:10553400A4F87820A4F85420BAF1000F40F0A08019
:10554400002B70D14046B4F97E1001FB08F848F3F3
:105554008F384B46B4F97C2002FB09F949F38F39A3
:10556400A8EB0909B9F5004F62DA19F5004F61DAC1
:10557400DFF86C925EE0012B1CD044F6E71202FBCC
:1055840009F102FB08F2002942DB00230B44DB1380
:105594005B42002A3FDB4FF00008904448F38F3809
:1055A400A3EB0803B3F5004F38DA13F5004F37DAED
:1055B4008B4B35E04B464146A9EB0802B2F5004F50
:1055C40004DA12F5004F03DA854A01E047F6FF7268
:1055D40044F6E71808FB02F8B8F1000F10DB4FF0AF
:1055E4000009C84448F3CF38C3F10009A9EB01010D
:1055F400B1F5004F07DA11F5004F06DA784904E0F7
:1056040047F6FF79EDE747F6FF710FFA81F96FE787
:1056140047F6FF73BAE743F6FF78BEE747F6FF7332
:105624000FFA83F864E704F13800FFF716FB89E703
:1056340047F6FF79ADF8489003FB01F343F38F334A
:1056440002FB00F242F38F321344B3F5004F04DA45
:1056540013F5004F03DA624B01E047F6FF73ADF830
:105664004A3004F1380304F15202B5F8EC1012A8E0
:10567400FFF7F8FAB4F95230002B4ADBA4F878307B
:1056840094F8A330002B00F0FC8195F8FD30002B3A
:1056940035D094F89D3013F0040F3FD001238DF8DA
:1056A4004F30099B072B56D04FF00008099B002B65
:1056B40008BF08F101080DF1500919F8013D9B00DC
:1056C400DBB29844EA89298A18F0FF0804F12E0312
:1056D400009304F1A10314BF01200020FFF714FB81
:1056E40004F12C02494694F8A100FFF7FBFA9DF857
:1056F4004F309BB387F80680BB7984F89D3094F8CB
:10570400A1307BBB3378002B38D07378C3BB012323
:1057140029E09BB25B42A4F87830B1E7B4F98C304D
:10572400002B0CDB327872B1B5F9DC2007998A4280
:105734000DDDB5F9DE209A420BDB002304E09BB2B9
:105744005B421BB2EEE700238DF84F30A9E700233C
:10575400FAE70123F8E74FF00208A7E794F89D3031
:10576400BB71C9E70123DBB28DF84F307278022A8E
:1057740008D095F8FC1039B3012104E00123F2E7C5
:105784000023F0E70121C8B2032A1FD00022D1B2BE
:1057940094F89E2042BB012384F89E30022384F8AF
:1057A4009F30002384F8993095F8F930022B00F0EB
:1057B400A080BBF57A5F00F313811BF57A5F80F25A
:1057C400C480DFF820B0C0E00021DCE795F8FC20BD
:1057D4000AB10022DBE70122D9E700BF70640008A8
:1057E4000080FFFF80C1FFFF94F89F20012A16D09C
:1057F400002284F89920002BD6D17378012B02D093
:1058040008B90029D0D0012384F89F30002961D041
:10581400022384F8A030032384F89930C4E743B109
:10582400002384F8A030022284F89F2084F8993061
:10583400BAE794F8A030012B12D0022B27D0012311
:1058440084F8993009B90028AED0002384F8A03038
:10585400A1B3022384F8A030032384F89930A3E78A
:10586400022384F8993000289ED1002384F8A030C4
:1058740031B1022384F8A030032384F8993093E7EC
:10588400032384F8A030012384F899308CE70323A0
:1058940084F89930002987D1002384F8A03030B1EE
:1058A400012384F8A030022384F899307CE7032391
:1058B40084F8A030012384F8993075E730B10123CE
:1058C40084F8A030022384F899306DE7032384F828
:1058D400A03069E730B1012384F8A030022384F8B2
:1058E400993061E7032384F8A030012384F89930C8
:1058F4005AE70023ADF84030B5F91230ADF8423024
:10590400B5F9DA30ADF84430B5F9CE30ADF84630FB
:10591400BBF57A5F05DC1BF57A5F04DADFF820B3A8
:1059240001E04FF47A5B737814AA02EB430333F972
:10593400103C5B01BF4A82FB0312DB17C3EBE2039B
:105944009BB20BFB03FB4BF30F3B94F9971094F8BA
:105954009930003318BF01235AB284F89720002BE2
:1059640041D0002B40F08580B4F97430002BC0F294
:105974008380A4F8763094F9912095F8F930022BBD
:1059840000F04383B4F974804FF0FF3384F891300E
:10599400934206D02AB9A4F84C20A4F84E20A4F8C7
:1059A4005020002B40F0CD83B4F95AC0B4F97E00E6
:1059B40000FB0CF242F38F3EB4F95810B4F97C307A
:1059C40003FB01F242F38F32AEEB0202B2F5004F59
:1059D40080F21F8312F5004F80F21D83964A1AE36A
:1059E4004FF47A5BB1E7914204D0012384F8A630E6
:1059F4000023A364B4F98C20120312F0006F28D0A2
:105A040042F0784294F8A6008DF84F00002384F801
:105A1400A63008BBA36C594211F0006F1ED041F0B0
:105A2400784C2968614508DB494211F0006F18D0B1
:105A340041F078418C4500DB61460B4413F0006F64
:105A440012D043F0784390B1A2641B13A4F87430CD
:105A54008AE722F07842D5E71346DCE721F0784C58
:105A6400DFE721F07841E5E723F07843EBE7A3642F
:105A7400EBE7A4F874B077E79BB25B42A4F8763006
:105A840079E794F8A430002B00F05C8195F8FE309F
:105A9400002B4CD0BBF1000F09DBB5F9E0105945E0
:105AA4000BDBB5F9E2305B4508DC5B4606E00F9B97
:105AB400C3F1000B0FFA8BFBEFE70B4695F8F920C7
:105AC400022A0CD0B5F9CC80B5F9D600079A9042D9
